{
  "_format": "hh-sol-artifact-1",
  "contractName": "UserRegistry",
  "sourceName": "contracts/UserRegistry.sol",
  "abi": [
    {
      "inputs": [
        {
          "internalType": "string",
          "name": "city",
          "type": "string"
        }
      ],
      "name": "CityLimitReached",
      "type": "error"
    },
    {
      "inputs": [
        {
          "internalType": "string",
          "name": "aadhar",
          "type": "string"
        }
      ],
      "name": "DuplicateAadhar",
      "type": "error"
    },
    {
      "inputs": [
        {
          "internalType": "string",
          "name": "pan",
          "type": "string"
        }
      ],
      "name": "DuplicatePan",
      "type": "error"
    },
    {
      "inputs": [
        {
          "internalType": "string",
          "name": "aadhar",
          "type": "string"
        }
      ],
      "name": "InvalidAadharFormat",
      "type": "error"
    },
    {
      "inputs": [
        {
          "internalType": "string",
          "name": "message",
          "type": "string"
        }
      ],
      "name": "InvalidAadharNumber",
      "type": "error"
    },
    {
      "inputs": [],
      "name": "InvalidDocumentHash",
      "type": "error"
    },
    {
      "inputs": [
        {
          "internalType": "string",
          "name": "message",
          "type": "string"
        }
      ],
      "name": "InvalidPagination",
      "type": "error"
    },
    {
      "inputs": [
        {
          "internalType": "string",
          "name": "pan",
          "type": "string"
        }
      ],
      "name": "InvalidPanFormat",
      "type": "error"
    },
    {
      "inputs": [
        {
          "internalType": "string",
          "name": "message",
          "type": "string"
        }
      ],
      "name": "InvalidPanNumber",
      "type": "error"
    },
    {
      "inputs": [],
      "name": "RejectionCooldownActive",
      "type": "error"
    },
    {
      "inputs": [
        {
          "internalType": "string",
          "name": "message",
          "type": "string"
        }
      ],
      "name": "UnauthorizedAccess",
      "type": "error"
    },
    {
      "inputs": [],
      "name": "UserAlreadyExists",
      "type": "error"
    },
    {
      "inputs": [],
      "name": "UserNotFound",
      "type": "error"
    },
    {
      "inputs": [
        {
          "internalType": "string",
          "name": "message",
          "type": "string"
        }
      ],
      "name": "ValidationError",
      "type": "error"
    },
    {
      "anonymous": false,
      "inputs": [
        {
          "indexed": false,
          "internalType": "address",
          "name": "owner",
          "type": "address"
        },
        {
          "indexed": false,
          "internalType": "uint256",
          "name": "amount",
          "type": "uint256"
        }
      ],
      "name": "EmergencyWithdrawal",
      "type": "event"
    },
    {
      "anonymous": false,
      "inputs": [
        {
          "indexed": true,
          "internalType": "address",
          "name": "inspector",
          "type": "address"
        },
        {
          "indexed": false,
          "internalType": "uint256",
          "name": "id",
          "type": "uint256"
        }
      ],
      "name": "InspectorAdded",
      "type": "event"
    },
    {
      "anonymous": false,
      "inputs": [
        {
          "indexed": true,
          "internalType": "address",
          "name": "inspector",
          "type": "address"
        },
        {
          "indexed": false,
          "internalType": "uint256",
          "name": "id",
          "type": "uint256"
        }
      ],
      "name": "InspectorRemoved",
      "type": "event"
    },
    {
      "anonymous": false,
      "inputs": [
        {
          "indexed": true,
          "internalType": "address",
          "name": "previousOwner",
          "type": "address"
        },
        {
          "indexed": true,
          "internalType": "address",
          "name": "newOwner",
          "type": "address"
        }
      ],
      "name": "OwnershipTransferred",
      "type": "event"
    },
    {
      "anonymous": false,
      "inputs": [
        {
          "indexed": false,
          "internalType": "address",
          "name": "account",
          "type": "address"
        }
      ],
      "name": "Paused",
      "type": "event"
    },
    {
      "anonymous": false,
      "inputs": [
        {
          "indexed": true,
          "internalType": "address",
          "name": "user",
          "type": "address"
        },
        {
          "indexed": false,
          "internalType": "string",
          "name": "reason",
          "type": "string"
        },
        {
          "indexed": false,
          "internalType": "bool",
          "name": "hasRole",
          "type": "bool"
        },
        {
          "indexed": false,
          "internalType": "bool",
          "name": "isRegistered",
          "type": "bool"
        },
        {
          "indexed": false,
          "internalType": "uint256",
          "name": "reasonLength",
          "type": "uint256"
        }
      ],
      "name": "RejectionDebug",
      "type": "event"
    },
    {
      "anonymous": false,
      "inputs": [
        {
          "indexed": true,
          "internalType": "bytes32",
          "name": "role",
          "type": "bytes32"
        },
        {
          "indexed": true,
          "internalType": "address",
          "name": "account",
          "type": "address"
        }
      ],
      "name": "RoleAssigned",
      "type": "event"
    },
    {
      "anonymous": false,
      "inputs": [
        {
          "indexed": true,
          "internalType": "bytes32",
          "name": "role",
          "type": "bytes32"
        },
        {
          "indexed": true,
          "internalType": "address",
          "name": "account",
          "type": "address"
        }
      ],
      "name": "RoleRevoked",
      "type": "event"
    },
    {
      "anonymous": false,
      "inputs": [
        {
          "indexed": false,
          "internalType": "address",
          "name": "account",
          "type": "address"
        }
      ],
      "name": "Unpaused",
      "type": "event"
    },
    {
      "anonymous": false,
      "inputs": [
        {
          "indexed": true,
          "internalType": "address",
          "name": "user",
          "type": "address"
        }
      ],
      "name": "UserDocumentsUpdated",
      "type": "event"
    },
    {
      "anonymous": false,
      "inputs": [
        {
          "indexed": true,
          "internalType": "address",
          "name": "user",
          "type": "address"
        },
        {
          "indexed": false,
          "internalType": "string",
          "name": "name",
          "type": "string"
        }
      ],
      "name": "UserRegistered",
      "type": "event"
    },
    {
      "anonymous": false,
      "inputs": [
        {
          "indexed": true,
          "internalType": "address",
          "name": "user",
          "type": "address"
        },
        {
          "indexed": false,
          "internalType": "string",
          "name": "reason",
          "type": "string"
        },
        {
          "indexed": false,
          "internalType": "uint256",
          "name": "rejectionTimestamp",
          "type": "uint256"
        },
        {
          "indexed": false,
          "internalType": "uint256",
          "name": "cooldownEnds",
          "type": "uint256"
        }
      ],
      "name": "UserRejected",
      "type": "event"
    },
    {
      "anonymous": false,
      "inputs": [
        {
          "indexed": true,
          "internalType": "address",
          "name": "user",
          "type": "address"
        },
        {
          "indexed": false,
          "internalType": "bool",
          "name": "isActive",
          "type": "bool"
        }
      ],
      "name": "UserStatusChanged",
      "type": "event"
    },
    {
      "anonymous": false,
      "inputs": [
        {
          "indexed": true,
          "internalType": "address",
          "name": "user",
          "type": "address"
        },
        {
          "indexed": false,
          "internalType": "string",
          "name": "name",
          "type": "string"
        }
      ],
      "name": "UserUpdated",
      "type": "event"
    },
    {
      "anonymous": false,
      "inputs": [
        {
          "indexed": true,
          "internalType": "address",
          "name": "user",
          "type": "address"
        }
      ],
      "name": "UserVerified",
      "type": "event"
    },
    {
      "anonymous": false,
      "inputs": [
        {
          "indexed": true,
          "internalType": "address",
          "name": "user",
          "type": "address"
        },
        {
          "indexed": false,
          "internalType": "string",
          "name": "reason",
          "type": "string"
        },
        {
          "indexed": false,
          "internalType": "uint256",
          "name": "timestamp",
          "type": "uint256"
        }
      ],
      "name": "VerificationDetailsUpdated",
      "type": "event"
    },
    {
      "inputs": [],
      "name": "ADMIN_ROLE",
      "outputs": [
        {
          "internalType": "bytes32",
          "name": "",
          "type": "bytes32"
        }
      ],
      "stateMutability": "view",
      "type": "function"
    },
    {
      "inputs": [],
      "name": "INSPECTOR_ROLE",
      "outputs": [
        {
          "internalType": "bytes32",
          "name": "",
          "type": "bytes32"
        }
      ],
      "stateMutability": "view",
      "type": "function"
    },
    {
      "inputs": [],
      "name": "MAX_USERS_PER_CITY",
      "outputs": [
        {
          "internalType": "uint256",
          "name": "",
          "type": "uint256"
        }
      ],
      "stateMutability": "view",
      "type": "function"
    },
    {
      "inputs": [],
      "name": "USER_ROLE",
      "outputs": [
        {
          "internalType": "bytes32",
          "name": "",
          "type": "bytes32"
        }
      ],
      "stateMutability": "view",
      "type": "function"
    },
    {
      "inputs": [],
      "name": "VERIFIED_USER_ROLE",
      "outputs": [
        {
          "internalType": "bytes32",
          "name": "",
          "type": "bytes32"
        }
      ],
      "stateMutability": "view",
      "type": "function"
    },
    {
      "inputs": [],
      "name": "VERSION",
      "outputs": [
        {
          "internalType": "string",
          "name": "",
          "type": "string"
        }
      ],
      "stateMutability": "view",
      "type": "function"
    },
    {
      "inputs": [
        {
          "internalType": "address",
          "name": "_inspector",
          "type": "address"
        },
        {
          "internalType": "string",
          "name": "_name",
          "type": "string"
        },
        {
          "internalType": "uint256",
          "name": "_age",
          "type": "uint256"
        },
        {
          "internalType": "string",
          "name": "_designation",
          "type": "string"
        }
      ],
      "name": "addInspector",
      "outputs": [],
      "stateMutability": "nonpayable",
      "type": "function"
    },
    {
      "inputs": [
        {
          "internalType": "uint256",
          "name": "",
          "type": "uint256"
        }
      ],
      "name": "allUsers",
      "outputs": [
        {
          "internalType": "address",
          "name": "",
          "type": "address"
        }
      ],
      "stateMutability": "view",
      "type": "function"
    },
    {
      "inputs": [
        {
          "internalType": "address",
          "name": "user",
          "type": "address"
        },
        {
          "internalType": "bytes32",
          "name": "role",
          "type": "bytes32"
        }
      ],
      "name": "assignRole",
      "outputs": [],
      "stateMutability": "nonpayable",
      "type": "function"
    },
    {
      "inputs": [
        {
          "internalType": "address[]",
          "name": "_userAddresses",
          "type": "address[]"
        }
      ],
      "name": "batchVerifyUsers",
      "outputs": [],
      "stateMutability": "nonpayable",
      "type": "function"
    },
    {
      "inputs": [
        {
          "internalType": "bytes32",
          "name": "role",
          "type": "bytes32"
        },
        {
          "internalType": "address",
          "name": "user",
          "type": "address"
        }
      ],
      "name": "checkRole",
      "outputs": [
        {
          "internalType": "bool",
          "name": "",
          "type": "bool"
        }
      ],
      "stateMutability": "view",
      "type": "function"
    },
    {
      "inputs": [],
      "name": "clearRejectedStatus",
      "outputs": [],
      "stateMutability": "nonpayable",
      "type": "function"
    },
    {
      "inputs": [],
      "name": "deactivateUser",
      "outputs": [],
      "stateMutability": "nonpayable",
      "type": "function"
    },
    {
      "inputs": [
        {
          "internalType": "address",
          "name": "",
          "type": "address"
        }
      ],
      "name": "deactivatedUsers",
      "outputs": [
        {
          "internalType": "bool",
          "name": "",
          "type": "bool"
        }
      ],
      "stateMutability": "view",
      "type": "function"
    },
    {
      "inputs": [
        {
          "internalType": "address",
          "name": "user",
          "type": "address"
        },
        {
          "internalType": "string",
          "name": "reason",
          "type": "string"
        }
      ],
      "name": "debugRejection",
      "outputs": [
        {
          "components": [
            {
              "internalType": "bool",
              "name": "hasRole",
              "type": "bool"
            },
            {
              "internalType": "bool",
              "name": "isRegistered",
              "type": "bool"
            },
            {
              "internalType": "bool",
              "name": "alreadyRejected",
              "type": "bool"
            },
            {
              "internalType": "uint256",
              "name": "reasonLength",
              "type": "uint256"
            }
          ],
          "internalType": "struct UserRegistry.RejectionValidation",
          "name": "",
          "type": "tuple"
        }
      ],
      "stateMutability": "view",
      "type": "function"
    },
    {
      "inputs": [],
      "name": "emergencyWithdraw",
      "outputs": [],
      "stateMutability": "nonpayable",
      "type": "function"
    },
    {
      "inputs": [],
      "name": "getAllUsers",
      "outputs": [
        {
          "components": [
            {
              "internalType": "address",
              "name": "id",
              "type": "address"
            },
            {
              "internalType": "string",
              "name": "name",
              "type": "string"
            },
            {
              "internalType": "uint256",
              "name": "age",
              "type": "uint256"
            },
            {
              "internalType": "string",
              "name": "city",
              "type": "string"
            },
            {
              "internalType": "string",
              "name": "aadharNumber",
              "type": "string"
            },
            {
              "internalType": "string",
              "name": "panNumber",
              "type": "string"
            },
            {
              "internalType": "bytes32",
              "name": "documentHash",
              "type": "bytes32"
            },
            {
              "internalType": "string",
              "name": "email",
              "type": "string"
            },
            {
              "internalType": "bool",
              "name": "isVerified",
              "type": "bool"
            }
          ],
          "internalType": "struct UserRegistry.User[]",
          "name": "",
          "type": "tuple[]"
        }
      ],
      "stateMutability": "view",
      "type": "function"
    },
    {
      "inputs": [
        {
          "internalType": "address",
          "name": "_inspector",
          "type": "address"
        }
      ],
      "name": "getInspector",
      "outputs": [
        {
          "components": [
            {
              "internalType": "uint256",
              "name": "id",
              "type": "uint256"
            },
            {
              "internalType": "string",
              "name": "name",
              "type": "string"
            },
            {
              "internalType": "uint256",
              "name": "age",
              "type": "uint256"
            },
            {
              "internalType": "string",
              "name": "designation",
              "type": "string"
            }
          ],
          "internalType": "struct BaseRegistry.LandInspector",
          "name": "",
          "type": "tuple"
        }
      ],
      "stateMutability": "view",
      "type": "function"
    },
    {
      "inputs": [],
      "name": "getPendingUsers",
      "outputs": [
        {
          "components": [
            {
              "internalType": "address",
              "name": "id",
              "type": "address"
            },
            {
              "internalType": "string",
              "name": "name",
              "type": "string"
            },
            {
              "internalType": "uint256",
              "name": "age",
              "type": "uint256"
            },
            {
              "internalType": "string",
              "name": "city",
              "type": "string"
            },
            {
              "internalType": "string",
              "name": "aadharNumber",
              "type": "string"
            },
            {
              "internalType": "string",
              "name": "panNumber",
              "type": "string"
            },
            {
              "internalType": "bytes32",
              "name": "documentHash",
              "type": "bytes32"
            },
            {
              "internalType": "string",
              "name": "email",
              "type": "string"
            },
            {
              "internalType": "bool",
              "name": "isVerified",
              "type": "bool"
            }
          ],
          "internalType": "struct UserRegistry.User[]",
          "name": "",
          "type": "tuple[]"
        }
      ],
      "stateMutability": "view",
      "type": "function"
    },
    {
      "inputs": [
        {
          "internalType": "address",
          "name": "user",
          "type": "address"
        }
      ],
      "name": "getRejectionCooldown",
      "outputs": [
        {
          "internalType": "uint256",
          "name": "",
          "type": "uint256"
        }
      ],
      "stateMutability": "view",
      "type": "function"
    },
    {
      "inputs": [
        {
          "internalType": "address",
          "name": "user",
          "type": "address"
        }
      ],
      "name": "getUserDocuments",
      "outputs": [
        {
          "internalType": "string",
          "name": "",
          "type": "string"
        },
        {
          "internalType": "string",
          "name": "",
          "type": "string"
        },
        {
          "internalType": "bytes32",
          "name": "",
          "type": "bytes32"
        }
      ],
      "stateMutability": "view",
      "type": "function"
    },
    {
      "inputs": [
        {
          "internalType": "string",
          "name": "_city",
          "type": "string"
        },
        {
          "internalType": "uint256",
          "name": "offset",
          "type": "uint256"
        },
        {
          "internalType": "uint256",
          "name": "limit",
          "type": "uint256"
        }
      ],
      "name": "getUsersByCity",
      "outputs": [
        {
          "internalType": "address[]",
          "name": "",
          "type": "address[]"
        }
      ],
      "stateMutability": "view",
      "type": "function"
    },
    {
      "inputs": [
        {
          "internalType": "address",
          "name": "_user",
          "type": "address"
        }
      ],
      "name": "getVerificationStatus",
      "outputs": [
        {
          "components": [
            {
              "internalType": "bool",
              "name": "isRegistered",
              "type": "bool"
            },
            {
              "internalType": "bool",
              "name": "isVerified",
              "type": "bool"
            },
            {
              "internalType": "uint256",
              "name": "verificationTimestamp",
              "type": "uint256"
            },
            {
              "internalType": "address",
              "name": "verifiedBy",
              "type": "address"
            },
            {
              "internalType": "string",
              "name": "remarks",
              "type": "string"
            }
          ],
          "internalType": "struct IVerificationDetails.VerificationDetails",
          "name": "",
          "type": "tuple"
        }
      ],
      "stateMutability": "view",
      "type": "function"
    },
    {
      "inputs": [],
      "name": "getVerifiedUsers",
      "outputs": [
        {
          "components": [
            {
              "internalType": "address",
              "name": "id",
              "type": "address"
            },
            {
              "internalType": "string",
              "name": "name",
              "type": "string"
            },
            {
              "internalType": "uint256",
              "name": "age",
              "type": "uint256"
            },
            {
              "internalType": "string",
              "name": "city",
              "type": "string"
            },
            {
              "internalType": "string",
              "name": "aadharNumber",
              "type": "string"
            },
            {
              "internalType": "string",
              "name": "panNumber",
              "type": "string"
            },
            {
              "internalType": "bytes32",
              "name": "documentHash",
              "type": "bytes32"
            },
            {
              "internalType": "string",
              "name": "email",
              "type": "string"
            },
            {
              "internalType": "bool",
              "name": "isVerified",
              "type": "bool"
            }
          ],
          "internalType": "struct UserRegistry.User[]",
          "name": "",
          "type": "tuple[]"
        }
      ],
      "stateMutability": "view",
      "type": "function"
    },
    {
      "inputs": [
        {
          "internalType": "bytes32",
          "name": "role",
          "type": "bytes32"
        },
        {
          "internalType": "address",
          "name": "account",
          "type": "address"
        }
      ],
      "name": "hasRole",
      "outputs": [
        {
          "internalType": "bool",
          "name": "",
          "type": "bool"
        }
      ],
      "stateMutability": "view",
      "type": "function"
    },
    {
      "inputs": [
        {
          "internalType": "address",
          "name": "",
          "type": "address"
        }
      ],
      "name": "inspectors",
      "outputs": [
        {
          "internalType": "uint256",
          "name": "id",
          "type": "uint256"
        },
        {
          "internalType": "string",
          "name": "name",
          "type": "string"
        },
        {
          "internalType": "uint256",
          "name": "age",
          "type": "uint256"
        },
        {
          "internalType": "string",
          "name": "designation",
          "type": "string"
        }
      ],
      "stateMutability": "view",
      "type": "function"
    },
    {
      "inputs": [
        {
          "internalType": "string",
          "name": "aadhar",
          "type": "string"
        },
        {
          "internalType": "string",
          "name": "pan",
          "type": "string"
        }
      ],
      "name": "isDocumentAvailable",
      "outputs": [
        {
          "internalType": "bool",
          "name": "aadharAvailable",
          "type": "bool"
        },
        {
          "internalType": "bool",
          "name": "panAvailable",
          "type": "bool"
        }
      ],
      "stateMutability": "view",
      "type": "function"
    },
    {
      "inputs": [
        {
          "internalType": "address",
          "name": "user",
          "type": "address"
        }
      ],
      "name": "isUserRegistered",
      "outputs": [
        {
          "internalType": "bool",
          "name": "",
          "type": "bool"
        }
      ],
      "stateMutability": "view",
      "type": "function"
    },
    {
      "inputs": [
        {
          "internalType": "address",
          "name": "user",
          "type": "address"
        }
      ],
      "name": "isUserRejected",
      "outputs": [
        {
          "internalType": "bool",
          "name": "",
          "type": "bool"
        }
      ],
      "stateMutability": "view",
      "type": "function"
    },
    {
      "inputs": [],
      "name": "owner",
      "outputs": [
        {
          "internalType": "address",
          "name": "",
          "type": "address"
        }
      ],
      "stateMutability": "view",
      "type": "function"
    },
    {
      "inputs": [],
      "name": "pause",
      "outputs": [],
      "stateMutability": "nonpayable",
      "type": "function"
    },
    {
      "inputs": [],
      "name": "paused",
      "outputs": [
        {
          "internalType": "bool",
          "name": "",
          "type": "bool"
        }
      ],
      "stateMutability": "view",
      "type": "function"
    },
    {
      "inputs": [],
      "name": "reactivateUser",
      "outputs": [],
      "stateMutability": "nonpayable",
      "type": "function"
    },
    {
      "inputs": [
        {
          "internalType": "string",
          "name": "_name",
          "type": "string"
        },
        {
          "internalType": "uint256",
          "name": "_age",
          "type": "uint256"
        },
        {
          "internalType": "string",
          "name": "_city",
          "type": "string"
        },
        {
          "internalType": "string",
          "name": "_aadharNumber",
          "type": "string"
        },
        {
          "internalType": "string",
          "name": "_panNumber",
          "type": "string"
        },
        {
          "internalType": "bytes32",
          "name": "_documentHash",
          "type": "bytes32"
        },
        {
          "internalType": "string",
          "name": "_email",
          "type": "string"
        }
      ],
      "name": "registerUser",
      "outputs": [],
      "stateMutability": "nonpayable",
      "type": "function"
    },
    {
      "inputs": [
        {
          "internalType": "address",
          "name": "user",
          "type": "address"
        },
        {
          "internalType": "string",
          "name": "reason",
          "type": "string"
        }
      ],
      "name": "rejectUser",
      "outputs": [],
      "stateMutability": "nonpayable",
      "type": "function"
    },
    {
      "inputs": [
        {
          "internalType": "address",
          "name": "user",
          "type": "address"
        }
      ],
      "name": "rejectionTimestamp",
      "outputs": [
        {
          "internalType": "uint256",
          "name": "",
          "type": "uint256"
        }
      ],
      "stateMutability": "view",
      "type": "function"
    },
    {
      "inputs": [
        {
          "internalType": "address",
          "name": "_inspector",
          "type": "address"
        }
      ],
      "name": "removeInspector",
      "outputs": [],
      "stateMutability": "nonpayable",
      "type": "function"
    },
    {
      "inputs": [
        {
          "internalType": "address",
          "name": "user",
          "type": "address"
        },
        {
          "internalType": "bytes32",
          "name": "role",
          "type": "bytes32"
        }
      ],
      "name": "revokeRole",
      "outputs": [],
      "stateMutability": "nonpayable",
      "type": "function"
    },
    {
      "inputs": [
        {
          "internalType": "address",
          "name": "newOwner",
          "type": "address"
        }
      ],
      "name": "transferOwnership",
      "outputs": [],
      "stateMutability": "nonpayable",
      "type": "function"
    },
    {
      "inputs": [],
      "name": "unpause",
      "outputs": [],
      "stateMutability": "nonpayable",
      "type": "function"
    },
    {
      "inputs": [
        {
          "internalType": "string",
          "name": "_name",
          "type": "string"
        },
        {
          "internalType": "uint256",
          "name": "_age",
          "type": "uint256"
        },
        {
          "internalType": "string",
          "name": "_city",
          "type": "string"
        },
        {
          "internalType": "string",
          "name": "_email",
          "type": "string"
        }
      ],
      "name": "updateUserDetails",
      "outputs": [],
      "stateMutability": "nonpayable",
      "type": "function"
    },
    {
      "inputs": [
        {
          "internalType": "string",
          "name": "_aadharNumber",
          "type": "string"
        },
        {
          "internalType": "string",
          "name": "_panNumber",
          "type": "string"
        }
      ],
      "name": "updateUserDocuments",
      "outputs": [],
      "stateMutability": "nonpayable",
      "type": "function"
    },
    {
      "inputs": [
        {
          "internalType": "address",
          "name": "",
          "type": "address"
        }
      ],
      "name": "users",
      "outputs": [
        {
          "internalType": "address",
          "name": "id",
          "type": "address"
        },
        {
          "internalType": "string",
          "name": "name",
          "type": "string"
        },
        {
          "internalType": "uint256",
          "name": "age",
          "type": "uint256"
        },
        {
          "internalType": "string",
          "name": "city",
          "type": "string"
        },
        {
          "internalType": "string",
          "name": "aadharNumber",
          "type": "string"
        },
        {
          "internalType": "string",
          "name": "panNumber",
          "type": "string"
        },
        {
          "internalType": "bytes32",
          "name": "documentHash",
          "type": "bytes32"
        },
        {
          "internalType": "string",
          "name": "email",
          "type": "string"
        },
        {
          "internalType": "bool",
          "name": "isVerified",
          "type": "bool"
        }
      ],
      "stateMutability": "view",
      "type": "function"
    },
    {
      "inputs": [
        {
          "internalType": "address",
          "name": "_user",
          "type": "address"
        }
      ],
      "name": "verifyUser",
      "outputs": [],
      "stateMutability": "nonpayable",
      "type": "function"
    }
  ],
  "bytecode": "0x608060405234801561001057600080fd5b50600080546001600160a01b0319163390811782558082527f50efbde2d46c37e9785f1791697f77e94bb7b701e19f1930a668820722d376946020526040808320805460ff191660011790555190917fa49807205ce4d355092ef5a8a18f56e8913cf4a201fbe287825b095693c21775917f8122312829fb608b8d31c14e44cba6826748abddc350818605bfc69eb7ff38479190a36159af80620000b56000396000f3fe608060405234801561001057600080fd5b50600436106102745760003560e01c80638456cb5911610151578063d4434150116100c3578063e8f7dfcf11610087578063e8f7dfcf14610624578063f2fde38b14610644578063f6a413cc14610657578063fa1e178e1461065f578063fe09b5ec1461068b578063ffa1ad741461069357600080fd5b8063d4434150146105bc578063d5dd1657146105cf578063db2e21bc146105f2578063e2842d79146105fa578063e3a3c5221461060f57600080fd5b80638e67e7c0116101155780638e67e7c01461053157806390a4b1621461053957806391d148541461055b578063a2bdedf41461056e578063a87430ba14610581578063afd722db146105a957600080fd5b80638456cb59146104af578063867e54d0146104b757806387bebf7b146104e05780638903effe146104f35780638da5cb5b1461050657600080fd5b80634b3b261b116101ea5780635c975abb116101ae5780635c975abb146103f45780636103681a146104085780636931e3921461042857806375b238fc1461043b5780637abf6f84146104505780637c70e7911461049c57600080fd5b80634b3b261b1461038e5780634d813120146103ae5780634e5a7f8d146103c157806355ea2000146103c957806358d9396b146103d157600080fd5b80631d9486de1161023c5780631d9486de1461031a5780631df8c6d61461032d578063208dd1ff1461034057806320d5f27a146103535780633a6992e01461035c5780633f4ba83a1461038657600080fd5b80630b73bb431461027957806312d9a6ad1461028e57806313119161146102b6578063163f7522146102d95780631893eae814610305575b600080fd5b61028c610287366004614c06565b6106c4565b005b6102a161029c366004614cc5565b610aaa565b60405190151581526020015b60405180910390f35b6102cb60008051602061593a83398151915281565b6040519081526020016102ad565b6102a16102e7366004614cf1565b6001600160a01b031660009081526006602052604090205460ff1690565b6102cb6000805160206158fa83398151915281565b61028c610328366004614d0c565b610ad7565b6102cb61033b366004614cf1565b610b58565b61028c61034e366004614d0c565b610bca565b6102cb6103e881565b61036f61036a366004614dd8565b610cac565b6040805192151583529015156020830152016102ad565b61028c610d03565b6103a161039c366004614e3b565b610de5565b6040516102ad9190614e88565b61028c6103bc366004614cf1565b610f43565b61028c611109565b61028c611181565b6102a16103df366004614cf1565b60056020526000908152604090205460ff1681565b6000546102a190600160a01b900460ff1681565b61041b610416366004614cf1565b61126c565b6040516102ad9190614f25565b61028c610436366004614f7c565b6113c8565b6102cb60008051602061595a83398151915281565b61046361045e366004614ff0565b6114b8565b6040516102ad91908151151581526020808301511515908201526040808301511515908201526060918201519181019190915260800190565b61028c6104aa366004614cf1565b611550565b61028c611716565b6102cb6104c5366004614cf1565b6001600160a01b03166000908152600b602052604090205490565b61028c6104ee366004614dd8565b6117ff565b61028c610501366004615033565b611b48565b600054610519906001600160a01b031681565b6040516001600160a01b0390911681526020016102ad565b61028c611e46565b61054c610547366004614cf1565b611f21565b6040516102ad939291906150b0565b6102a1610569366004614cc5565b612081565b61051961057c3660046150e6565b61208d565b61059461058f366004614cf1565b6120b7565b6040516102ad999897969594939291906150ff565b61028c6105b7366004614ff0565b6123b3565b61028c6105ca36600461519a565b612732565b6105e26105dd366004614cf1565b613188565b6040516102ad949392919061527e565b61028c6132c1565b6106026133c3565b6040516102ad91906152ba565b6102cb6000805160206158ba83398151915281565b610637610632366004614cf1565b6137bb565b6040516102ad91906153d3565b61028c610652366004614cf1565b613921565b6106026139cc565b6102a161066d366004614cf1565b6001600160a01b03166000908152600a602052604090205460ff1690565b610602613e66565b6106b7604051806040016040528060058152602001640312e302e360dc1b81525081565b6040516102ad9190615429565b3360009081526005602052604090205460ff161561071f5760405162461bcd60e51b8152602060048201526013602482015272155cd95c881a5cc819195858dd1a5d985d1959606a1b60448201526064015b60405180910390fd5b8460128110156107645760405162461bcd60e51b815260206004820152601060248201526f135d5cdd08189948185b8818591d5b1d60821b6044820152606401610716565b87878080601f0160208091040260200160405190810160405280939291908181526020018383808284376000920191909152505082516103e89250151590506107bf5760405162461bcd60e51b81526004016107169061543c565b80825111156107e05760405162461bcd60e51b815260040161071690615473565b86868080601f0160208091040260200160405190810160405280939291908181526020018383808284376000920191909152505082516103e892501515905061083b5760405162461bcd60e51b81526004016107169061543c565b808251111561085c5760405162461bcd60e51b815260040161071690615473565b86868080601f0160208091040260200160405190810160405280939291908181526020018383808284376000920191909152505082516103e89250151590506108b75760405162461bcd60e51b81526004016107169061543c565b80825111156108d85760405162461bcd60e51b815260040161071690615473565b33600090815260046020526040902080546001600160a01b031661090e5760405162461bcd60e51b81526004016107169061549c565b61094d8a8a8080601f0160208091040260200160405190810160405280939291908181526020018383808284376000920191909152506142d892505050565b6109905760405162461bcd60e51b8152602060048201526014602482015273125b9d985b1a5908195b585a5b08199bdc9b585d60621b6044820152606401610716565b6109cf8c8c8080601f0160208091040260200160405190810160405280939291908181526020018383808284376000920191909152506143d192505050565b610a998f8f8080601f016020809104026020016040519081016040528093929190818152602001838380828437600081840152601f19601f820116905080830192505050505050508e8e8e8080601f016020809104026020016040519081016040528093929190818152602001838380828437600081840152601f19601f820116905080830192505050505050508d8d8080601f01602080910402602001604051908101604052809392919081815260200183838082843760009201919091525061449492505050565b505050505050505050505050505050565b60008281526001602090815260408083206001600160a01b038516845290915290205460ff165b92915050565b33600090815260008051602061591a833981519152602052604090205460008051602061595a8339815191529060ff16610b235760405162461bcd60e51b8152600401610716906154c9565b6001600160a01b038316610b495760405162461bcd60e51b81526004016107169061550b565b610b538284614510565b505050565b6001600160a01b0381166000908152600a602052604081205460ff16610b8057506000919050565b6001600160a01b0382166000908152600b6020526040812054610ba790620151809061554a565b9050804210610bb95750600092915050565b610bc3428261555d565b9392505050565b33600090815260008051602061591a833981519152602052604090205460008051602061595a8339815191529060ff16610c165760405162461bcd60e51b8152600401610716906154c9565b6001600160a01b038316610c3c5760405162461bcd60e51b81526004016107169061550b565b60008281526001602090815260408083206001600160a01b038716845290915290205460ff16610ca25760405162461bcd60e51b8152602060048201526011602482015270149bdb19481b9bdd08185cdcda59db9959607a1b6044820152606401610716565b610b538284614614565b600080600e84604051610cbf9190615570565b9081526040519081900360200181205460ff161590600f90610ce2908690615570565b9081526040519081900360200190205490925060ff161590505b9250929050565b33600090815260008051602061591a833981519152602052604090205460008051602061595a8339815191529060ff16610d4f5760405162461bcd60e51b8152600401610716906154c9565b600054600160a01b900460ff16610da15760405162461bcd60e51b815260206004820152601660248201527510dbdb9d1c9858dd081a5cc81b9bdd081c185d5cd95960521b6044820152606401610716565b6000805460ff60a01b191690556040513381527f5db9ee0a495bf2e6ff9c91a7834c1ba4fdd244a5e8aa4e537bd38aeae4b073aa906020015b60405180910390a150565b60606000600785604051610df99190615570565b9081526040519081900360200190208054909150808510610e4d5760405162461bcd60e51b815260206004820152600e60248201526d125b9d985b1a59081bd9999cd95d60921b6044820152606401610716565b600081610e5a868861554a565b11610e655784610e6f565b610e6f868361555d565b90506000816001600160401b03811115610e8b57610e8b614d36565b604051908082528060200260200182016040528015610eb4578160200160208202803683370190505b50905060005b82811015610f375784610ecd828a61554a565b81548110610edd57610edd61558c565b9060005260206000200160009054906101000a90046001600160a01b0316828281518110610f0d57610f0d61558c565b6001600160a01b039092166020928302919091019091015280610f2f816155a2565b915050610eba565b50979650505050505050565b3360009081527f220968fa85a917b1a73975ccfbd49c38a3bb4b1456624ba17c38c7fc697ab44660205260409020546000805160206158ba8339815191529060ff16610fa15760405162461bcd60e51b8152600401610716906154c9565b6001600160a01b038216610fc75760405162461bcd60e51b81526004016107169061550b565b6001600160a01b03821660009081526006602052604090205460ff16610fff5760405162461bcd60e51b81526004016107169061549c565b6001600160a01b03821660009081526004602052604090206008015460ff16611105576001600160a01b0382166000818152600460209081526040808320600801805460ff191660019081179091556006808452828520805461ff00191661010017815542928101929092556002820180546001600160a01b031916331790558251808501909352848352949093529290526003019061109f908261563d565b506110b860008051602061593a83398151915283614510565b6110d06000805160206158fa83398151915283614510565b6040516001600160a01b038316907fa6625d2d26e786e2f473111bea4b2fcdbbf1863d883a2359989ce3a103d2972a90600090a25b5050565b336000908152600a602052604090205460ff166111685760405162461bcd60e51b815260206004820152601c60248201527f4e6f2072656a656374696f6e2073746174757320746f20636c656172000000006044820152606401610716565b336000908152600a60205260409020805460ff19169055565b3360009081526000805160206158da833981519152602052604090205460ff166111bd5760405162461bcd60e51b81526004016107169061549c565b3360009081526005602052604090205460ff161561121d5760405162461bcd60e51b815260206004820152601860248201527f5573657220616c726561647920646561637469766174656400000000000000006044820152606401610716565b336000818152600560209081526040808320805460ff19166001179055519182527fac6a98145b54adc0bf4a88140a58aa33ca5ddf35ac39fc3998947220aa1b230d91015b60405180910390a2565b6112ab6040518060a001604052806000151581526020016000151581526020016000815260200160006001600160a01b03168152602001606081525090565b6001600160a01b0382166112d15760405162461bcd60e51b81526004016107169061550b565b6001600160a01b03808316600090815260066020908152604091829020825160a081018452815460ff80821615158352610100909104161515928101929092526001810154928201929092526002820154909216606083015260038101805460808401919061133f906155bb565b80601f016020809104026020016040519081016040528092919081815260200182805461136b906155bb565b80156113b85780601f1061138d576101008083540402835291602001916113b8565b820191906000526020600020905b81548152906001019060200180831161139b57829003601f168201915b5050505050815250509050919050565b3360009081527f220968fa85a917b1a73975ccfbd49c38a3bb4b1456624ba17c38c7fc697ab44660205260409020546000805160206158ba8339815191529060ff166114265760405162461bcd60e51b8152600401610716906154c9565b60005b828110156114b257600460008585848181106114475761144761558c565b905060200201602081019061145c9190614cf1565b6001600160a01b0316815260208101919091526040016000206008015460ff166114aa576114aa8484838181106114955761149561558c565b90506020020160208101906103bc9190614cf1565b600101611429565b50505050565b60408051608081018252600080825260208201819052918101829052606081019190915260405180608001604052806114ff6000805160206158ba83398151915233612081565b151581526001600160a01b03851660008181526006602090815260408083205460ff908116151583870152938352600a90915290819020549091161515908201528351606090910152905092915050565b6000546001600160a01b0316331461157a5760405162461bcd60e51b8152600401610716906156fc565b6001600160a01b0381166115cc5760405162461bcd60e51b8152602060048201526019602482015278496e76616c696420696e73706563746f72206164647265737360381b6044820152606401610716565b6001600160a01b038116600090815260026020526040812054900361162e5760405162461bcd60e51b8152602060048201526018602482015277125b9cdc1958dd1bdc88191bd95cc81b9bdd08195e1a5cdd60421b6044820152606401610716565b6001600160a01b03811660009081526002602052604081208054828255916116596001830182614b15565b60028201600090556003820160006116719190614b15565b505061168b6000805160206158ba83398151915283614614565b816001600160a01b03167ff4d26249e2d6402f768ccb0c52cb35f2df31dae16a7ba6518812c1f8db9c034e826040516116c691815260200190565b60405180910390a26040516001600160a01b038316906000805160206158ba833981519152907f155aaafb6329a2098580462df33ec4b7441b19729b9601c5fc17ae1cf99a8a5290600090a35050565b33600090815260008051602061591a833981519152602052604090205460008051602061595a8339815191529060ff166117625760405162461bcd60e51b8152600401610716906154c9565b600054600160a01b900460ff16156117bc5760405162461bcd60e51b815260206004820152601a60248201527f436f6e747261637420697320616c7265616479207061757365640000000000006044820152606401610716565b6000805460ff60a01b1916600160a01b1790556040513381527f62e78cea01bee320cd4e420270b5ea74000d11b0c9f74754ebdbfc544b05a25890602001610dda565b3360009081526005602052604090205460ff16156118555760405162461bcd60e51b8152602060048201526013602482015272155cd95c881a5cc819195858dd1a5d985d1959606a1b6044820152606401610716565b3360009081526000805160206158da833981519152602052604090205460008051602061593a8339815191529060ff166118a15760405162461bcd60e51b8152600401610716906154c9565b6118aa83614699565b6118ef5760405163265c279560e11b8152602060048201526015602482015274125b9d985b1a59081058591a185c88199bdc9b585d605a1b6044820152606401610716565b6118f882614728565b61193a57604051637e7cb63d60e01b8152602060048201526012602482015271125b9d985b1a590814105388199bdc9b585d60721b6044820152606401610716565b33600090815260046020526040902080546001600160a01b0316611971576040516319c29a3360e21b815260040160405180910390fd5b6000816004018054611982906155bb565b905011156119c0576000600e8260040160405161199f9190615723565b908152604051908190036020019020805491151560ff199092169190911790555b60008160050180546119d1906155bb565b90501115611a0f576000600f826005016040516119ee9190615723565b908152604051908190036020019020805491151560ff199092169190911790555b600e84604051611a1f9190615570565b9081526040519081900360200190205460ff1615611a52578360405163d0488a0960e01b81526004016107169190615429565b600f83604051611a629190615570565b9081526040519081900360200190205460ff1615611a9557826040516334d43cbb60e01b81526004016107169190615429565b6001600e85604051611aa79190615570565b908152604051908190036020018120805492151560ff1990931692909217909155600190600f90611ad9908690615570565b908152604051908190036020019020805491151560ff1990921691909117905560048101611b07858261563d565b5060058101611b16848261563d565b5060405133907f250061cce40634b8020ce01948b560033952609ef7462d78b692b43df4ff507290600090a250505050565b6000546001600160a01b03163314611b725760405162461bcd60e51b8152600401610716906156fc565b6001600160a01b038416611bc45760405162461bcd60e51b8152602060048201526019602482015278496e76616c696420696e73706563746f72206164647265737360381b6044820152606401610716565b6012821015611c155760405162461bcd60e51b815260206004820152601a60248201527f496e73706563746f72206d75737420626520616e206164756c740000000000006044820152606401610716565b6000835111611c5d5760405162461bcd60e51b81526020600482015260146024820152734e616d652063616e6e6f7420626520656d70747960601b6044820152606401610716565b6000815111611cae5760405162461bcd60e51b815260206004820152601b60248201527f44657369676e6174696f6e2063616e6e6f7420626520656d70747900000000006044820152606401610716565b6001600160a01b03841660009081526002602052604090205415611d145760405162461bcd60e51b815260206004820152601860248201527f496e73706563746f7220616c72656164792065786973747300000000000000006044820152606401610716565b60038054906000611d24836155a2565b90915550506040805160808101825260035481526020808201868152828401869052606083018590526001600160a01b038816600090815260029092529290208151815591519091906001820190611d7c908261563d565b506040820151600282015560608201516003820190611d9b908261563d565b50905050611db76000805160206158ba83398151915285614510565b836001600160a01b03167f99ec83913a9d9b79baf37f57157bc50784ba372a64a793df8c821767a2e1bb6b600354604051611df491815260200190565b60405180910390a26040516001600160a01b038516906000805160206158ba833981519152907f8122312829fb608b8d31c14e44cba6826748abddc350818605bfc69eb7ff384790600090a350505050565b3360009081526000805160206158da833981519152602052604090205460ff16611e825760405162461bcd60e51b81526004016107169061549c565b3360009081526005602052604090205460ff16611ed85760405162461bcd60e51b8152602060048201526014602482015273155cd95c881b9bdd0819195858dd1a5d985d195960621b6044820152606401610716565b33600081815260056020908152604091829020805460ff191690559051600181527fac6a98145b54adc0bf4a88140a58aa33ca5ddf35ac39fc3998947220aa1b230d9101611262565b60608060008060046000866001600160a01b03166001600160a01b03168152602001908152602001600020905080600401816005018260060154828054611f67906155bb565b80601f0160208091040260200160405190810160405280929190818152602001828054611f93906155bb565b8015611fe05780601f10611fb557610100808354040283529160200191611fe0565b820191906000526020600020905b815481529060010190602001808311611fc357829003601f168201915b50505050509250818054611ff3906155bb565b80601f016020809104026020016040519081016040528092919081815260200182805461201f906155bb565b801561206c5780601f106120415761010080835404028352916020019161206c565b820191906000526020600020905b81548152906001019060200180831161204f57829003601f168201915b50505050509150935093509350509193909250565b6000610bc38383610aaa565b600c818154811061209d57600080fd5b6000918252602090912001546001600160a01b0316905081565b600460205260009081526040902080546001820180546001600160a01b0390921692916120e3906155bb565b80601f016020809104026020016040519081016040528092919081815260200182805461210f906155bb565b801561215c5780601f106121315761010080835404028352916020019161215c565b820191906000526020600020905b81548152906001019060200180831161213f57829003601f168201915b505050505090806002015490806003018054612177906155bb565b80601f01602080910402602001604051908101604052809291908181526020018280546121a3906155bb565b80156121f05780601f106121c5576101008083540402835291602001916121f0565b820191906000526020600020905b8154815290600101906020018083116121d357829003601f168201915b505050505090806004018054612205906155bb565b80601f0160208091040260200160405190810160405280929190818152602001828054612231906155bb565b801561227e5780601f106122535761010080835404028352916020019161227e565b820191906000526020600020905b81548152906001019060200180831161226157829003601f168201915b505050505090806005018054612293906155bb565b80601f01602080910402602001604051908101604052809291908181526020018280546122bf906155bb565b801561230c5780601f106122e15761010080835404028352916020019161230c565b820191906000526020600020905b8154815290600101906020018083116122ef57829003601f168201915b505050505090806006015490806007018054612327906155bb565b80601f0160208091040260200160405190810160405280929190818152602001828054612353906155bb565b80156123a05780601f10612375576101008083540402835291602001916123a0565b820191906000526020600020905b81548152906001019060200180831161238357829003601f168201915b5050506008909301549192505060ff1689565b3360009081527f220968fa85a917b1a73975ccfbd49c38a3bb4b1456624ba17c38c7fc697ab44660205260409020546000805160206158ba8339815191529060ff166124115760405162461bcd60e51b8152600401610716906154c9565b6001600160a01b03831661245e5760405162461bcd60e51b8152602060048201526014602482015273496e76616c69642075736572206164647265737360601b6044820152606401610716565b6000825111801561247257506103e8825111155b6124b65760405162461bcd60e51b8152602060048201526015602482015274092dcecc2d8d2c840e4cac2e6dedc40d8cadccee8d605b1b6044820152606401610716565b6001600160a01b03831660009081526006602052604090205460ff166124ee5760405162461bcd60e51b81526004016107169061549c565b6001600160a01b0383166000908152600a602052604090205460ff161561254f5760405162461bcd60e51b8152602060048201526015602482015274155cd95c88185b1c9958591e481c995a9958dd1959605a1b6044820152606401610716565b826001600160a01b03167f35e2b5f383a2c5fb37a9e0fd53a179652182f19a310a5b39a1bba86e9129e4cc836125936000805160206158ba83398151915233612081565b6001600160a01b0387166000908152600660205260409081902054875191516125c494939260ff9092169190615799565b60405180910390a26001600160a01b0383166000818152600a60209081526040808320805460ff19166001179055600b8252808320429081905560069092529182902091519092907fc0e8a3be7415ab9251f141e214e3038a39709c3c1ef013e63c7ece840d1771849061263b90879086906157c8565b60405180910390a260038101612651858261563d565b50805461ffff19168155600181018290556040516001600160a01b038616907fc0e8a3be7415ab9251f141e214e3038a39709c3c1ef013e63c7ece840d177184906126a290600385019086906157ea565b60405180910390a26126c260008051602061593a83398151915286614614565b6126da6000805160206158fa83398151915286614614565b6001600160a01b0385167f6043549d9be5e9a6d82f636f9eca046b7fe6c0c4953be3dc09b8058cb24886318584612714620151808261554a565b6040516127239392919061587e565b60405180910390a25050505050565b600e846040516127429190615570565b9081526040519081900360200190205460ff1615612775578360405163d0488a0960e01b81526004016107169190615429565b600f836040516127859190615570565b9081526040519081900360200190205460ff16156127b857826040516334d43cbb60e01b81526004016107169190615429565b3360009081526006602052604090205460ff16156128185760405162461bcd60e51b815260206004820152601760248201527f5573657220616c726561647920726567697374657265640000000000000000006044820152606401610716565b336000908152600460205260409020546001600160a01b0316156128745760405162461bcd60e51b81526020600482015260136024820152725573657220616c72656164792065786973747360681b6044820152606401610716565b6000875111801561288857506103e8875111155b6128ca5760405162461bcd60e51b8152602060048201526013602482015272092dcecc2d8d2c840dcc2daca40d8cadccee8d606b1b6044820152606401610716565b601286101580156128dc575060788611155b6129165760405162461bcd60e51b815260206004820152600b60248201526a496e76616c69642061676560a81b6044820152606401610716565b6000855111801561292a57506103e8855111155b61296c5760405162461bcd60e51b8152602060048201526013602482015272092dcecc2d8d2c840c6d2e8f240d8cadccee8d606b1b6044820152606401610716565b816129b15760405162461bcd60e51b8152602060048201526015602482015274092dcecc2d8d2c840c8dec6eadacadce840d0c2e6d605b1b6044820152606401610716565b600081511180156129c557506103e8815111155b612a085760405162461bcd60e51b8152602060048201526014602482015273092dcecc2d8d2c840cadac2d2d840d8cadccee8d60631b6044820152606401610716565b612a1184614699565b612a305783604051636a31fc8b60e01b81526004016107169190615429565b612a3983614728565b612a58578260405163309863a360e11b81526004016107169190615429565b600e84604051612a689190615570565b9081526040519081900360200190205460ff1615612a9b578360405163d0488a0960e01b81526004016107169190615429565b600f83604051612aab9190615570565b9081526040519081900360200190205460ff1615612ade57826040516334d43cbb60e01b81526004016107169190615429565b336000908152600a602052604090205460ff1615612ba857336000908152600b6020526040902054612b1490620151809061554a565b421015612b6e5760405162461bcd60e51b815260206004820152602260248201527f4d757374207761697420323420686f7572732061667465722072656a6563746960448201526137b760f11b6064820152608401610716565b336000908152600a60209081526040808320805460ff19169055600b825280832083905560069091528120612ba891600390910190614b15565b3360009081526006602052604090205460ff16158015612bde5750336000908152600460205260409020546001600160a01b0316155b612c365760405162461bcd60e51b8152602060048201526024808201527f5573657220616c726561647920657869737473206f7220697320726567697374604482015263195c995960e21b6064820152608401610716565b612c3f84614699565b612c845760405163265c279560e11b8152602060048201526015602482015274125b9d985b1a59081058591a185c88199bdc9b585d605a1b6044820152606401610716565b612c8d83614728565b612ccf57604051637e7cb63d60e01b8152602060048201526012602482015271125b9d985b1a590814105388199bdc9b585d60721b6044820152606401610716565b81612ced57604051630c96ccbb60e11b815260040160405180910390fd5b612cf6816142d8565b612d395760405162461bcd60e51b8152602060048201526014602482015273125b9d985b1a5908195b585a5b08199bdc9b585d60621b6044820152606401610716565b6103e8600786604051612d4c9190615570565b9081526040519081900360200190205410612d7c57846040516360da290160e11b81526004016107169190615429565b600e84604051612d8c9190615570565b9081526040519081900360200190205460ff1615612dbf578360405163d0488a0960e01b81526004016107169190615429565b600f83604051612dcf9190615570565b9081526040519081900360200190205460ff1615612e0257826040516334d43cbb60e01b81526004016107169190615429565b6001600e85604051612e149190615570565b908152604051908190036020018120805492151560ff1990931692909217909155600190600f90612e46908690615570565b9081526040805160209281900383018120805460ff19169415159490941790935561012083018152338084528284018b81528483018b9052606085018a90526080850189905260a0850188905260c0850187905260e0850186905260006101008601819052918252600490935220825181546001600160a01b0319166001600160a01b0390911617815590516001820190612ee1908261563d565b506040820151600282015560608201516003820190612f00908261563d565b5060808201516004820190612f15908261563d565b5060a08201516005820190612f2a908261563d565b5060c0820151600682015560e08201516007820190612f49908261563d565b5061010091909101516008909101805491151560ff19909216919091179055600c80546001818101835560008390527fdf6966c971051c3d54ec59162606531493a51404a002842f56009d7e5cf4a8c790910180546001600160a01b031916331790559054612fb8919061555d565b336000818152600d6020526040908190209290925590517f48cac28ad4dc618e15f4c2dd5e97751182f166de97b25618318b2112aa951a2f90612ffc908a90615429565b60405180910390a26007856040516130149190615570565b90815260405190819003602090810182208054600181810183556000928352929091200180546001600160a01b0319163317905590600790613057908890615570565b90815260405190819003602001902054613071919061555d565b3360009081526008602052604090819020905161308f908890615570565b9081526040805160209281900383019020929092553360009081526009909152206130ba868261563d565b506040805160a08101825260018082526000602080840182815284860183815260608601848152875180850189528581526080880190815233865260069094529690932085518154925161ffff1990931690151561ff001916176101009215159290920291909117815591519282019290925592516002840180546001600160a01b0319166001600160a01b03909216919091179055519091906003820190613163908261563d565b5090505061317f60008051602061593a83398151915233614510565b50505050505050565b600260205260009081526040902080546001820180549192916131aa906155bb565b80601f01602080910402602001604051908101604052809291908181526020018280546131d6906155bb565b80156132235780601f106131f857610100808354040283529160200191613223565b820191906000526020600020905b81548152906001019060200180831161320657829003601f168201915b50505050509080600201549080600301805461323e906155bb565b80601f016020809104026020016040519081016040528092919081815260200182805461326a906155bb565b80156132b75780601f1061328c576101008083540402835291602001916132b7565b820191906000526020600020905b81548152906001019060200180831161329a57829003601f168201915b5050505050905084565b6000546001600160a01b031633146132eb5760405162461bcd60e51b8152600401610716906156fc565b600054600160a01b900460ff166133445760405162461bcd60e51b815260206004820152601760248201527f436f6e7472616374206d757374206265207061757365640000000000000000006044820152606401610716565b6000805460405147926001600160a01b039092169183156108fc02918491818181858888f1935050505015801561337f573d6000803e3d6000fd5b50600054604080516001600160a01b039092168252602082018390527f23d6711a1d031134a36921253c75aa59e967d38e369ac625992824315e204f209101610dda565b600c546060906000906001600160401b038111156133e3576133e3614d36565b60405190808252806020026020018201604052801561341c57816020015b613409614b52565b8152602001906001900390816134015790505b50905060005b600c548110156137b55760046000600c83815481106134435761344361558c565b60009182526020808320909101546001600160a01b039081168452838201949094526040928301909120825161012081019093528054909316825260018301805492939291840191613494906155bb565b80601f01602080910402602001604051908101604052809291908181526020018280546134c0906155bb565b801561350d5780601f106134e25761010080835404028352916020019161350d565b820191906000526020600020905b8154815290600101906020018083116134f057829003601f168201915b5050505050815260200160028201548152602001600382018054613530906155bb565b80601f016020809104026020016040519081016040528092919081815260200182805461355c906155bb565b80156135a95780601f1061357e576101008083540402835291602001916135a9565b820191906000526020600020905b81548152906001019060200180831161358c57829003601f168201915b505050505081526020016004820180546135c2906155bb565b80601f01602080910402602001604051908101604052809291908181526020018280546135ee906155bb565b801561363b5780601f106136105761010080835404028352916020019161363b565b820191906000526020600020905b81548152906001019060200180831161361e57829003601f168201915b50505050508152602001600582018054613654906155bb565b80601f0160208091040260200160405190810160405280929190818152602001828054613680906155bb565b80156136cd5780601f106136a2576101008083540402835291602001916136cd565b820191906000526020600020905b8154815290600101906020018083116136b057829003601f168201915b50505050508152602001600682015481526020016007820180546136f0906155bb565b80601f016020809104026020016040519081016040528092919081815260200182805461371c906155bb565b80156137695780601f1061373e57610100808354040283529160200191613769565b820191906000526020600020905b81548152906001019060200180831161374c57829003601f168201915b50505091835250506008919091015460ff16151560209091015282518390839081106137975761379761558c565b602002602001018190525080806137ad906155a2565b915050613422565b50919050565b6137e66040518060800160405280600081526020016060815260200160008152602001606081525090565b6001600160a01b03821660009081526002602052604081205490036138485760405162461bcd60e51b8152602060048201526018602482015277125b9cdc1958dd1bdc88191bd95cc81b9bdd08195e1a5cdd60421b6044820152606401610716565b6001600160a01b038216600090815260026020908152604091829020825160808101909352805483526001810180549192840191613885906155bb565b80601f01602080910402602001604051908101604052809291908181526020018280546138b1906155bb565b80156138fe5780601f106138d3576101008083540402835291602001916138fe565b820191906000526020600020905b8154815290600101906020018083116138e157829003601f168201915b505050505081526020016002820154815260200160038201805461133f906155bb565b6000546001600160a01b0316331461394b5760405162461bcd60e51b8152600401610716906156fc565b6001600160a01b0381166139715760405162461bcd60e51b81526004016107169061550b565b600080546040516001600160a01b03808516939216917f8be0079c531659141344cd1fd0a4f28419497f9722a3daafe3b4186f6b6457e091a3600080546001600160a01b0319166001600160a01b0392909216919091179055565b60606000805b600c54811015613a3e576000600c82815481106139f1576139f161558c565b60009182526020808320909101546001600160a01b0316808352600690915260409091205490915060ff6101009091041615613a355782613a31816155a2565b9350505b506001016139d2565b506000816001600160401b03811115613a5957613a59614d36565b604051908082528060200260200182016040528015613a9257816020015b613a7f614b52565b815260200190600190039081613a775790505b5090508115610ad1576000805b600c54811015613e5e576000600c8281548110613abe57613abe61558c565b60009182526020808320909101546001600160a01b0316808352600690915260409091205490915060ff6101009091041615613e55576001600160a01b03808216600090815260046020908152604091829020825161012081019093528054909316825260018301805492939291840191613b38906155bb565b80601f0160208091040260200160405190810160405280929190818152602001828054613b64906155bb565b8015613bb15780601f10613b8657610100808354040283529160200191613bb1565b820191906000526020600020905b815481529060010190602001808311613b9457829003601f168201915b5050505050815260200160028201548152602001600382018054613bd4906155bb565b80601f0160208091040260200160405190810160405280929190818152602001828054613c00906155bb565b8015613c4d5780601f10613c2257610100808354040283529160200191613c4d565b820191906000526020600020905b815481529060010190602001808311613c3057829003601f168201915b50505050508152602001600482018054613c66906155bb565b80601f0160208091040260200160405190810160405280929190818152602001828054613c92906155bb565b8015613cdf5780601f10613cb457610100808354040283529160200191613cdf565b820191906000526020600020905b815481529060010190602001808311613cc257829003601f168201915b50505050508152602001600582018054613cf8906155bb565b80601f0160208091040260200160405190810160405280929190818152602001828054613d24906155bb565b8015613d715780601f10613d4657610100808354040283529160200191613d71565b820191906000526020600020905b815481529060010190602001808311613d5457829003601f168201915b5050505050815260200160068201548152602001600782018054613d94906155bb565b80601f0160208091040260200160405190810160405280929190818152602001828054613dc0906155bb565b8015613e0d5780601f10613de257610100808354040283529160200191613e0d565b820191906000526020600020905b815481529060010190602001808311613df057829003601f168201915b50505091835250506008919091015460ff1615156020909101528451859085908110613e3b57613e3b61558c565b60200260200101819052508280613e51906155a2565b9350505b50600101613a9f565b505092915050565b600c54606090600090815b81811015613eca576000600c8281548110613e8e57613e8e61558c565b6000918252602090912001546001600160a01b03169050613eae81614877565b15613ec15783613ebd816155a2565b9450505b50600101613e71565b506000826001600160401b03811115613ee557613ee5614d36565b604051908082528060200260200182016040528015613f1e57816020015b613f0b614b52565b815260200190600190039081613f035790505b5090508215610bc3576000805b838110156142cf576000600c8281548110613f4857613f4861558c565b6000918252602090912001546001600160a01b03169050613f6881614877565b156142c6576001600160a01b03808216600090815260046020908152604091829020825161012081019093528054909316825260018301805492939291840191613fb1906155bb565b80601f0160208091040260200160405190810160405280929190818152602001828054613fdd906155bb565b801561402a5780601f10613fff5761010080835404028352916020019161402a565b820191906000526020600020905b81548152906001019060200180831161400d57829003601f168201915b505050505081526020016002820154815260200160038201805461404d906155bb565b80601f0160208091040260200160405190810160405280929190818152602001828054614079906155bb565b80156140c65780601f1061409b576101008083540402835291602001916140c6565b820191906000526020600020905b8154815290600101906020018083116140a957829003601f168201915b505050505081526020016004820180546140df906155bb565b80601f016020809104026020016040519081016040528092919081815260200182805461410b906155bb565b80156141585780601f1061412d57610100808354040283529160200191614158565b820191906000526020600020905b81548152906001019060200180831161413b57829003601f168201915b50505050508152602001600582018054614171906155bb565b80601f016020809104026020016040519081016040528092919081815260200182805461419d906155bb565b80156141ea5780601f106141bf576101008083540402835291602001916141ea565b820191906000526020600020905b8154815290600101906020018083116141cd57829003601f168201915b505050505081526020016006820154815260200160078201805461420d906155bb565b80601f0160208091040260200160405190810160405280929190818152602001828054614239906155bb565b80156142865780601f1061425b57610100808354040283529160200191614286565b820191906000526020600020905b81548152906001019060200180831161426957829003601f168201915b50505091835250506008919091015460ff16151560209091015284518590859081106142b4576142b461558c565b60200260200101819052508260010192505b50600101613f2b565b50509392505050565b6000808290506003815110156142f15750600092915050565b6000806000805b8451811015614398578481815181106143135761431361558c565b01602001516001600160f81b031916600160fe1b0361434b57831561433f575060009695505050505050565b60019350809150614386565b83801561437c57508481815181106143655761436561558c565b6020910101516001600160f81b031916601760f91b145b1561438657600192505b80614390816155a2565b9150506142f8565b508280156143a35750815b80156143af5750600081115b80156143c75750600384516143c4919061555d565b81105b9695505050505050565b33600090815260096020526040812080546143eb906155bb565b80601f0160208091040260200160405190810160405280929190818152602001828054614417906155bb565b80156144645780601f1061443957610100808354040283529160200191614464565b820191906000526020600020905b81548152906001019060200180831161444757829003601f168201915b505050505090506000828051906020012090506000828051906020012090508181146114b2576114b28385614918565b336000908152600460205260409020600181016144b1868261563d565b5060028101849055600381016144c7848261563d565b50600781016144d6838261563d565b50336001600160a01b03167fd6136f3cad7c60bfc24bbf1548f39f766ca8bce104bf9adde3deb6237dec51df866040516127239190615429565b6001600160a01b0381166145365760405162461bcd60e51b81526004016107169061550b565b6000805160206158fa83398151915282036145b7576001600160a01b03811660009081526000805160206158da833981519152602052604090205460ff166145b75760405162461bcd60e51b81526020600482015260146024820152734d757374206861766520626173696320726f6c6560601b6044820152606401610716565b60008281526001602081815260408084206001600160a01b0386168086529252808420805460ff19169093179092559051909184917f8122312829fb608b8d31c14e44cba6826748abddc350818605bfc69eb7ff38479190a35050565b60008051602061593a8339815191528203614641576146416000805160206158fa83398151915282614614565b60008281526001602090815260408083206001600160a01b0385168085529252808320805460ff1916905551909184917f155aaafb6329a2098580462df33ec4b7441b19729b9601c5fc17ae1cf99a8a529190a35050565b80516000908290600c146146b05750600092915050565b60005b815181101561471e5760308282815181106146d0576146d061558c565b016020015160f81c10806146fd575060398282815181106146f3576146f361558c565b016020015160f81c115b1561470c575060009392505050565b80614716816155a2565b9150506146b3565b5060019392505050565b80516000908290600a1461473f5750600092915050565b60005b60058110156147ad57604182828151811061475f5761475f61558c565b016020015160f81c108061478c5750605a8282815181106147825761478261558c565b016020015160f81c115b1561479b575060009392505050565b806147a5816155a2565b915050614742565b5060055b600981101561481c5760308282815181106147ce576147ce61558c565b016020015160f81c10806147fb575060398282815181106147f1576147f161558c565b016020015160f81c115b1561480a575060009392505050565b80614814816155a2565b9150506147b1565b506041816009815181106148325761483261558c565b016020015160f81c10806148605750605a816009815181106148565761485661558c565b016020015160f81c115b1561486e5750600092915050565b50600192915050565b6001600160a01b03811660009081526006602052604081205460ff1680156148bd57506001600160a01b038216600090815260066020526040902054610100900460ff16155b80156148e257506001600160a01b0382166000908152600a602052604090205460ff16155b8015610ad157506001600160a01b0382166000908152600460205260408120600101805461490f906155bb565b90501192915050565b336000908152600860205260408082209051614935908590615570565b908152602001604051809103902054905060006007846040516149589190615570565b90815260200160405180910390209050600181805490501115614a2557805460009082906149889060019061555d565b815481106149985761499861558c565b9060005260206000200160009054906101000a90046001600160a01b03169050808284815481106149cb576149cb61558c565b600091825260208083209190910180546001600160a01b0319166001600160a01b03948516179055918316815260089091526040908190209051849190614a13908890615570565b90815260405190819003602001902055505b80805480614a3557614a356158a3565b600082815260209020810160001990810180546001600160a01b0319169055019055604051600790614a68908590615570565b90815260405190819003602090810182208054600181810183556000928352929091200180546001600160a01b0319163317905590600790614aab908690615570565b90815260405190819003602001902054614ac5919061555d565b33600090815260086020526040908190209051614ae3908690615570565b908152604080516020928190038301902092909255336000908152600990915220614b0e848261563d565b5050505050565b508054614b21906155bb565b6000825580601f10614b31575050565b601f016020900490600052602060002090810190614b4f9190614bac565b50565b60405180610120016040528060006001600160a01b03168152602001606081526020016000815260200160608152602001606081526020016060815260200160008019168152602001606081526020016000151581525090565b5b80821115614bc15760008155600101614bad565b5090565b60008083601f840112614bd757600080fd5b5081356001600160401b03811115614bee57600080fd5b602083019150836020828501011115610cfc57600080fd5b60008060008060008060006080888a031215614c2157600080fd5b87356001600160401b0380821115614c3857600080fd5b614c448b838c01614bc5565b909950975060208a0135965060408a0135915080821115614c6457600080fd5b614c708b838c01614bc5565b909650945060608a0135915080821115614c8957600080fd5b50614c968a828b01614bc5565b989b979a50959850939692959293505050565b80356001600160a01b0381168114614cc057600080fd5b919050565b60008060408385031215614cd857600080fd5b82359150614ce860208401614ca9565b90509250929050565b600060208284031215614d0357600080fd5b610bc382614ca9565b60008060408385031215614d1f57600080fd5b614d2883614ca9565b946020939093013593505050565b634e487b7160e01b600052604160045260246000fd5b600082601f830112614d5d57600080fd5b81356001600160401b0380821115614d7757614d77614d36565b604051601f8301601f19908116603f01168101908282118183101715614d9f57614d9f614d36565b81604052838152866020858801011115614db857600080fd5b836020870160208301376000602085830101528094505050505092915050565b60008060408385031215614deb57600080fd5b82356001600160401b0380821115614e0257600080fd5b614e0e86838701614d4c565b93506020850135915080821115614e2457600080fd5b50614e3185828601614d4c565b9150509250929050565b600080600060608486031215614e5057600080fd5b83356001600160401b03811115614e6657600080fd5b614e7286828701614d4c565b9660208601359650604090950135949350505050565b6020808252825182820181905260009190848201906040850190845b81811015614ec95783516001600160a01b031683529284019291840191600101614ea4565b50909695505050505050565b60005b83811015614ef0578181015183820152602001614ed8565b50506000910152565b60008151808452614f11816020860160208601614ed5565b601f01601f19169290920160200192915050565b602081528151151560208201526020820151151560408201526040820151606082015260018060a01b0360608301511660808201526000608083015160a080840152614f7460c0840182614ef9565b949350505050565b60008060208385031215614f8f57600080fd5b82356001600160401b0380821115614fa657600080fd5b818501915085601f830112614fba57600080fd5b813581811115614fc957600080fd5b8660208260051b8501011115614fde57600080fd5b60209290920196919550909350505050565b6000806040838503121561500357600080fd5b61500c83614ca9565b915060208301356001600160401b0381111561502757600080fd5b614e3185828601614d4c565b6000806000806080858703121561504957600080fd5b61505285614ca9565b935060208501356001600160401b038082111561506e57600080fd5b61507a88838901614d4c565b945060408701359350606087013591508082111561509757600080fd5b506150a487828801614d4c565b91505092959194509250565b6060815260006150c36060830186614ef9565b82810360208401526150d58186614ef9565b915050826040830152949350505050565b6000602082840312156150f857600080fd5b5035919050565b6001600160a01b038a168152610120602082018190526000906151248382018c614ef9565b9050896040840152828103606084015261513e818a614ef9565b905082810360808401526151528189614ef9565b905082810360a08401526151668188614ef9565b90508560c084015282810360e08401526151808186614ef9565b9150508215156101008301529a9950505050505050505050565b600080600080600080600060e0888a0312156151b557600080fd5b87356001600160401b03808211156151cc57600080fd5b6151d88b838c01614d4c565b985060208a0135975060408a01359150808211156151f557600080fd5b6152018b838c01614d4c565b965060608a013591508082111561521757600080fd5b6152238b838c01614d4c565b955060808a013591508082111561523957600080fd5b6152458b838c01614d4c565b945060a08a0135935060c08a013591508082111561526257600080fd5b5061526f8a828b01614d4c565b91505092959891949750929550565b8481526080602082015260006152976080830186614ef9565b84604084015282810360608401526152af8185614ef9565b979650505050505050565b60006020808301818452808551808352604092508286019150828160051b87010184880160005b838110156153c557888303603f19018552815180516001600160a01b0316845261012088820151818a87015261531982870182614ef9565b91505087820151888601526060808301518683038288015261533b8382614ef9565b92505050608080830151868303828801526153568382614ef9565b9250505060a080830151868303828801526153718382614ef9565b9250505060c080830151818701525060e080830151868303828801526153978382614ef9565b925050506101008083015192506153b18187018415159052565b5095880195935050908601906001016152e1565b509098975050505050505050565b602081528151602082015260006020830151608060408401526153f960a0840182614ef9565b9050604084015160608401526060840151601f198483030160808501526154208282614ef9565b95945050505050565b602081526000610bc36020830184614ef9565b60208082526018908201527f456d70747920737472696e67206e6f7420616c6c6f7765640000000000000000604082015260600190565b6020808252600f908201526e537472696e6720746f6f206c6f6e6760881b604082015260600190565b602080825260139082015272155cd95c881b9bdd081c9959da5cdd195c9959606a1b604082015260600190565b60208082526022908201527f43616c6c657220646f6573206e6f74206861766520726571756972656420726f6040820152616c6560f01b606082015260800190565b6020808252600f908201526e496e76616c6964206164647265737360881b604082015260600190565b634e487b7160e01b600052601160045260246000fd5b80820180821115610ad157610ad1615534565b81810381811115610ad157610ad1615534565b60008251615582818460208701614ed5565b9190910192915050565b634e487b7160e01b600052603260045260246000fd5b6000600182016155b4576155b4615534565b5060010190565b600181811c908216806155cf57607f821691505b6020821081036137b557634e487b7160e01b600052602260045260246000fd5b601f821115610b5357600081815260208120601f850160051c810160208610156156165750805b601f850160051c820191505b8181101561563557828155600101615622565b505050505050565b81516001600160401b0381111561565657615656614d36565b61566a8161566484546155bb565b846155ef565b602080601f83116001811461569f57600084156156875750858301515b600019600386901b1c1916600185901b178555615635565b600085815260208120601f198616915b828110156156ce578886015182559484019460019091019084016156af565b50858210156156ec5787850151600019600388901b60f8161c191681555b5050505050600190811b01905550565b6020808252600d908201526c2737ba103a34329037bbb732b960991b604082015260600190565b6000808354615731816155bb565b60018281168015615749576001811461575e5761578d565b60ff198416875282151583028701945061578d565b8760005260208060002060005b858110156157845781548a82015290840190820161576b565b50505082870194505b50929695505050505050565b6080815260006157ac6080830187614ef9565b9415156020830152509115156040830152606090910152919050565b6040815260006157db6040830185614ef9565b90508260208301529392505050565b6040815260008084546157fc816155bb565b806040860152606060018084166000811461581e576001811461583857615869565b60ff1985168884015283151560051b880183019550615869565b8960005260208060002060005b868110156158605781548b8201870152908401908201615845565b8a018501975050505b50505050506020929092019290925292915050565b6060815260006158916060830186614ef9565b60208301949094525060400152919050565b634e487b7160e01b600052603160045260246000fdfe273dcf2136c7d8ef632bb8ef13dbca69a8f36fa620c7468671b3153d46a211c042e0c820bcf782f2ae6b6ee3a83da7173685bb3cc1699ae87c54d87ed5da0f522ea52e8a0f8c1b6d1df1c2d3360b2e65af84e6442f1590d354ba73e1efac67c150efbde2d46c37e9785f1791697f77e94bb7b701e19f1930a668820722d3769414823911f2da1b49f045a0929a60b8c1f2a7fc8c06c7284ca3e8ab4e193a08c8a49807205ce4d355092ef5a8a18f56e8913cf4a201fbe287825b095693c21775a2646970667358221220875c7a6f2e058fa2ebcf8d16e4e42d8adc294dfcb631aa59a59bb7e4e6c8bba364736f6c63430008130033",
  "linkReferences": {},
  "deployedLinkReferences": {}
}