{
  "_format": "hh-sol-artifact-1",
  "contractName": "StringUtils",
  "sourceName": "contracts/StringUtils.sol",
  "abi": [
    {
      "inputs": [
        {
          "internalType": "string",
          "name": "str",
          "type": "string"
        }
      ],
      "name": "safeString",
      "outputs": [
        {
          "internalType": "string",
          "name": "",
          "type": "string"
        }
      ],
      "stateMutability": "pure",
      "type": "function"
    }
  ],
  "bytecode": "0x6101d661003a600b82828239805160001a60731461002d57634e487b7160e01b600052600060045260246000fd5b30600052607381538281f3fe73000000000000000000000000000000000000000030146080604052600436106100355760003560e01c8063c4833d1c1461003a575b600080fd5b61004d6100483660046100a1565b610063565b60405161005a9190610152565b60405180910390f35b606081516000146100745781610085565b604051806020016040528060008152505b92915050565b634e487b7160e01b600052604160045260246000fd5b6000602082840312156100b357600080fd5b813567ffffffffffffffff808211156100cb57600080fd5b818401915084601f8301126100df57600080fd5b8135818111156100f1576100f161008b565b604051601f8201601f19908116603f011681019083821181831017156101195761011961008b565b8160405282815287602084870101111561013257600080fd5b826020860160208301376000928101602001929092525095945050505050565b600060208083528351808285015260005b8181101561017f57858101830151858201604001528201610163565b506000604082860101526040601f19601f830116850101925050509291505056fea26469706673582212208d425b614edff40e6bac7494e10c0d3f898e8d5e7ee1afe0ee1d5cac5ce2d9cf64736f6c63430008130033",
  "linkReferences": {},
  "deployedLinkReferences": {}
}