{
  "_format": "hh-sol-artifact-1",
  "contractName": "BaseRegistry",
  "sourceName": "contracts/BaseRegistry.sol",
  "abi": [
    {
      "inputs": [],
      "stateMutability": "nonpayable",
      "type": "constructor"
    },
    {
      "inputs": [
        {
          "internalType": "string",
          "name": "message",
          "type": "string"
        }
      ],
      "name": "InvalidPagination",
      "type": "error"
    },
    {
      "inputs": [
        {
          "internalType": "string",
          "name": "message",
          "type": "string"
        }
      ],
      "name": "UnauthorizedAccess",
      "type": "error"
    },
    {
      "inputs": [
        {
          "internalType": "string",
          "name": "message",
          "type": "string"
        }
      ],
      "name": "ValidationError",
      "type": "error"
    },
    {
      "anonymous": false,
      "inputs": [
        {
          "indexed": false,
          "internalType": "address",
          "name": "owner",
          "type": "address"
        },
        {
          "indexed": false,
          "internalType": "uint256",
          "name": "amount",
          "type": "uint256"
        }
      ],
      "name": "EmergencyWithdrawal",
      "type": "event"
    },
    {
      "anonymous": false,
      "inputs": [
        {
          "indexed": true,
          "internalType": "address",
          "name": "inspector",
          "type": "address"
        },
        {
          "indexed": false,
          "internalType": "uint256",
          "name": "id",
          "type": "uint256"
        }
      ],
      "name": "InspectorAdded",
      "type": "event"
    },
    {
      "anonymous": false,
      "inputs": [
        {
          "indexed": true,
          "internalType": "address",
          "name": "inspector",
          "type": "address"
        },
        {
          "indexed": false,
          "internalType": "uint256",
          "name": "id",
          "type": "uint256"
        }
      ],
      "name": "InspectorRemoved",
      "type": "event"
    },
    {
      "anonymous": false,
      "inputs": [
        {
          "indexed": true,
          "internalType": "address",
          "name": "previousOwner",
          "type": "address"
        },
        {
          "indexed": true,
          "internalType": "address",
          "name": "newOwner",
          "type": "address"
        }
      ],
      "name": "OwnershipTransferred",
      "type": "event"
    },
    {
      "anonymous": false,
      "inputs": [
        {
          "indexed": false,
          "internalType": "address",
          "name": "account",
          "type": "address"
        }
      ],
      "name": "Paused",
      "type": "event"
    },
    {
      "anonymous": false,
      "inputs": [
        {
          "indexed": true,
          "internalType": "bytes32",
          "name": "role",
          "type": "bytes32"
        },
        {
          "indexed": true,
          "internalType": "address",
          "name": "account",
          "type": "address"
        }
      ],
      "name": "RoleAssigned",
      "type": "event"
    },
    {
      "anonymous": false,
      "inputs": [
        {
          "indexed": true,
          "internalType": "bytes32",
          "name": "role",
          "type": "bytes32"
        },
        {
          "indexed": true,
          "internalType": "address",
          "name": "account",
          "type": "address"
        }
      ],
      "name": "RoleRevoked",
      "type": "event"
    },
    {
      "anonymous": false,
      "inputs": [
        {
          "indexed": false,
          "internalType": "address",
          "name": "account",
          "type": "address"
        }
      ],
      "name": "Unpaused",
      "type": "event"
    },
    {
      "inputs": [],
      "name": "ADMIN_ROLE",
      "outputs": [
        {
          "internalType": "bytes32",
          "name": "",
          "type": "bytes32"
        }
      ],
      "stateMutability": "view",
      "type": "function"
    },
    {
      "inputs": [],
      "name": "INSPECTOR_ROLE",
      "outputs": [
        {
          "internalType": "bytes32",
          "name": "",
          "type": "bytes32"
        }
      ],
      "stateMutability": "view",
      "type": "function"
    },
    {
      "inputs": [],
      "name": "USER_ROLE",
      "outputs": [
        {
          "internalType": "bytes32",
          "name": "",
          "type": "bytes32"
        }
      ],
      "stateMutability": "view",
      "type": "function"
    },
    {
      "inputs": [],
      "name": "VERIFIED_USER_ROLE",
      "outputs": [
        {
          "internalType": "bytes32",
          "name": "",
          "type": "bytes32"
        }
      ],
      "stateMutability": "view",
      "type": "function"
    },
    {
      "inputs": [],
      "name": "VERSION",
      "outputs": [
        {
          "internalType": "string",
          "name": "",
          "type": "string"
        }
      ],
      "stateMutability": "view",
      "type": "function"
    },
    {
      "inputs": [
        {
          "internalType": "address",
          "name": "_inspector",
          "type": "address"
        },
        {
          "internalType": "string",
          "name": "_name",
          "type": "string"
        },
        {
          "internalType": "uint256",
          "name": "_age",
          "type": "uint256"
        },
        {
          "internalType": "string",
          "name": "_designation",
          "type": "string"
        }
      ],
      "name": "addInspector",
      "outputs": [],
      "stateMutability": "nonpayable",
      "type": "function"
    },
    {
      "inputs": [
        {
          "internalType": "address",
          "name": "user",
          "type": "address"
        },
        {
          "internalType": "bytes32",
          "name": "role",
          "type": "bytes32"
        }
      ],
      "name": "assignRole",
      "outputs": [],
      "stateMutability": "nonpayable",
      "type": "function"
    },
    {
      "inputs": [
        {
          "internalType": "bytes32",
          "name": "role",
          "type": "bytes32"
        },
        {
          "internalType": "address",
          "name": "user",
          "type": "address"
        }
      ],
      "name": "checkRole",
      "outputs": [
        {
          "internalType": "bool",
          "name": "",
          "type": "bool"
        }
      ],
      "stateMutability": "view",
      "type": "function"
    },
    {
      "inputs": [],
      "name": "emergencyWithdraw",
      "outputs": [],
      "stateMutability": "nonpayable",
      "type": "function"
    },
    {
      "inputs": [
        {
          "internalType": "address",
          "name": "_inspector",
          "type": "address"
        }
      ],
      "name": "getInspector",
      "outputs": [
        {
          "components": [
            {
              "internalType": "uint256",
              "name": "id",
              "type": "uint256"
            },
            {
              "internalType": "string",
              "name": "name",
              "type": "string"
            },
            {
              "internalType": "uint256",
              "name": "age",
              "type": "uint256"
            },
            {
              "internalType": "string",
              "name": "designation",
              "type": "string"
            }
          ],
          "internalType": "struct BaseRegistry.LandInspector",
          "name": "",
          "type": "tuple"
        }
      ],
      "stateMutability": "view",
      "type": "function"
    },
    {
      "inputs": [
        {
          "internalType": "address",
          "name": "",
          "type": "address"
        }
      ],
      "name": "inspectors",
      "outputs": [
        {
          "internalType": "uint256",
          "name": "id",
          "type": "uint256"
        },
        {
          "internalType": "string",
          "name": "name",
          "type": "string"
        },
        {
          "internalType": "uint256",
          "name": "age",
          "type": "uint256"
        },
        {
          "internalType": "string",
          "name": "designation",
          "type": "string"
        }
      ],
      "stateMutability": "view",
      "type": "function"
    },
    {
      "inputs": [],
      "name": "owner",
      "outputs": [
        {
          "internalType": "address",
          "name": "",
          "type": "address"
        }
      ],
      "stateMutability": "view",
      "type": "function"
    },
    {
      "inputs": [],
      "name": "pause",
      "outputs": [],
      "stateMutability": "nonpayable",
      "type": "function"
    },
    {
      "inputs": [],
      "name": "paused",
      "outputs": [
        {
          "internalType": "bool",
          "name": "",
          "type": "bool"
        }
      ],
      "stateMutability": "view",
      "type": "function"
    },
    {
      "inputs": [
        {
          "internalType": "address",
          "name": "_inspector",
          "type": "address"
        }
      ],
      "name": "removeInspector",
      "outputs": [],
      "stateMutability": "nonpayable",
      "type": "function"
    },
    {
      "inputs": [
        {
          "internalType": "address",
          "name": "user",
          "type": "address"
        },
        {
          "internalType": "bytes32",
          "name": "role",
          "type": "bytes32"
        }
      ],
      "name": "revokeRole",
      "outputs": [],
      "stateMutability": "nonpayable",
      "type": "function"
    },
    {
      "inputs": [
        {
          "internalType": "address",
          "name": "newOwner",
          "type": "address"
        }
      ],
      "name": "transferOwnership",
      "outputs": [],
      "stateMutability": "nonpayable",
      "type": "function"
    },
    {
      "inputs": [],
      "name": "unpause",
      "outputs": [],
      "stateMutability": "nonpayable",
      "type": "function"
    }
  ],
  "bytecode": "0x608060405234801561001057600080fd5b50600080546001600160a01b0319163390811782558082527f50efbde2d46c37e9785f1791697f77e94bb7b701e19f1930a668820722d376946020526040808320805460ff191660011790555190917fa49807205ce4d355092ef5a8a18f56e8913cf4a201fbe287825b095693c21775917f8122312829fb608b8d31c14e44cba6826748abddc350818605bfc69eb7ff38479190a3611749806100b46000396000f3fe608060405234801561001057600080fd5b50600436106101165760003560e01c80638456cb59116100a2578063db2e21bc11610071578063db2e21bc1461029a578063e3a3c522146102a2578063e8f7dfcf146102b7578063f2fde38b146102d7578063ffa1ad74146102ea57600080fd5b80638456cb59146102315780638903effe146102395780638da5cb5b1461024c578063d5dd16571461027757600080fd5b8063208dd1ff116100e9578063208dd1ff146101da5780633f4ba83a146101ed5780635c975abb146101f557806375b238fc146102095780637c70e7911461021e57600080fd5b806312d9a6ad1461011b57806313119161146101695780631893eae81461019e5780631d9486de146101c5575b600080fd5b61015461012936600461122e565b60009182526001602090815260408084206001600160a01b0393909316845291905290205460ff1690565b60405190151581526020015b60405180910390f35b6101907f14823911f2da1b49f045a0929a60b8c1f2a7fc8c06c7284ca3e8ab4e193a08c881565b604051908152602001610160565b6101907f2ea52e8a0f8c1b6d1df1c2d3360b2e65af84e6442f1590d354ba73e1efac67c181565b6101d86101d336600461125a565b61031b565b005b6101d86101e836600461125a565b6103a5565b6101d8610487565b60005461015490600160a01b900460ff1681565b6101906000805160206116f483398151915281565b6101d861022c366004611284565b610569565b6101d861072f565b6101d8610247366004611349565b610818565b60005461025f906001600160a01b031681565b6040516001600160a01b039091168152602001610160565b61028a610285366004611284565b610b16565b604051610160949392919061140d565b6101d8610c4f565b6101906000805160206116b483398151915281565b6102ca6102c5366004611284565b610d51565b6040516101609190611449565b6101d86102e5366004611284565b610f40565b61030e604051806040016040528060058152602001640312e302e360dc1b81525081565b604051610160919061149f565b3360009081526000805160206116d483398151915260205260409020546000805160206116f48339815191529060ff166103705760405162461bcd60e51b8152600401610367906114b2565b60405180910390fd5b6001600160a01b0383166103965760405162461bcd60e51b8152600401610367906114f4565b6103a08284610feb565b505050565b3360009081526000805160206116d483398151915260205260409020546000805160206116f48339815191529060ff166103f15760405162461bcd60e51b8152600401610367906114b2565b6001600160a01b0383166104175760405162461bcd60e51b8152600401610367906114f4565b60008281526001602090815260408083206001600160a01b038716845290915290205460ff1661047d5760405162461bcd60e51b8152602060048201526011602482015270149bdb19481b9bdd08185cdcda59db9959607a1b6044820152606401610367565b6103a08284611113565b3360009081526000805160206116d483398151915260205260409020546000805160206116f48339815191529060ff166104d35760405162461bcd60e51b8152600401610367906114b2565b600054600160a01b900460ff166105255760405162461bcd60e51b815260206004820152601660248201527510dbdb9d1c9858dd081a5cc81b9bdd081c185d5cd95960521b6044820152606401610367565b6000805460ff60a01b191690556040513381527f5db9ee0a495bf2e6ff9c91a7834c1ba4fdd244a5e8aa4e537bd38aeae4b073aa906020015b60405180910390a150565b6000546001600160a01b031633146105935760405162461bcd60e51b81526004016103679061151d565b6001600160a01b0381166105e55760405162461bcd60e51b8152602060048201526019602482015278496e76616c696420696e73706563746f72206164647265737360381b6044820152606401610367565b6001600160a01b03811660009081526002602052604081205490036106475760405162461bcd60e51b8152602060048201526018602482015277125b9cdc1958dd1bdc88191bd95cc81b9bdd08195e1a5cdd60421b6044820152606401610367565b6001600160a01b038116600090815260026020526040812080548282559161067260018301826111bc565b600282016000905560038201600061068a91906111bc565b50506106a46000805160206116b483398151915283611113565b816001600160a01b03167ff4d26249e2d6402f768ccb0c52cb35f2df31dae16a7ba6518812c1f8db9c034e826040516106df91815260200190565b60405180910390a26040516001600160a01b038316906000805160206116b4833981519152907f155aaafb6329a2098580462df33ec4b7441b19729b9601c5fc17ae1cf99a8a5290600090a35050565b3360009081526000805160206116d483398151915260205260409020546000805160206116f48339815191529060ff1661077b5760405162461bcd60e51b8152600401610367906114b2565b600054600160a01b900460ff16156107d55760405162461bcd60e51b815260206004820152601a60248201527f436f6e747261637420697320616c7265616479207061757365640000000000006044820152606401610367565b6000805460ff60a01b1916600160a01b1790556040513381527f62e78cea01bee320cd4e420270b5ea74000d11b0c9f74754ebdbfc544b05a2589060200161055e565b6000546001600160a01b031633146108425760405162461bcd60e51b81526004016103679061151d565b6001600160a01b0384166108945760405162461bcd60e51b8152602060048201526019602482015278496e76616c696420696e73706563746f72206164647265737360381b6044820152606401610367565b60128210156108e55760405162461bcd60e51b815260206004820152601a60248201527f496e73706563746f72206d75737420626520616e206164756c740000000000006044820152606401610367565b600083511161092d5760405162461bcd60e51b81526020600482015260146024820152734e616d652063616e6e6f7420626520656d70747960601b6044820152606401610367565b600081511161097e5760405162461bcd60e51b815260206004820152601b60248201527f44657369676e6174696f6e2063616e6e6f7420626520656d70747900000000006044820152606401610367565b6001600160a01b038416600090815260026020526040902054156109e45760405162461bcd60e51b815260206004820152601860248201527f496e73706563746f7220616c72656164792065786973747300000000000000006044820152606401610367565b600380549060006109f483611544565b90915550506040805160808101825260035481526020808201868152828401869052606083018590526001600160a01b038816600090815260029092529290208151815591519091906001820190610a4c90826115f3565b506040820151600282015560608201516003820190610a6b90826115f3565b50905050610a876000805160206116b483398151915285610feb565b836001600160a01b03167f99ec83913a9d9b79baf37f57157bc50784ba372a64a793df8c821767a2e1bb6b600354604051610ac491815260200190565b60405180910390a26040516001600160a01b038516906000805160206116b4833981519152907f8122312829fb608b8d31c14e44cba6826748abddc350818605bfc69eb7ff384790600090a350505050565b60026020526000908152604090208054600182018054919291610b389061156b565b80601f0160208091040260200160405190810160405280929190818152602001828054610b649061156b565b8015610bb15780601f10610b8657610100808354040283529160200191610bb1565b820191906000526020600020905b815481529060010190602001808311610b9457829003601f168201915b505050505090806002015490806003018054610bcc9061156b565b80601f0160208091040260200160405190810160405280929190818152602001828054610bf89061156b565b8015610c455780601f10610c1a57610100808354040283529160200191610c45565b820191906000526020600020905b815481529060010190602001808311610c2857829003601f168201915b5050505050905084565b6000546001600160a01b03163314610c795760405162461bcd60e51b81526004016103679061151d565b600054600160a01b900460ff16610cd25760405162461bcd60e51b815260206004820152601760248201527f436f6e7472616374206d757374206265207061757365640000000000000000006044820152606401610367565b6000805460405147926001600160a01b039092169183156108fc02918491818181858888f19350505050158015610d0d573d6000803e3d6000fd5b50600054604080516001600160a01b039092168252602082018390527f23d6711a1d031134a36921253c75aa59e967d38e369ac625992824315e204f20910161055e565b610d7c6040518060800160405280600081526020016060815260200160008152602001606081525090565b6001600160a01b0382166000908152600260205260408120549003610dde5760405162461bcd60e51b8152602060048201526018602482015277125b9cdc1958dd1bdc88191bd95cc81b9bdd08195e1a5cdd60421b6044820152606401610367565b6001600160a01b038216600090815260026020908152604091829020825160808101909352805483526001810180549192840191610e1b9061156b565b80601f0160208091040260200160405190810160405280929190818152602001828054610e479061156b565b8015610e945780601f10610e6957610100808354040283529160200191610e94565b820191906000526020600020905b815481529060010190602001808311610e7757829003601f168201915b5050505050815260200160028201548152602001600382018054610eb79061156b565b80601f0160208091040260200160405190810160405280929190818152602001828054610ee39061156b565b8015610f305780601f10610f0557610100808354040283529160200191610f30565b820191906000526020600020905b815481529060010190602001808311610f1357829003601f168201915b5050505050815250509050919050565b6000546001600160a01b03163314610f6a5760405162461bcd60e51b81526004016103679061151d565b6001600160a01b038116610f905760405162461bcd60e51b8152600401610367906114f4565b600080546040516001600160a01b03808516939216917f8be0079c531659141344cd1fd0a4f28419497f9722a3daafe3b4186f6b6457e091a3600080546001600160a01b0319166001600160a01b0392909216919091179055565b6001600160a01b0381166110115760405162461bcd60e51b8152600401610367906114f4565b7f2ea52e8a0f8c1b6d1df1c2d3360b2e65af84e6442f1590d354ba73e1efac67c182036110b6576001600160a01b03811660009081527f42e0c820bcf782f2ae6b6ee3a83da7173685bb3cc1699ae87c54d87ed5da0f52602052604090205460ff166110b65760405162461bcd60e51b81526020600482015260146024820152734d757374206861766520626173696320726f6c6560601b6044820152606401610367565b60008281526001602081815260408084206001600160a01b0386168086529252808420805460ff19169093179092559051909184917f8122312829fb608b8d31c14e44cba6826748abddc350818605bfc69eb7ff38479190a35050565b7f14823911f2da1b49f045a0929a60b8c1f2a7fc8c06c7284ca3e8ab4e193a08c88203611164576111647f2ea52e8a0f8c1b6d1df1c2d3360b2e65af84e6442f1590d354ba73e1efac67c182611113565b60008281526001602090815260408083206001600160a01b0385168085529252808320805460ff1916905551909184917f155aaafb6329a2098580462df33ec4b7441b19729b9601c5fc17ae1cf99a8a529190a35050565b5080546111c89061156b565b6000825580601f106111d8575050565b601f0160209004906000526020600020908101906111f691906111f9565b50565b5b8082111561120e57600081556001016111fa565b5090565b80356001600160a01b038116811461122957600080fd5b919050565b6000806040838503121561124157600080fd5b8235915061125160208401611212565b90509250929050565b6000806040838503121561126d57600080fd5b61127683611212565b946020939093013593505050565b60006020828403121561129657600080fd5b61129f82611212565b9392505050565b634e487b7160e01b600052604160045260246000fd5b600082601f8301126112cd57600080fd5b813567ffffffffffffffff808211156112e8576112e86112a6565b604051601f8301601f19908116603f01168101908282118183101715611310576113106112a6565b8160405283815286602085880101111561132957600080fd5b836020870160208301376000602085830101528094505050505092915050565b6000806000806080858703121561135f57600080fd5b61136885611212565b9350602085013567ffffffffffffffff8082111561138557600080fd5b611391888389016112bc565b94506040870135935060608701359150808211156113ae57600080fd5b506113bb878288016112bc565b91505092959194509250565b6000815180845260005b818110156113ed576020818501810151868301820152016113d1565b506000602082860101526020601f19601f83011685010191505092915050565b84815260806020820152600061142660808301866113c7565b846040840152828103606084015261143e81856113c7565b979650505050505050565b6020815281516020820152600060208301516080604084015261146f60a08401826113c7565b9050604084015160608401526060840151601f1984830301608085015261149682826113c7565b95945050505050565b60208152600061129f60208301846113c7565b60208082526022908201527f43616c6c657220646f6573206e6f74206861766520726571756972656420726f6040820152616c6560f01b606082015260800190565b6020808252600f908201526e496e76616c6964206164647265737360881b604082015260600190565b6020808252600d908201526c2737ba103a34329037bbb732b960991b604082015260600190565b60006001820161156457634e487b7160e01b600052601160045260246000fd5b5060010190565b600181811c9082168061157f57607f821691505b60208210810361159f57634e487b7160e01b600052602260045260246000fd5b50919050565b601f8211156103a057600081815260208120601f850160051c810160208610156115cc5750805b601f850160051c820191505b818110156115eb578281556001016115d8565b505050505050565b815167ffffffffffffffff81111561160d5761160d6112a6565b6116218161161b845461156b565b846115a5565b602080601f831160018114611656576000841561163e5750858301515b600019600386901b1c1916600185901b1785556115eb565b600085815260208120601f198616915b8281101561168557888601518255948401946001909101908401611666565b50858210156116a35787850151600019600388901b60f8161c191681555b5050505050600190811b0190555056fe273dcf2136c7d8ef632bb8ef13dbca69a8f36fa620c7468671b3153d46a211c050efbde2d46c37e9785f1791697f77e94bb7b701e19f1930a668820722d37694a49807205ce4d355092ef5a8a18f56e8913cf4a201fbe287825b095693c21775a264697066735822122026c9fbbbccba48a06613d9a7b858dd92f799b232005e1407a7b168447650a61864736f6c63430008130033",
  "linkReferences": {},
  "deployedLinkReferences": {}
}