{
  "_format": "hh-sol-artifact-1",
  "contractName": "TransactionRegistry",
  "sourceName": "contracts/TransactionRegistry.sol",
  "abi": [
    {
      "inputs": [
        {
          "internalType": "address",
          "name": "_landRegistry",
          "type": "address"
        }
      ],
      "stateMutability": "nonpayable",
      "type": "constructor"
    },
    {
      "inputs": [
        {
          "internalType": "string",
          "name": "message",
          "type": "string"
        }
      ],
      "name": "InvalidPagination",
      "type": "error"
    },
    {
      "inputs": [
        {
          "internalType": "string",
          "name": "message",
          "type": "string"
        }
      ],
      "name": "UnauthorizedAccess",
      "type": "error"
    },
    {
      "inputs": [
        {
          "internalType": "string",
          "name": "message",
          "type": "string"
        }
      ],
      "name": "ValidationError",
      "type": "error"
    },
    {
      "anonymous": false,
      "inputs": [
        {
          "indexed": false,
          "internalType": "address",
          "name": "owner",
          "type": "address"
        },
        {
          "indexed": false,
          "internalType": "uint256",
          "name": "amount",
          "type": "uint256"
        }
      ],
      "name": "EmergencyWithdrawal",
      "type": "event"
    },
    {
      "anonymous": false,
      "inputs": [
        {
          "indexed": true,
          "internalType": "address",
          "name": "inspector",
          "type": "address"
        },
        {
          "indexed": false,
          "internalType": "uint256",
          "name": "id",
          "type": "uint256"
        }
      ],
      "name": "InspectorAdded",
      "type": "event"
    },
    {
      "anonymous": false,
      "inputs": [
        {
          "indexed": true,
          "internalType": "address",
          "name": "inspector",
          "type": "address"
        },
        {
          "indexed": false,
          "internalType": "uint256",
          "name": "id",
          "type": "uint256"
        }
      ],
      "name": "InspectorRemoved",
      "type": "event"
    },
    {
      "anonymous": false,
      "inputs": [
        {
          "indexed": true,
          "internalType": "uint256",
          "name": "landId",
          "type": "uint256"
        },
        {
          "indexed": true,
          "internalType": "address",
          "name": "from",
          "type": "address"
        },
        {
          "indexed": true,
          "internalType": "address",
          "name": "to",
          "type": "address"
        }
      ],
      "name": "LandOwnershipTransferred",
      "type": "event"
    },
    {
      "anonymous": false,
      "inputs": [
        {
          "indexed": true,
          "internalType": "uint256",
          "name": "requestId",
          "type": "uint256"
        },
        {
          "indexed": false,
          "internalType": "uint256",
          "name": "landId",
          "type": "uint256"
        }
      ],
      "name": "LandPurchaseRequested",
      "type": "event"
    },
    {
      "anonymous": false,
      "inputs": [
        {
          "indexed": false,
          "internalType": "uint256",
          "name": "averagePrice",
          "type": "uint256"
        },
        {
          "indexed": false,
          "internalType": "uint256",
          "name": "totalVolume",
          "type": "uint256"
        }
      ],
      "name": "MarketMetricsUpdated",
      "type": "event"
    },
    {
      "anonymous": false,
      "inputs": [
        {
          "indexed": true,
          "internalType": "address",
          "name": "previousOwner",
          "type": "address"
        },
        {
          "indexed": true,
          "internalType": "address",
          "name": "newOwner",
          "type": "address"
        }
      ],
      "name": "OwnershipTransferred",
      "type": "event"
    },
    {
      "anonymous": false,
      "inputs": [
        {
          "indexed": false,
          "internalType": "address",
          "name": "account",
          "type": "address"
        }
      ],
      "name": "Paused",
      "type": "event"
    },
    {
      "anonymous": false,
      "inputs": [
        {
          "indexed": true,
          "internalType": "uint256",
          "name": "requestId",
          "type": "uint256"
        }
      ],
      "name": "PurchaseRequestCancelled",
      "type": "event"
    },
    {
      "anonymous": false,
      "inputs": [
        {
          "indexed": true,
          "internalType": "uint256",
          "name": "requestId",
          "type": "uint256"
        },
        {
          "indexed": true,
          "internalType": "uint256",
          "name": "landId",
          "type": "uint256"
        },
        {
          "indexed": true,
          "internalType": "address",
          "name": "creator",
          "type": "address"
        }
      ],
      "name": "PurchaseRequestCreated",
      "type": "event"
    },
    {
      "anonymous": false,
      "inputs": [
        {
          "indexed": true,
          "internalType": "uint256",
          "name": "requestId",
          "type": "uint256"
        },
        {
          "indexed": false,
          "internalType": "enum TransactionRegistry.RequestStatus",
          "name": "status",
          "type": "uint8"
        }
      ],
      "name": "PurchaseRequestStatusChanged",
      "type": "event"
    },
    {
      "anonymous": false,
      "inputs": [
        {
          "indexed": true,
          "internalType": "uint256",
          "name": "requestId",
          "type": "uint256"
        },
        {
          "indexed": true,
          "internalType": "address",
          "name": "user",
          "type": "address"
        },
        {
          "indexed": false,
          "internalType": "string",
          "name": "action",
          "type": "string"
        },
        {
          "indexed": false,
          "internalType": "enum TransactionRegistry.RequestStatus",
          "name": "status",
          "type": "uint8"
        }
      ],
      "name": "RequestDebug",
      "type": "event"
    },
    {
      "anonymous": false,
      "inputs": [
        {
          "indexed": true,
          "internalType": "bytes32",
          "name": "role",
          "type": "bytes32"
        },
        {
          "indexed": true,
          "internalType": "address",
          "name": "account",
          "type": "address"
        }
      ],
      "name": "RoleAssigned",
      "type": "event"
    },
    {
      "anonymous": false,
      "inputs": [
        {
          "indexed": true,
          "internalType": "bytes32",
          "name": "role",
          "type": "bytes32"
        },
        {
          "indexed": true,
          "internalType": "address",
          "name": "account",
          "type": "address"
        }
      ],
      "name": "RoleRevoked",
      "type": "event"
    },
    {
      "anonymous": false,
      "inputs": [
        {
          "indexed": true,
          "internalType": "address",
          "name": "user",
          "type": "address"
        },
        {
          "indexed": false,
          "internalType": "uint256",
          "name": "total",
          "type": "uint256"
        },
        {
          "indexed": false,
          "internalType": "uint256",
          "name": "pending",
          "type": "uint256"
        },
        {
          "indexed": false,
          "internalType": "uint256",
          "name": "incoming",
          "type": "uint256"
        },
        {
          "indexed": false,
          "internalType": "uint256",
          "name": "outgoing",
          "type": "uint256"
        }
      ],
      "name": "StatsDebug",
      "type": "event"
    },
    {
      "anonymous": false,
      "inputs": [
        {
          "indexed": true,
          "internalType": "uint256",
          "name": "transactionId",
          "type": "uint256"
        },
        {
          "indexed": true,
          "internalType": "address",
          "name": "user",
          "type": "address"
        }
      ],
      "name": "TransactionRecorded",
      "type": "event"
    },
    {
      "anonymous": false,
      "inputs": [
        {
          "indexed": false,
          "internalType": "address",
          "name": "account",
          "type": "address"
        }
      ],
      "name": "Unpaused",
      "type": "event"
    },
    {
      "inputs": [],
      "name": "ADMIN_ROLE",
      "outputs": [
        {
          "internalType": "bytes32",
          "name": "",
          "type": "bytes32"
        }
      ],
      "stateMutability": "view",
      "type": "function"
    },
    {
      "inputs": [],
      "name": "INSPECTOR_ROLE",
      "outputs": [
        {
          "internalType": "bytes32",
          "name": "",
          "type": "bytes32"
        }
      ],
      "stateMutability": "view",
      "type": "function"
    },
    {
      "inputs": [],
      "name": "USER_ROLE",
      "outputs": [
        {
          "internalType": "bytes32",
          "name": "",
          "type": "bytes32"
        }
      ],
      "stateMutability": "view",
      "type": "function"
    },
    {
      "inputs": [],
      "name": "VERIFIED_USER_ROLE",
      "outputs": [
        {
          "internalType": "bytes32",
          "name": "",
          "type": "bytes32"
        }
      ],
      "stateMutability": "view",
      "type": "function"
    },
    {
      "inputs": [],
      "name": "VERSION",
      "outputs": [
        {
          "internalType": "string",
          "name": "",
          "type": "string"
        }
      ],
      "stateMutability": "view",
      "type": "function"
    },
    {
      "inputs": [
        {
          "internalType": "address",
          "name": "_inspector",
          "type": "address"
        },
        {
          "internalType": "string",
          "name": "_name",
          "type": "string"
        },
        {
          "internalType": "uint256",
          "name": "_age",
          "type": "uint256"
        },
        {
          "internalType": "string",
          "name": "_designation",
          "type": "string"
        }
      ],
      "name": "addInspector",
      "outputs": [],
      "stateMutability": "nonpayable",
      "type": "function"
    },
    {
      "inputs": [
        {
          "internalType": "address",
          "name": "user",
          "type": "address"
        },
        {
          "internalType": "bytes32",
          "name": "role",
          "type": "bytes32"
        }
      ],
      "name": "assignRole",
      "outputs": [],
      "stateMutability": "nonpayable",
      "type": "function"
    },
    {
      "inputs": [
        {
          "internalType": "uint256[]",
          "name": "requestIds",
          "type": "uint256[]"
        },
        {
          "internalType": "bool[]",
          "name": "decisions",
          "type": "bool[]"
        }
      ],
      "name": "batchProcessRequests",
      "outputs": [],
      "stateMutability": "nonpayable",
      "type": "function"
    },
    {
      "inputs": [],
      "name": "calculateAveragePrice",
      "outputs": [
        {
          "internalType": "uint256",
          "name": "",
          "type": "uint256"
        }
      ],
      "stateMutability": "view",
      "type": "function"
    },
    {
      "inputs": [
        {
          "internalType": "uint256",
          "name": "_requestId",
          "type": "uint256"
        }
      ],
      "name": "cancelPurchaseRequest",
      "outputs": [],
      "stateMutability": "nonpayable",
      "type": "function"
    },
    {
      "inputs": [
        {
          "internalType": "bytes32",
          "name": "role",
          "type": "bytes32"
        },
        {
          "internalType": "address",
          "name": "user",
          "type": "address"
        }
      ],
      "name": "checkRole",
      "outputs": [
        {
          "internalType": "bool",
          "name": "",
          "type": "bool"
        }
      ],
      "stateMutability": "view",
      "type": "function"
    },
    {
      "inputs": [
        {
          "internalType": "uint256",
          "name": "_landId",
          "type": "uint256"
        }
      ],
      "name": "createPurchaseRequest",
      "outputs": [],
      "stateMutability": "nonpayable",
      "type": "function"
    },
    {
      "inputs": [
        {
          "internalType": "address",
          "name": "_user",
          "type": "address"
        }
      ],
      "name": "debugUserStats",
      "outputs": [],
      "stateMutability": "nonpayable",
      "type": "function"
    },
    {
      "inputs": [],
      "name": "emergencyWithdraw",
      "outputs": [],
      "stateMutability": "nonpayable",
      "type": "function"
    },
    {
      "inputs": [
        {
          "internalType": "address",
          "name": "_inspector",
          "type": "address"
        }
      ],
      "name": "getInspector",
      "outputs": [
        {
          "components": [
            {
              "internalType": "uint256",
              "name": "id",
              "type": "uint256"
            },
            {
              "internalType": "string",
              "name": "name",
              "type": "string"
            },
            {
              "internalType": "uint256",
              "name": "age",
              "type": "uint256"
            },
            {
              "internalType": "string",
              "name": "designation",
              "type": "string"
            }
          ],
          "internalType": "struct BaseRegistry.LandInspector",
          "name": "",
          "type": "tuple"
        }
      ],
      "stateMutability": "view",
      "type": "function"
    },
    {
      "inputs": [
        {
          "internalType": "uint256",
          "name": "_landId",
          "type": "uint256"
        },
        {
          "internalType": "enum TransactionRegistry.RequestStatus",
          "name": "_status",
          "type": "uint8"
        }
      ],
      "name": "getLandRequests",
      "outputs": [
        {
          "components": [
            {
              "internalType": "uint256",
              "name": "requestId",
              "type": "uint256"
            },
            {
              "internalType": "address payable",
              "name": "seller",
              "type": "address"
            },
            {
              "internalType": "address payable",
              "name": "buyer",
              "type": "address"
            },
            {
              "internalType": "uint256",
              "name": "landId",
              "type": "uint256"
            },
            {
              "internalType": "enum TransactionRegistry.RequestStatus",
              "name": "status",
              "type": "uint8"
            },
            {
              "internalType": "bool",
              "name": "isPaymentDone",
              "type": "bool"
            }
          ],
          "internalType": "struct TransactionRegistry.PurchaseRequest[]",
          "name": "",
          "type": "tuple[]"
        }
      ],
      "stateMutability": "view",
      "type": "function"
    },
    {
      "inputs": [
        {
          "internalType": "uint256",
          "name": "_requestId",
          "type": "uint256"
        }
      ],
      "name": "getPurchaseRequest",
      "outputs": [
        {
          "components": [
            {
              "internalType": "uint256",
              "name": "requestId",
              "type": "uint256"
            },
            {
              "internalType": "address payable",
              "name": "seller",
              "type": "address"
            },
            {
              "internalType": "address payable",
              "name": "buyer",
              "type": "address"
            },
            {
              "internalType": "uint256",
              "name": "landId",
              "type": "uint256"
            },
            {
              "internalType": "enum TransactionRegistry.RequestStatus",
              "name": "status",
              "type": "uint8"
            },
            {
              "internalType": "bool",
              "name": "isPaymentDone",
              "type": "bool"
            }
          ],
          "internalType": "struct TransactionRegistry.PurchaseRequest",
          "name": "",
          "type": "tuple"
        }
      ],
      "stateMutability": "view",
      "type": "function"
    },
    {
      "inputs": [
        {
          "internalType": "uint256",
          "name": "year",
          "type": "uint256"
        }
      ],
      "name": "getTotalVolume",
      "outputs": [
        {
          "internalType": "uint256",
          "name": "",
          "type": "uint256"
        }
      ],
      "stateMutability": "view",
      "type": "function"
    },
    {
      "inputs": [],
      "name": "getTransactionCount",
      "outputs": [
        {
          "internalType": "uint256",
          "name": "",
          "type": "uint256"
        }
      ],
      "stateMutability": "view",
      "type": "function"
    },
    {
      "inputs": [
        {
          "internalType": "address",
          "name": "user",
          "type": "address"
        }
      ],
      "name": "getUserPurchaseRequests",
      "outputs": [
        {
          "components": [
            {
              "internalType": "uint256",
              "name": "requestId",
              "type": "uint256"
            },
            {
              "internalType": "address payable",
              "name": "seller",
              "type": "address"
            },
            {
              "internalType": "address payable",
              "name": "buyer",
              "type": "address"
            },
            {
              "internalType": "uint256",
              "name": "landId",
              "type": "uint256"
            },
            {
              "internalType": "enum TransactionRegistry.RequestStatus",
              "name": "status",
              "type": "uint8"
            },
            {
              "internalType": "bool",
              "name": "isPaymentDone",
              "type": "bool"
            }
          ],
          "internalType": "struct TransactionRegistry.PurchaseRequest[]",
          "name": "",
          "type": "tuple[]"
        }
      ],
      "stateMutability": "view",
      "type": "function"
    },
    {
      "inputs": [
        {
          "internalType": "address",
          "name": "_user",
          "type": "address"
        },
        {
          "internalType": "uint256",
          "name": "page",
          "type": "uint256"
        },
        {
          "internalType": "uint256",
          "name": "pageSize",
          "type": "uint256"
        }
      ],
      "name": "getUserTransactionHistoryPage",
      "outputs": [
        {
          "components": [
            {
              "components": [
                {
                  "internalType": "uint256",
                  "name": "id",
                  "type": "uint256"
                },
                {
                  "internalType": "uint256",
                  "name": "landId",
                  "type": "uint256"
                },
                {
                  "internalType": "address",
                  "name": "from",
                  "type": "address"
                },
                {
                  "internalType": "address",
                  "name": "to",
                  "type": "address"
                },
                {
                  "internalType": "uint256",
                  "name": "amount",
                  "type": "uint256"
                },
                {
                  "internalType": "uint256",
                  "name": "timestamp",
                  "type": "uint256"
                },
                {
                  "internalType": "enum TransactionRegistry.TransactionType",
                  "name": "transactionType",
                  "type": "uint8"
                },
                {
                  "components": [
                    {
                      "internalType": "uint256",
                      "name": "id",
                      "type": "uint256"
                    },
                    {
                      "internalType": "uint256",
                      "name": "area",
                      "type": "uint256"
                    },
                    {
                      "internalType": "string",
                      "name": "location",
                      "type": "string"
                    },
                    {
                      "internalType": "uint256",
                      "name": "price",
                      "type": "uint256"
                    },
                    {
                      "internalType": "string",
                      "name": "coordinates",
                      "type": "string"
                    },
                    {
                      "internalType": "uint256",
                      "name": "propertyPID",
                      "type": "uint256"
                    },
                    {
                      "internalType": "string",
                      "name": "surveyNumber",
                      "type": "string"
                    },
                    {
                      "internalType": "bytes32",
                      "name": "documentHash",
                      "type": "bytes32"
                    },
                    {
                      "internalType": "bool",
                      "name": "isForSale",
                      "type": "bool"
                    },
                    {
                      "internalType": "address payable",
                      "name": "owner",
                      "type": "address"
                    },
                    {
                      "internalType": "bool",
                      "name": "isVerified",
                      "type": "bool"
                    },
                    {
                      "internalType": "string",
                      "name": "verificationRemark",
                      "type": "string"
                    }
                  ],
                  "internalType": "struct LandRegistry.Land",
                  "name": "land",
                  "type": "tuple"
                }
              ],
              "internalType": "struct TransactionRegistry.Transaction[]",
              "name": "transactions",
              "type": "tuple[]"
            },
            {
              "internalType": "uint256",
              "name": "totalPages",
              "type": "uint256"
            },
            {
              "internalType": "uint256",
              "name": "totalItems",
              "type": "uint256"
            }
          ],
          "internalType": "struct TransactionRegistry.TransactionPageResult",
          "name": "",
          "type": "tuple"
        }
      ],
      "stateMutability": "view",
      "type": "function"
    },
    {
      "inputs": [
        {
          "internalType": "address",
          "name": "_user",
          "type": "address"
        }
      ],
      "name": "getUserTransactionSummary",
      "outputs": [
        {
          "internalType": "uint256",
          "name": "total",
          "type": "uint256"
        },
        {
          "internalType": "uint256",
          "name": "pending",
          "type": "uint256"
        },
        {
          "internalType": "uint256",
          "name": "incoming",
          "type": "uint256"
        },
        {
          "internalType": "uint256",
          "name": "outgoing",
          "type": "uint256"
        }
      ],
      "stateMutability": "view",
      "type": "function"
    },
    {
      "inputs": [
        {
          "internalType": "address",
          "name": "",
          "type": "address"
        }
      ],
      "name": "inspectors",
      "outputs": [
        {
          "internalType": "uint256",
          "name": "id",
          "type": "uint256"
        },
        {
          "internalType": "string",
          "name": "name",
          "type": "string"
        },
        {
          "internalType": "uint256",
          "name": "age",
          "type": "uint256"
        },
        {
          "internalType": "string",
          "name": "designation",
          "type": "string"
        }
      ],
      "stateMutability": "view",
      "type": "function"
    },
    {
      "inputs": [
        {
          "internalType": "uint256",
          "name": "_requestId",
          "type": "uint256"
        }
      ],
      "name": "isRequestValid",
      "outputs": [
        {
          "internalType": "bool",
          "name": "",
          "type": "bool"
        }
      ],
      "stateMutability": "view",
      "type": "function"
    },
    {
      "inputs": [],
      "name": "landRegistry",
      "outputs": [
        {
          "internalType": "contract LandRegistry",
          "name": "",
          "type": "address"
        }
      ],
      "stateMutability": "view",
      "type": "function"
    },
    {
      "inputs": [
        {
          "internalType": "uint256",
          "name": "_requestId",
          "type": "uint256"
        }
      ],
      "name": "makePayment",
      "outputs": [],
      "stateMutability": "payable",
      "type": "function"
    },
    {
      "inputs": [],
      "name": "owner",
      "outputs": [
        {
          "internalType": "address",
          "name": "",
          "type": "address"
        }
      ],
      "stateMutability": "view",
      "type": "function"
    },
    {
      "inputs": [],
      "name": "pause",
      "outputs": [],
      "stateMutability": "nonpayable",
      "type": "function"
    },
    {
      "inputs": [],
      "name": "paused",
      "outputs": [
        {
          "internalType": "bool",
          "name": "",
          "type": "bool"
        }
      ],
      "stateMutability": "view",
      "type": "function"
    },
    {
      "inputs": [
        {
          "internalType": "address",
          "name": "",
          "type": "address"
        }
      ],
      "name": "pendingWithdrawals",
      "outputs": [
        {
          "internalType": "uint256",
          "name": "",
          "type": "uint256"
        }
      ],
      "stateMutability": "view",
      "type": "function"
    },
    {
      "inputs": [
        {
          "internalType": "uint256",
          "name": "_requestId",
          "type": "uint256"
        },
        {
          "internalType": "bool",
          "name": "_accept",
          "type": "bool"
        }
      ],
      "name": "processPurchaseRequest",
      "outputs": [],
      "stateMutability": "nonpayable",
      "type": "function"
    },
    {
      "inputs": [
        {
          "internalType": "uint256",
          "name": "",
          "type": "uint256"
        }
      ],
      "name": "purchaseRequests",
      "outputs": [
        {
          "internalType": "uint256",
          "name": "requestId",
          "type": "uint256"
        },
        {
          "internalType": "address payable",
          "name": "seller",
          "type": "address"
        },
        {
          "internalType": "address payable",
          "name": "buyer",
          "type": "address"
        },
        {
          "internalType": "uint256",
          "name": "landId",
          "type": "uint256"
        },
        {
          "internalType": "enum TransactionRegistry.RequestStatus",
          "name": "status",
          "type": "uint8"
        },
        {
          "internalType": "bool",
          "name": "isPaymentDone",
          "type": "bool"
        }
      ],
      "stateMutability": "view",
      "type": "function"
    },
    {
      "inputs": [
        {
          "internalType": "address",
          "name": "_inspector",
          "type": "address"
        }
      ],
      "name": "removeInspector",
      "outputs": [],
      "stateMutability": "nonpayable",
      "type": "function"
    },
    {
      "inputs": [
        {
          "internalType": "address",
          "name": "user",
          "type": "address"
        },
        {
          "internalType": "bytes32",
          "name": "role",
          "type": "bytes32"
        }
      ],
      "name": "revokeRole",
      "outputs": [],
      "stateMutability": "nonpayable",
      "type": "function"
    },
    {
      "inputs": [
        {
          "internalType": "address",
          "name": "newOwner",
          "type": "address"
        }
      ],
      "name": "transferOwnership",
      "outputs": [],
      "stateMutability": "nonpayable",
      "type": "function"
    },
    {
      "inputs": [],
      "name": "unpause",
      "outputs": [],
      "stateMutability": "nonpayable",
      "type": "function"
    },
    {
      "inputs": [],
      "name": "userRegistry",
      "outputs": [
        {
          "internalType": "contract UserRegistry",
          "name": "",
          "type": "address"
        }
      ],
      "stateMutability": "view",
      "type": "function"
    },
    {
      "inputs": [],
      "name": "withdraw",
      "outputs": [],
      "stateMutability": "nonpayable",
      "type": "function"
    }
  ],
  "bytecode": "0x60806040523480156200001157600080fd5b5060405162004cd138038062004cd18339810160408190526200003491620001ca565b600080546001600160a01b0319163390811782558082527f50efbde2d46c37e9785f1791697f77e94bb7b701e19f1930a668820722d376946020526040808320805460ff191660011790555190917fa49807205ce4d355092ef5a8a18f56e8913cf4a201fbe287825b095693c21775917f8122312829fb608b8d31c14e44cba6826748abddc350818605bfc69eb7ff38479190a36001600160a01b038116620001235760405162461bcd60e51b815260206004820152601c60248201527f496e76616c6964204c616e645265676973747279206164647265737300000000604482015260640160405180910390fd5b600b80546001600160a01b0319166001600160a01b03831690811790915560408051632e3a306b60e11b81529051635c7460d6916004808201926020929091908290030181865afa1580156200017d573d6000803e3d6000fd5b505050506040513d601f19601f82011682018060405250810190620001a39190620001ca565b600c80546001600160a01b0319166001600160a01b039290921691909117905550620001fc565b600060208284031215620001dd57600080fd5b81516001600160a01b0381168114620001f557600080fd5b9392505050565b614ac5806200020c6000396000f3fe6080604052600436106102255760003560e01c80637c70e79111610123578063c660b92c116100ab578063e8f7dfcf1161006f578063e8f7dfcf14610716578063ea9ba5d114610743578063f2fde38b14610758578063f3f4370314610778578063ffa1ad74146107a557600080fd5b8063c660b92c1461066f578063d366f18e1461068f578063d5dd1657146106af578063db2e21bc146106df578063e3a3c522146106f457600080fd5b80638903effe116100f25780638903effe146105c25780638da5cb5b146105e25780638e859d4814610602578063a8ec9d8d1461062f578063bd4dc0241461064f57600080fd5b80637c70e791146104f957806381ea8ba8146105195780638456cb5914610539578063887e74011461054e57600080fd5b80633ccfd60b116101b15780635c975abb116101755780635c975abb146104295780636512f1111461044a57806372e43e031461046a57806375b238fc146104975780637745e32c146104b957600080fd5b80633ccfd60b146103945780633f4ba83a146103a95780635114cb52146103be578063589112a4146103d15780635c7460d6146103f157600080fd5b80631d9486de116101f85780631d9486de146102f0578063208dd1ff1461031257806326ee3e84146103325780632e7700f0146103525780633198897d1461036757600080fd5b806312d9a6ad1461022a578063131191611461025f5780631893eae8146102a157806319cd5653146102c3575b600080fd5b34801561023657600080fd5b5061024a610245366004613d8e565b6107e3565b60405190151581526020015b60405180910390f35b34801561026b57600080fd5b506102937f14823911f2da1b49f045a0929a60b8c1f2a7fc8c06c7284ca3e8ab4e193a08c881565b604051908152602001610256565b3480156102ad57600080fd5b50610293600080516020614a1083398151915281565b3480156102cf57600080fd5b506102936102de366004613dbe565b60009081526009602052604090205490565b3480156102fc57600080fd5b5061031061030b366004613dd7565b610810565b005b34801561031e57600080fd5b5061031061032d366004613dd7565b61089a565b34801561033e57600080fd5b5061031061034d366004613e4f565b61097c565b34801561035e57600080fd5b50600454610293565b34801561037357600080fd5b50610387610382366004613ebb565b610a87565b6040516102569190613f52565b3480156103a057600080fd5b50610310610cbb565b3480156103b557600080fd5b50610310610e14565b6103106103cc366004613dbe565b610ef6565b3480156103dd57600080fd5b506103106103ec366004613dbe565b6112d0565b3480156103fd57600080fd5b50600c54610411906001600160a01b031681565b6040516001600160a01b039091168152602001610256565b34801561043557600080fd5b5060005461024a90600160a01b900460ff1681565b34801561045657600080fd5b5061024a610465366004613dbe565b61190a565b34801561047657600080fd5b5061048a610485366004613dbe565b611953565b6040516102569190613fa0565b3480156104a357600080fd5b50610293600080516020614a7083398151915281565b3480156104c557600080fd5b506104d96104d4366004613ebb565b6119fc565b604080519485526020850193909352918301526060820152608001610256565b34801561050557600080fd5b50610310610514366004613ebb565b611bd6565b34801561052557600080fd5b50610310610534366004613fbc565b611d9c565b34801561054557600080fd5b50610310611f98565b34801561055a57600080fd5b506105b0610569366004613dbe565b6005602052600090815260409020805460018201546002830154600384015460049094015492936001600160a01b0392831693929091169160ff8082169161010090041686565b60405161025696959493929190613fe1565b3480156105ce57600080fd5b506103106105dd366004614115565b612081565b3480156105ee57600080fd5b50600054610411906001600160a01b031681565b34801561060e57600080fd5b5061062261061d366004614195565b61237f565b6040516102569190614302565b34801561063b57600080fd5b5061031061064a366004613dbe565b61297d565b34801561065b57600080fd5b50600b54610411906001600160a01b031681565b34801561067b57600080fd5b5061038761068a3660046143ed565b612a73565b34801561069b57600080fd5b506103106106aa366004613ebb565b612ca5565b3480156106bb57600080fd5b506106cf6106ca366004613ebb565b612d7a565b6040516102569493929190614416565b3480156106eb57600080fd5b50610310612eb3565b34801561070057600080fd5b506102936000805160206149f083398151915281565b34801561072257600080fd5b50610736610731366004613ebb565b612fb5565b6040516102569190614452565b34801561074f57600080fd5b506102936131a4565b34801561076457600080fd5b50610310610773366004613ebb565b613354565b34801561078457600080fd5b50610293610793366004613ebb565b60086020526000908152604090205481565b3480156107b157600080fd5b506107d6604051806040016040528060058152602001640312e302e360dc1b81525081565b60405161025691906144a8565b60008281526001602090815260408083206001600160a01b038516845290915290205460ff165b92915050565b336000908152600080516020614a308339815191526020526040902054600080516020614a708339815191529060ff166108655760405162461bcd60e51b815260040161085c906144bb565b60405180910390fd5b6001600160a01b03831661088b5760405162461bcd60e51b815260040161085c906144fd565b61089582846133ff565b505050565b336000908152600080516020614a308339815191526020526040902054600080516020614a708339815191529060ff166108e65760405162461bcd60e51b815260040161085c906144bb565b6001600160a01b03831661090c5760405162461bcd60e51b815260040161085c906144fd565b60008281526001602090815260408083206001600160a01b038716845290915290205460ff166109725760405162461bcd60e51b8152602060048201526011602482015270149bdb19481b9bdd08185cdcda59db9959607a1b604482015260640161085c565b6108958284613515565b3360009081527f17ca9966e5fe2f32b4260d643d15b6dcb16466af05df3b2344aa97008e201a3c6020526040902054600080516020614a108339815191529060ff166109da5760405162461bcd60e51b815260040161085c906144bb565b83828114610a235760405162461bcd60e51b8152602060048201526016602482015275082e4e4c2f240d8cadccee8d0e640dad2e6dac2e8c6d60531b604482015260640161085c565b60005b81811015610a7e57610a76878783818110610a4357610a43614526565b90506020020135868684818110610a5c57610a5c614526565b9050602002016020810190610a71919061453c565b6135ac565b600101610a26565b50505050505050565b60606001600160a01b038216610aaf5760405162461bcd60e51b815260040161085c906144fd565b6001600160a01b038216600090815260066020908152604080832080548251818502810185019093528083529192909190830182828015610b0f57602002820191906000526020600020905b815481526020019060010190808311610afb575b505050505090506000815167ffffffffffffffff811115610b3257610b32614026565b604051908082528060200260200182016040528015610b6b57816020015b610b58613c14565b815260200190600190039081610b505790505b5090506000805b8351811015610cb157600060056000868481518110610b9357610b93614526565b6020908102919091018101518252818101929092526040908101600020815160c0810183528154815260018201546001600160a01b039081169482019490945260028201549093169183019190915260038101546060830152600480820154608084019160ff90911690811115610c0c57610c0c613ed8565b6004811115610c1d57610c1d613ed8565b815260049190910154610100900460ff16151560209091015260408101519091506001600160a01b0388811691161480610c6c5750866001600160a01b031681602001516001600160a01b0316145b15610c9e5780848481518110610c8457610c84614526565b60200260200101819052508280610c9a9061456f565b9350505b5080610ca98161456f565b915050610b72565b5081529392505050565b600054600160a81b900460ff1615610d065760405162461bcd60e51b815260206004820152600e60248201526d1499595b9d1c985b9d0818d85b1b60921b604482015260640161085c565b6000805460ff60a81b1916600160a81b1781553381526008602052604090205480610d6a5760405162461bcd60e51b81526020600482015260146024820152734e6f2066756e647320746f20776974686472617760601b604482015260640161085c565b336000818152600860205260408082208290555190919083908381818185875af1925050503d8060008114610dbb576040519150601f19603f3d011682016040523d82523d6000602084013e610dc0565b606091505b5050905080610e035760405162461bcd60e51b815260206004820152600f60248201526e151c985b9cd9995c8819985a5b1959608a1b604482015260640161085c565b50506000805460ff60a81b19169055565b336000908152600080516020614a308339815191526020526040902054600080516020614a708339815191529060ff16610e605760405162461bcd60e51b815260040161085c906144bb565b600054600160a01b900460ff16610eb25760405162461bcd60e51b815260206004820152601660248201527510dbdb9d1c9858dd081a5cc81b9bdd081c185d5cd95960521b604482015260640161085c565b6000805460ff60a01b191690556040513381527f5db9ee0a495bf2e6ff9c91a7834c1ba4fdd244a5e8aa4e537bd38aeae4b073aa906020015b60405180910390a150565b600054600160a81b900460ff1615610f415760405162461bcd60e51b815260206004820152600e60248201526d1499595b9d1c985b9d0818d85b1b60921b604482015260640161085c565b6000805460ff60a81b1916600160a81b17815581815260056020526040902060028101546001600160a01b03163314610fac5760405162461bcd60e51b815260206004820152600d60248201526c2737ba103a343290313abcb2b960991b604482015260640161085c565b600160048083015460ff1690811115610fc757610fc7613ed8565b1461100b5760405162461bcd60e51b815260206004820152601460248201527314995c5d595cdd081b9bdd081858d8d95c1d195960621b604482015260640161085c565b6004810154610100900460ff16156110545760405162461bcd60e51b815260206004820152600c60248201526b105b1c9958591e481c185a5960a21b604482015260640161085c565b600b5460038201546040516397e8e80760e01b815260048101919091526000916001600160a01b0316906397e8e80790602401602060405180830381865afa1580156110a4573d6000803e3d6000fd5b505050506040513d601f19601f820116820180604052508101906110c89190614588565b90508034146111195760405162461bcd60e51b815260206004820152601860248201527f496e636f7272656374207061796d656e7420616d6f756e740000000000000000604482015260640161085c565b60048201805461ffff191661010417905560018201546001600160a01b0316600090815260086020526040812080543492906111569084906145a1565b9091555050600b5460038301546002840154604051633f832df760e21b8152600481018390526001600160a01b03938416936345fb122593921690849063fe0cb7dc90602401600060405180830381865afa1580156111b9573d6000803e3d6000fd5b505050506040513d6000823e601f3d908101601f191682016040526111e1919081019061461c565b60e001516040518463ffffffff1660e01b815260040161121d939291909283526001600160a01b03919091166020830152604082015260600190565b600060405180830381600087803b15801561123757600080fd5b505af115801561124b573d6000803e3d6000fd5b5050505082600080516020614a50833981519152600460405161126e9190614762565b60405180910390a26002820154600183015460038401546040516001600160a01b0393841693909216917fa3b0b9020f88aba79dc7d52f5e1da8502bcea42c242b02d2144b71b2de7f049590600090a450506000805460ff60a81b1916905550565b336113165760405162461bcd60e51b8152602060048201526016602482015275496e76616c69642073656e646572206164647265737360501b604482015260640161085c565b600c54604051630b1fba9160e11b81523360048201526001600160a01b039091169063163f752290602401602060405180830381865afa15801561135e573d6000803e3d6000fd5b505050506040513d601f19601f820116820180604052508101906113829190614770565b80156114655750600c54604080516303127d5d60e31b815290516001600160a01b03909216916391d14854918391631893eae8916004808201926020929091908290030181865afa1580156113db573d6000803e3d6000fd5b505050506040513d601f19601f820116820180604052508101906113ff9190614588565b6040516001600160e01b031960e084901b1681526004810191909152336024820152604401602060405180830381865afa158015611441573d6000803e3d6000fd5b505050506040513d601f19601f820116820180604052508101906114659190614770565b6114a55760405162461bcd60e51b8152602060048201526011602482015270155cd95c881b9bdd081d995c9a599a5959607a1b604482015260640161085c565b600b54604051630d97ed9f60e31b8152600481018390526001600160a01b0390911690636cbf6cf890602401602060405180830381865afa1580156114ee573d6000803e3d6000fd5b505050506040513d601f19601f820116820180604052508101906115129190614770565b6115525760405162461bcd60e51b815260206004820152601160248201527013185b99081b9bdd081d995c9a599a5959607a1b604482015260640161085c565b600b5460405163c7751bab60e01b8152600481018390526001600160a01b039091169063c7751bab90602401602060405180830381865afa15801561159b573d6000803e3d6000fd5b505050506040513d601f19601f820116820180604052508101906115bf9190614770565b6115ff5760405162461bcd60e51b81526020600482015260116024820152704c616e64206e6f7420666f722073616c6560781b604482015260640161085c565b600b54604051631869a38b60e01b8152600481018390526000916001600160a01b031690631869a38b90602401602060405180830381865afa158015611649573d6000803e3d6000fd5b505050506040513d601f19601f8201168201806040525081019061166d919061478d565b9050336001600160a01b038216036116bd5760405162461bcd60e51b815260206004820152601360248201527210d85b9b9bdd08189d5e481bdddb881b185b99606a1b604482015260640161085c565b6001600160a01b0381166117085760405162461bcd60e51b815260206004820152601260248201527124b73b30b634b2103630b7321037bbb732b960711b604482015260640161085c565b600480549060006117188361456f565b919050555060006040518060c001604052806004548152602001836001600160a01b03168152602001336001600160a01b031681526020018481526020016000600481111561176957611769613ed8565b815260006020918201819052600480548252600583526040918290208451815592840151600184810180546001600160a01b039384166001600160a01b03199182161790915593860151600286018054919093169416939093179055606084015160038401556080840151838201805495965086959193909260ff199092169184908111156117fa576117fa613ed8565b021790555060a09190910151600491820180549115156101000261ff0019909216919091179055336000818152600660209081526040808320855481546001818101845592865284862001556001600160a01b03881684529083209454855491820186559483529082200192909255611876918490869061363a565b6004546040518481527f0f5b4a801cb6910b7e323999cd519782f111a156af8311f1966d56cd49e15a769060200160405180910390a2600454604051339185917f5bde53e03336db020651806eb0142b599cd5d4e0158ecbe88d22c7774a63a39290600090a4600454600080516020614a5083398151915260006040516118fd9190614762565b60405180910390a2505050565b6000818152600560205260408120805483148015611934575060028101546001600160a01b031615155b801561194c575060018101546001600160a01b031615155b9392505050565b61195b613c14565b600082815260056020908152604091829020825160c0810184528154815260018201546001600160a01b039081169382019390935260028201549092169282019290925260038201546060820152600480830154919291608084019160ff909116908111156119cc576119cc613ed8565b60048111156119dd576119dd613ed8565b815260049190910154610100900460ff16151560209091015292915050565b600080600080600060066000876001600160a01b03166001600160a01b03168152602001908152602001600020805480602002602001604051908101604052809291908181526020018280548015611a7357602002820191906000526020600020905b815481526020019060010190808311611a5f575b5050505050905060005b8151811015611bcd57600060056000848481518110611a9e57611a9e614526565b602002602001015181526020019081526020016000209050600480811115611ac857611ac8613ed8565b60048083015460ff1690811115611ae157611ae1613ed8565b14611bba5760018101546001600160a01b03808a16911603611b3957600060048083015460ff1690811115611b1857611b18613ed8565b03611b2b5784611b278161456f565b9550505b86611b358161456f565b9750505b60028101546001600160a01b03808a16911603611b8c57600060048083015460ff1690811115611b6b57611b6b613ed8565b03611b7e5783611b7a8161456f565b9450505b86611b888161456f565b9750505b600060048083015460ff1690811115611ba757611ba7613ed8565b03611bba5785611bb68161456f565b9650505b5080611bc58161456f565b915050611a7d565b50509193509193565b6000546001600160a01b03163314611c005760405162461bcd60e51b815260040161085c906147aa565b6001600160a01b038116611c525760405162461bcd60e51b8152602060048201526019602482015278496e76616c696420696e73706563746f72206164647265737360381b604482015260640161085c565b6001600160a01b0381166000908152600260205260408120549003611cb45760405162461bcd60e51b8152602060048201526018602482015277125b9cdc1958dd1bdc88191bd95cc81b9bdd08195e1a5cdd60421b604482015260640161085c565b6001600160a01b0381166000908152600260205260408120805482825591611cdf6001830182613c4a565b6002820160009055600382016000611cf79190613c4a565b5050611d116000805160206149f083398151915283613515565b816001600160a01b03167ff4d26249e2d6402f768ccb0c52cb35f2df31dae16a7ba6518812c1f8db9c034e82604051611d4c91815260200190565b60405180910390a26040516001600160a01b038316906000805160206149f0833981519152907f155aaafb6329a2098580462df33ec4b7441b19729b9601c5fc17ae1cf99a8a5290600090a35050565b336001600160a01b0316827fa639b1f8842e1fc239cf2e3a4bf33eafae30240e7027c25fcc6473944a671dba6000604051611dd791906147d1565b60405180910390a360008281526005602052604081209060048083015460ff1690811115611e0757611e07613ed8565b14611e4a5760405162461bcd60e51b815260206004820152601360248201527252657175657374206e6f742070656e64696e6760681b604482015260640161085c565b60018101546001600160a01b03163314611e975760405162461bcd60e51b815260206004820152600e60248201526d139bdd08185d5d1a1bdc9a5e995960921b604482015260640161085c565b600082611ea5576002611ea8565b60015b9050808260040160006101000a81548160ff02191690836004811115611ed057611ed0613ed8565b021790555033847fa639b1f8842e1fc239cf2e3a4bf33eafae30240e7027c25fcc6473944a671dba85611f2b576040518060400160405280601081526020016f1c995c5d595cdd17dc995a9958dd195960821b815250611f55565b6040518060400160405280601081526020016f1c995c5d595cdd17d858d8d95c1d195960821b8152505b84604051611f64929190614803565b60405180910390a383600080516020614a5083398151915282604051611f8a9190614762565b60405180910390a250505050565b336000908152600080516020614a308339815191526020526040902054600080516020614a708339815191529060ff16611fe45760405162461bcd60e51b815260040161085c906144bb565b600054600160a01b900460ff161561203e5760405162461bcd60e51b815260206004820152601a60248201527f436f6e747261637420697320616c726561647920706175736564000000000000604482015260640161085c565b6000805460ff60a01b1916600160a01b1790556040513381527f62e78cea01bee320cd4e420270b5ea74000d11b0c9f74754ebdbfc544b05a25890602001610eeb565b6000546001600160a01b031633146120ab5760405162461bcd60e51b815260040161085c906147aa565b6001600160a01b0384166120fd5760405162461bcd60e51b8152602060048201526019602482015278496e76616c696420696e73706563746f72206164647265737360381b604482015260640161085c565b601282101561214e5760405162461bcd60e51b815260206004820152601a60248201527f496e73706563746f72206d75737420626520616e206164756c74000000000000604482015260640161085c565b60008351116121965760405162461bcd60e51b81526020600482015260146024820152734e616d652063616e6e6f7420626520656d70747960601b604482015260640161085c565b60008151116121e75760405162461bcd60e51b815260206004820152601b60248201527f44657369676e6174696f6e2063616e6e6f7420626520656d7074790000000000604482015260640161085c565b6001600160a01b0384166000908152600260205260409020541561224d5760405162461bcd60e51b815260206004820152601860248201527f496e73706563746f7220616c7265616479206578697374730000000000000000604482015260640161085c565b6003805490600061225d8361456f565b90915550506040805160808101825260035481526020808201868152828401869052606083018590526001600160a01b0388166000908152600290925292902081518155915190919060018201906122b590826148ad565b5060408201516002820155606082015160038201906122d490826148ad565b509050506122f06000805160206149f0833981519152856133ff565b836001600160a01b03167f99ec83913a9d9b79baf37f57157bc50784ba372a64a793df8c821767a2e1bb6b60035460405161232d91815260200190565b60405180910390a26040516001600160a01b038516906000805160206149f0833981519152907f8122312829fb608b8d31c14e44cba6826748abddc350818605bfc69eb7ff384790600090a350505050565b6123a360405180606001604052806060815260200160008152602001600081525090565b6123d98460405180604001604052806014815260200173496e76616c69642075736572206164647265737360601b815250613aef565b6001600160a01b03841660009081526007602052604081208054909181900361244f57604080516000606082018181526080830190935290918291612434565b612421613c87565b8152602001906001900390816124195790505b5081526020016000815260200160008152509250505061194c565b60008061245d878785613b17565b9092509050600086600161247182876145a1565b61247b919061496d565b6124859190614980565b905060008267ffffffffffffffff8111156124a2576124a2614026565b6040519080825280602002602001820160405280156124db57816020015b6124c8613c87565b8152602001906001900390816124c05790505b50905060005b8381101561295257866124f482876145a1565b8154811061250457612504614526565b6000918252602091829020604080516101008101825260119093029091018054835260018101549383019390935260028301546001600160a01b0390811691830191909152600380840154909116606083015260048301546080830152600583015460a0830152600683015491929160c084019160ff9091169081111561258d5761258d613ed8565b600381111561259e5761259e613ed8565b8152602001600782016040518061018001604052908160008201548152602001600182015481526020016002820180546125d790614825565b80601f016020809104026020016040519081016040528092919081815260200182805461260390614825565b80156126505780601f1061262557610100808354040283529160200191612650565b820191906000526020600020905b81548152906001019060200180831161263357829003601f168201915b505050505081526020016003820154815260200160048201805461267390614825565b80601f016020809104026020016040519081016040528092919081815260200182805461269f90614825565b80156126ec5780601f106126c1576101008083540402835291602001916126ec565b820191906000526020600020905b8154815290600101906020018083116126cf57829003601f168201915b505050505081526020016005820154815260200160068201805461270f90614825565b80601f016020809104026020016040519081016040528092919081815260200182805461273b90614825565b80156127885780601f1061275d57610100808354040283529160200191612788565b820191906000526020600020905b81548152906001019060200180831161276b57829003601f168201915b505050918352505060078201546020820152600882015460ff808216151560408401526001600160a01b036101008304166060840152600160a81b909104161515608082015260098201805460a0909201916127e390614825565b80601f016020809104026020016040519081016040528092919081815260200182805461280f90614825565b801561285c5780601f106128315761010080835404028352916020019161285c565b820191906000526020600020905b81548152906001019060200180831161283f57829003601f168201915b5050505050815250508152505082828151811061287b5761287b614526565b6020908102919091010152600b5482516001600160a01b039091169063fe0cb7dc908490849081106128af576128af614526565b6020026020010151602001516040518263ffffffff1660e01b81526004016128d991815260200190565b600060405180830381865afa1580156128f6573d6000803e3d6000fd5b505050506040513d6000823e601f3d908101601f1916820160405261291e919081019061461c565b82828151811061293057612930614526565b602002602001015160e00181905250808061294a9061456f565b9150506124e1565b5060405180606001604052808281526020018381526020018681525096505050505050509392505050565b600081815260056020526040902060028101546001600160a01b031633146129d75760405162461bcd60e51b815260206004820152600d60248201526c2737ba103a343290313abcb2b960991b604482015260640161085c565b600060048083015460ff16908111156129f2576129f2613ed8565b14612a355760405162461bcd60e51b815260206004820152601360248201527252657175657374206e6f742070656e64696e6760681b604482015260640161085c565b60048101805460ff1916600217905560405182907fbac553b274d773b8809774cce8796d4094b850a45f14052502c22ab98610af6e90600090a25050565b6060600060015b6004548111612afe5760008181526005602052604090206003015485148015612ad95750836004811115612ab057612ab0613ed8565b600082815260056020526040902060049081015460ff1690811115612ad757612ad7613ed8565b145b15612aec5781612ae88161456f565b9250505b80612af68161456f565b915050612a7a565b5060008167ffffffffffffffff811115612b1a57612b1a614026565b604051908082528060200260200182016040528015612b5357816020015b612b40613c14565b815260200190600190039081612b385790505b509050600060015b6004548111612c9a5760008181526005602052604090206003015487148015612bba5750856004811115612b9157612b91613ed8565b600082815260056020526040902060049081015460ff1690811115612bb857612bb8613ed8565b145b15612c8857600081815260056020908152604091829020825160c0810184528154815260018201546001600160a01b039081169382019390935260028201549092169282019290925260038201546060820152600480830154919291608084019160ff90911690811115612c3057612c30613ed8565b6004811115612c4157612c41613ed8565b815260049190910154610100900460ff1615156020909101528351849084908110612c6e57612c6e614526565b60200260200101819052508180612c849061456f565b9250505b80612c928161456f565b915050612b5b565b509095945050505050565b604051631dd178cb60e21b81526001600160a01b03821660048201526000908190819081903090637745e32c90602401608060405180830381865afa158015612cf2573d6000803e3d6000fd5b505050506040513d601f19601f82011682018060405250810190612d1691906149a2565b604080518581526020810185905290810183905260608101829052939750919550935091506001600160a01b038616907f90f7588ec65c7f86e339455a59758430e2e9badc1dbd87edc7aaf0d76a708f9b9060800160405180910390a25050505050565b60026020526000908152604090208054600182018054919291612d9c90614825565b80601f0160208091040260200160405190810160405280929190818152602001828054612dc890614825565b8015612e155780601f10612dea57610100808354040283529160200191612e15565b820191906000526020600020905b815481529060010190602001808311612df857829003601f168201915b505050505090806002015490806003018054612e3090614825565b80601f0160208091040260200160405190810160405280929190818152602001828054612e5c90614825565b8015612ea95780601f10612e7e57610100808354040283529160200191612ea9565b820191906000526020600020905b815481529060010190602001808311612e8c57829003601f168201915b5050505050905084565b6000546001600160a01b03163314612edd5760405162461bcd60e51b815260040161085c906147aa565b600054600160a01b900460ff16612f365760405162461bcd60e51b815260206004820152601760248201527f436f6e7472616374206d75737420626520706175736564000000000000000000604482015260640161085c565b6000805460405147926001600160a01b039092169183156108fc02918491818181858888f19350505050158015612f71573d6000803e3d6000fd5b50600054604080516001600160a01b039092168252602082018390527f23d6711a1d031134a36921253c75aa59e967d38e369ac625992824315e204f209101610eeb565b612fe06040518060800160405280600081526020016060815260200160008152602001606081525090565b6001600160a01b03821660009081526002602052604081205490036130425760405162461bcd60e51b8152602060048201526018602482015277125b9cdc1958dd1bdc88191bd95cc81b9bdd08195e1a5cdd60421b604482015260640161085c565b6001600160a01b03821660009081526002602090815260409182902082516080810190935280548352600181018054919284019161307f90614825565b80601f01602080910402602001604051908101604052809291908181526020018280546130ab90614825565b80156130f85780601f106130cd576101008083540402835291602001916130f8565b820191906000526020600020905b8154815290600101906020018083116130db57829003601f168201915b505050505081526020016002820154815260200160038201805461311b90614825565b80601f016020809104026020016040519081016040528092919081815260200182805461314790614825565b80156131945780601f1061316957610100808354040283529160200191613194565b820191906000526020600020905b81548152906001019060200180831161317757829003601f168201915b5050505050815250509050919050565b6000808060015b600b60009054906101000a90046001600160a01b03166001600160a01b0316635ceaa7696040518163ffffffff1660e01b8152600401602060405180830381865afa1580156131fe573d6000803e3d6000fd5b505050506040513d601f19601f820116820180604052508101906132229190614588565b811161333357600b54604051630d97ed9f60e31b8152600481018390526001600160a01b0390911690636cbf6cf890602401602060405180830381865afa158015613271573d6000803e3d6000fd5b505050506040513d601f19601f820116820180604052508101906132959190614770565b1561332157600b546040516397e8e80760e01b8152600481018390526001600160a01b03909116906397e8e80790602401602060405180830381865afa1580156132e3573d6000803e3d6000fd5b505050506040513d601f19601f820116820180604052508101906133079190614588565b61331190846145a1565b92508161331d8161456f565b9250505b8061332b8161456f565b9150506131ab565b506000811161334357600061334d565b61334d8183614980565b9250505090565b6000546001600160a01b0316331461337e5760405162461bcd60e51b815260040161085c906147aa565b6001600160a01b0381166133a45760405162461bcd60e51b815260040161085c906144fd565b600080546040516001600160a01b03808516939216917f8be0079c531659141344cd1fd0a4f28419497f9722a3daafe3b4186f6b6457e091a3600080546001600160a01b0319166001600160a01b0392909216919091179055565b6001600160a01b0381166134255760405162461bcd60e51b815260040161085c906144fd565b600080516020614a1083398151915282036134b8576001600160a01b03811660009081527f42e0c820bcf782f2ae6b6ee3a83da7173685bb3cc1699ae87c54d87ed5da0f52602052604090205460ff166134b85760405162461bcd60e51b81526020600482015260146024820152734d757374206861766520626173696320726f6c6560601b604482015260640161085c565b60008281526001602081815260408084206001600160a01b0386168086529252808420805460ff19169093179092559051909184917f8122312829fb608b8d31c14e44cba6826748abddc350818605bfc69eb7ff38479190a35050565b7f14823911f2da1b49f045a0929a60b8c1f2a7fc8c06c7284ca3e8ab4e193a08c8820361355457613554600080516020614a1083398151915282613515565b60008281526001602090815260408083206001600160a01b0385168085529252808320805460ff1916905551909184917f155aaafb6329a2098580462df33ec4b7441b19729b9601c5fc17ae1cf99a8a529190a35050565b60008281526005602052604081209060048083015460ff16908111156135d4576135d4613ed8565b146135de57505050565b6000826135ec5760026135ef565b60015b9050808260040160006101000a81548160ff0219169083600481111561361757613617613ed8565b021790555083600080516020614a5083398151915282604051611f8a9190614762565b600b54604051633f832df760e21b8152600481018490526000916001600160a01b03169063fe0cb7dc90602401600060405180830381865afa158015613684573d6000803e3d6000fd5b505050506040513d6000823e601f3d908101601f191682016040526136ac919081019061461c565b6001600160a01b038616600090815260076020526040908190208151610100810190925280549293509181906136e39060016145a1565b8152602001858152602001876001600160a01b03168152602001866001600160a01b031681526020016000815260200142815260200184600381111561372b5761372b613ed8565b815260209081018490528254600180820185556000948552938290208351601190920201908155908201518184015560408201516002820180546001600160a01b03199081166001600160a01b0393841617909155606084015160038085018054909316919093161790556080830151600483015560a0830151600583015560c0830151600683018054949593949193909260ff199092169184908111156137d5576137d5613ed8565b021790555060e0820151805160078301908155602082015160088401556040820151600984019061380690826148ad565b50606082015160038201556080820151600482019061382590826148ad565b5060a0820151600582015560c0820151600682019061384490826148ad565b5060e08201516007820155610100808301516008830180546101208601516101408701516001600160a81b0319909216931515610100600160a81b031916939093176001600160a01b039093169093029190911760ff60a81b1916600160a81b9215159290920291909117905561016082015160098201906138c690826148ad565b505050506001600160a01b0385166000908152600760205260409081902081516101008101909252805490925081906139009060016145a1565b8152602001858152602001876001600160a01b03168152602001866001600160a01b031681526020016000815260200142815260200184600381111561394857613948613ed8565b815260209081018490528254600180820185556000948552938290208351601190920201908155908201518184015560408201516002820180546001600160a01b03199081166001600160a01b0393841617909155606084015160038085018054909316919093161790556080830151600483015560a0830151600583015560c0830151600683018054949593949193909260ff199092169184908111156139f2576139f2613ed8565b021790555060e08201518051600783019081556020820151600884015560408201516009840190613a2390826148ad565b506060820151600382015560808201516004820190613a4290826148ad565b5060a0820151600582015560c08201516006820190613a6190826148ad565b5060e08201516007820155610100808301516008830180546101208601516101408701516001600160a81b0319909216931515610100600160a81b031916939093176001600160a01b039093169093029190911760ff60a81b1916600160a81b921515929092029190911790556101608201516009820190613ae390826148ad565b50505050505050505050565b806001600160a01b0383166108955760405162461bcd60e51b815260040161085c91906144a8565b60008083600003613b5f576040516304e0bc2760e11b8152602060048201526011602482015270496e76616c696420706167652073697a6560781b604482015260640161085c565b82600003613b7257506000905080613c0c565b6000846001613b8182876145a1565b613b8b919061496d565b613b959190614980565b9050808610613bdc576040516304e0bc2760e11b815260206004820152601260248201527150616765206f7574206f6620626f756e647360701b604482015260640161085c565b613be685876149d8565b925083613bf386856145a1565b11613bfe5784613c08565b613c08838561496d565b9150505b935093915050565b6040805160c081018252600080825260208201819052918101829052606081018290529060808201908152600060209091015290565b508054613c5690614825565b6000825580601f10613c66575050565b601f016020900490600052602060002090810190613c849190613d60565b50565b604051806101000160405280600081526020016000815260200160006001600160a01b0316815260200160006001600160a01b03168152602001600081526020016000815260200160006003811115613ce257613ce2613ed8565b8152602001613d5b604051806101800160405280600081526020016000815260200160608152602001600081526020016060815260200160008152602001606081526020016000801916815260200160001515815260200160006001600160a01b03168152602001600015158152602001606081525090565b905290565b5b80821115613d755760008155600101613d61565b5090565b6001600160a01b0381168114613c8457600080fd5b60008060408385031215613da157600080fd5b823591506020830135613db381613d79565b809150509250929050565b600060208284031215613dd057600080fd5b5035919050565b60008060408385031215613dea57600080fd5b8235613df581613d79565b946020939093013593505050565b60008083601f840112613e1557600080fd5b50813567ffffffffffffffff811115613e2d57600080fd5b6020830191508360208260051b8501011115613e4857600080fd5b9250929050565b60008060008060408587031215613e6557600080fd5b843567ffffffffffffffff80821115613e7d57600080fd5b613e8988838901613e03565b90965094506020870135915080821115613ea257600080fd5b50613eaf87828801613e03565b95989497509550505050565b600060208284031215613ecd57600080fd5b813561194c81613d79565b634e487b7160e01b600052602160045260246000fd5b60058110613efe57613efe613ed8565b9052565b80518252602081015160018060a01b0380821660208501528060408401511660408501525050606081015160608301526080810151613f446080840182613eee565b5060a0908101511515910152565b6020808252825182820181905260009190848201906040850190845b81811015613f9457613f81838551613f02565b9284019260c09290920191600101613f6e565b50909695505050505050565b60c0810161080a8284613f02565b8015158114613c8457600080fd5b60008060408385031215613fcf57600080fd5b823591506020830135613db381613fae565b8681526001600160a01b038681166020830152851660408201526060810184905260c081016140136080830185613eee565b82151560a0830152979650505050505050565b634e487b7160e01b600052604160045260246000fd5b604051610180810167ffffffffffffffff8111828210171561406057614060614026565b60405290565b604051601f8201601f1916810167ffffffffffffffff8111828210171561408f5761408f614026565b604052919050565b600067ffffffffffffffff8211156140b1576140b1614026565b50601f01601f191660200190565b600082601f8301126140d057600080fd5b81356140e36140de82614097565b614066565b8181528460208386010111156140f857600080fd5b816020850160208301376000918101602001919091529392505050565b6000806000806080858703121561412b57600080fd5b843561413681613d79565b9350602085013567ffffffffffffffff8082111561415357600080fd5b61415f888389016140bf565b945060408701359350606087013591508082111561417c57600080fd5b50614189878288016140bf565b91505092959194509250565b6000806000606084860312156141aa57600080fd5b83356141b581613d79565b95602085013595506040909401359392505050565b60048110613efe57613efe613ed8565b60005b838110156141f55781810151838201526020016141dd565b50506000910152565b600081518084526142168160208601602086016141da565b601f01601f19169290920160200192915050565b600061018082518452602083015160208501526040830151816040860152614254828601826141fe565b915050606083015160608501526080830151848203608086015261427882826141fe565b91505060a083015160a085015260c083015184820360c086015261429c82826141fe565b91505060e083015160e0850152610100808401516142bd8287018215159052565b5050610120838101516001600160a01b0316908501526101408084015115159085015261016080840151858303828701526142f883826141fe565b9695505050505050565b60006020808352608080840185516060808588015282825180855260a094508489019150848160051b8a0101878501945060005b828110156143cb578a8203609f19018452855180518352898101518a8401526040808201516001600160a01b03908116918501919091528682015116868401528881015189840152878101518884015260c080820151610100919061439d828701826141ca565b505060e0918201519184018190526143b78482018361422a565b978b0197958b019593505050600101614336565b50968a015160408a810191909152909901519190970152509195945050505050565b6000806040838503121561440057600080fd5b82359150602083013560058110613db357600080fd5b84815260806020820152600061442f60808301866141fe565b846040840152828103606084015261444781856141fe565b979650505050505050565b6020815281516020820152600060208301516080604084015261447860a08401826141fe565b9050604084015160608401526060840151601f1984830301608085015261449f82826141fe565b95945050505050565b60208152600061194c60208301846141fe565b60208082526022908201527f43616c6c657220646f6573206e6f74206861766520726571756972656420726f6040820152616c6560f01b606082015260800190565b6020808252600f908201526e496e76616c6964206164647265737360881b604082015260600190565b634e487b7160e01b600052603260045260246000fd5b60006020828403121561454e57600080fd5b813561194c81613fae565b634e487b7160e01b600052601160045260246000fd5b60006001820161458157614581614559565b5060010190565b60006020828403121561459a57600080fd5b5051919050565b8082018082111561080a5761080a614559565b600082601f8301126145c557600080fd5b81516145d36140de82614097565b8181528460208386010111156145e857600080fd5b6145f98260208301602087016141da565b949350505050565b805161460c81613fae565b919050565b805161460c81613d79565b60006020828403121561462e57600080fd5b815167ffffffffffffffff8082111561464657600080fd5b90830190610180828603121561465b57600080fd5b61466361403c565b825181526020830151602082015260408301518281111561468357600080fd5b61468f878286016145b4565b604083015250606083015160608201526080830151828111156146b157600080fd5b6146bd878286016145b4565b60808301525060a083015160a082015260c0830151828111156146df57600080fd5b6146eb878286016145b4565b60c08301525060e083015160e0820152610100614709818501614601565b9082015261012061471b848201614611565b9082015261014061472d848201614601565b90820152610160838101518381111561474557600080fd5b614751888287016145b4565b918301919091525095945050505050565b6020810161080a8284613eee565b60006020828403121561478257600080fd5b815161194c81613fae565b60006020828403121561479f57600080fd5b815161194c81613d79565b6020808252600d908201526c2737ba103a34329037bbb732b960991b604082015260600190565b6040808252600d908201526c1c1c9bd8d95cdcd7dcdd185c9d609a1b60608201526080810161080a6020830184613eee565b60408152600061481660408301856141fe565b905061194c6020830184613eee565b600181811c9082168061483957607f821691505b60208210810361485957634e487b7160e01b600052602260045260246000fd5b50919050565b601f82111561089557600081815260208120601f850160051c810160208610156148865750805b601f850160051c820191505b818110156148a557828155600101614892565b505050505050565b815167ffffffffffffffff8111156148c7576148c7614026565b6148db816148d58454614825565b8461485f565b602080601f83116001811461491057600084156148f85750858301515b600019600386901b1c1916600185901b1785556148a5565b600085815260208120601f198616915b8281101561493f57888601518255948401946001909101908401614920565b508582101561495d5787850151600019600388901b60f8161c191681555b5050505050600190811b01905550565b8181038181111561080a5761080a614559565b60008261499d57634e487b7160e01b600052601260045260246000fd5b500490565b600080600080608085870312156149b857600080fd5b505082516020840151604085015160609095015191969095509092509050565b808202811582820484141761080a5761080a61455956fe273dcf2136c7d8ef632bb8ef13dbca69a8f36fa620c7468671b3153d46a211c02ea52e8a0f8c1b6d1df1c2d3360b2e65af84e6442f1590d354ba73e1efac67c150efbde2d46c37e9785f1791697f77e94bb7b701e19f1930a668820722d376944174dda4135fb1df4e46301b4c0ca8b925e1cbe7839b10aac771f93d9fefa6f6a49807205ce4d355092ef5a8a18f56e8913cf4a201fbe287825b095693c21775a26469706673582212207ac8d7d2733b6a73df69c2ca0ed91bbfefb4f91f533d4ca0008aed43174ff2df64736f6c63430008130033",
  "linkReferences": {},
  "deployedLinkReferences": {}
}