{
  "_format": "hh-sol-artifact-1",
  "contractName": "TransactionRegistry",
  "sourceName": "contracts/TransactionRegistry.sol",
  "abi": [
    {
      "inputs": [
        {
          "internalType": "address",
          "name": "_landRegistry",
          "type": "address"
        }
      ],
      "stateMutability": "nonpayable",
      "type": "constructor"
    },
    {
      "inputs": [
        {
          "internalType": "string",
          "name": "message",
          "type": "string"
        }
      ],
      "name": "InvalidPagination",
      "type": "error"
    },
    {
      "inputs": [
        {
          "internalType": "string",
          "name": "message",
          "type": "string"
        }
      ],
      "name": "UnauthorizedAccess",
      "type": "error"
    },
    {
      "inputs": [
        {
          "internalType": "string",
          "name": "message",
          "type": "string"
        }
      ],
      "name": "ValidationError",
      "type": "error"
    },
    {
      "anonymous": false,
      "inputs": [
        {
          "indexed": false,
          "internalType": "address",
          "name": "owner",
          "type": "address"
        },
        {
          "indexed": false,
          "internalType": "uint256",
          "name": "amount",
          "type": "uint256"
        }
      ],
      "name": "EmergencyWithdrawal",
      "type": "event"
    },
    {
      "anonymous": false,
      "inputs": [
        {
          "indexed": true,
          "internalType": "address",
          "name": "inspector",
          "type": "address"
        },
        {
          "indexed": false,
          "internalType": "uint256",
          "name": "id",
          "type": "uint256"
        }
      ],
      "name": "InspectorAdded",
      "type": "event"
    },
    {
      "anonymous": false,
      "inputs": [
        {
          "indexed": true,
          "internalType": "address",
          "name": "inspector",
          "type": "address"
        },
        {
          "indexed": false,
          "internalType": "uint256",
          "name": "id",
          "type": "uint256"
        }
      ],
      "name": "InspectorRemoved",
      "type": "event"
    },
    {
      "anonymous": false,
      "inputs": [
        {
          "indexed": true,
          "internalType": "uint256",
          "name": "landId",
          "type": "uint256"
        },
        {
          "indexed": true,
          "internalType": "address",
          "name": "from",
          "type": "address"
        },
        {
          "indexed": true,
          "internalType": "address",
          "name": "to",
          "type": "address"
        }
      ],
      "name": "LandOwnershipTransferred",
      "type": "event"
    },
    {
      "anonymous": false,
      "inputs": [
        {
          "indexed": true,
          "internalType": "uint256",
          "name": "requestId",
          "type": "uint256"
        },
        {
          "indexed": false,
          "internalType": "uint256",
          "name": "landId",
          "type": "uint256"
        }
      ],
      "name": "LandPurchaseRequested",
      "type": "event"
    },
    {
      "anonymous": false,
      "inputs": [
        {
          "indexed": false,
          "internalType": "uint256",
          "name": "averagePrice",
          "type": "uint256"
        },
        {
          "indexed": false,
          "internalType": "uint256",
          "name": "totalVolume",
          "type": "uint256"
        }
      ],
      "name": "MarketMetricsUpdated",
      "type": "event"
    },
    {
      "anonymous": false,
      "inputs": [
        {
          "indexed": true,
          "internalType": "address",
          "name": "previousOwner",
          "type": "address"
        },
        {
          "indexed": true,
          "internalType": "address",
          "name": "newOwner",
          "type": "address"
        }
      ],
      "name": "OwnershipTransferred",
      "type": "event"
    },
    {
      "anonymous": false,
      "inputs": [
        {
          "indexed": false,
          "internalType": "address",
          "name": "account",
          "type": "address"
        }
      ],
      "name": "Paused",
      "type": "event"
    },
    {
      "anonymous": false,
      "inputs": [
        {
          "indexed": true,
          "internalType": "uint256",
          "name": "requestId",
          "type": "uint256"
        }
      ],
      "name": "PurchaseRequestCancelled",
      "type": "event"
    },
    {
      "anonymous": false,
      "inputs": [
        {
          "indexed": true,
          "internalType": "uint256",
          "name": "requestId",
          "type": "uint256"
        },
        {
          "indexed": true,
          "internalType": "uint256",
          "name": "landId",
          "type": "uint256"
        },
        {
          "indexed": true,
          "internalType": "address",
          "name": "creator",
          "type": "address"
        }
      ],
      "name": "PurchaseRequestCreated",
      "type": "event"
    },
    {
      "anonymous": false,
      "inputs": [
        {
          "indexed": true,
          "internalType": "uint256",
          "name": "requestId",
          "type": "uint256"
        },
        {
          "indexed": false,
          "internalType": "enum TransactionRegistry.RequestStatus",
          "name": "status",
          "type": "uint8"
        }
      ],
      "name": "PurchaseRequestStatusChanged",
      "type": "event"
    },
    {
      "anonymous": false,
      "inputs": [
        {
          "indexed": true,
          "internalType": "uint256",
          "name": "requestId",
          "type": "uint256"
        },
        {
          "indexed": true,
          "internalType": "address",
          "name": "user",
          "type": "address"
        },
        {
          "indexed": false,
          "internalType": "string",
          "name": "action",
          "type": "string"
        },
        {
          "indexed": false,
          "internalType": "enum TransactionRegistry.RequestStatus",
          "name": "status",
          "type": "uint8"
        }
      ],
      "name": "RequestDebug",
      "type": "event"
    },
    {
      "anonymous": false,
      "inputs": [
        {
          "indexed": true,
          "internalType": "bytes32",
          "name": "role",
          "type": "bytes32"
        },
        {
          "indexed": true,
          "internalType": "address",
          "name": "account",
          "type": "address"
        }
      ],
      "name": "RoleAssigned",
      "type": "event"
    },
    {
      "anonymous": false,
      "inputs": [
        {
          "indexed": true,
          "internalType": "bytes32",
          "name": "role",
          "type": "bytes32"
        },
        {
          "indexed": true,
          "internalType": "address",
          "name": "account",
          "type": "address"
        }
      ],
      "name": "RoleRevoked",
      "type": "event"
    },
    {
      "anonymous": false,
      "inputs": [
        {
          "indexed": true,
          "internalType": "address",
          "name": "user",
          "type": "address"
        },
        {
          "indexed": false,
          "internalType": "uint256",
          "name": "total",
          "type": "uint256"
        },
        {
          "indexed": false,
          "internalType": "uint256",
          "name": "pending",
          "type": "uint256"
        },
        {
          "indexed": false,
          "internalType": "uint256",
          "name": "incoming",
          "type": "uint256"
        },
        {
          "indexed": false,
          "internalType": "uint256",
          "name": "outgoing",
          "type": "uint256"
        }
      ],
      "name": "StatsDebug",
      "type": "event"
    },
    {
      "anonymous": false,
      "inputs": [
        {
          "indexed": true,
          "internalType": "uint256",
          "name": "transactionId",
          "type": "uint256"
        },
        {
          "indexed": true,
          "internalType": "address",
          "name": "user",
          "type": "address"
        }
      ],
      "name": "TransactionRecorded",
      "type": "event"
    },
    {
      "anonymous": false,
      "inputs": [
        {
          "indexed": false,
          "internalType": "address",
          "name": "account",
          "type": "address"
        }
      ],
      "name": "Unpaused",
      "type": "event"
    },
    {
      "inputs": [],
      "name": "ADMIN_ROLE",
      "outputs": [
        {
          "internalType": "bytes32",
          "name": "",
          "type": "bytes32"
        }
      ],
      "stateMutability": "view",
      "type": "function"
    },
    {
      "inputs": [],
      "name": "INSPECTOR_ROLE",
      "outputs": [
        {
          "internalType": "bytes32",
          "name": "",
          "type": "bytes32"
        }
      ],
      "stateMutability": "view",
      "type": "function"
    },
    {
      "inputs": [],
      "name": "USER_ROLE",
      "outputs": [
        {
          "internalType": "bytes32",
          "name": "",
          "type": "bytes32"
        }
      ],
      "stateMutability": "view",
      "type": "function"
    },
    {
      "inputs": [],
      "name": "VERIFIED_USER_ROLE",
      "outputs": [
        {
          "internalType": "bytes32",
          "name": "",
          "type": "bytes32"
        }
      ],
      "stateMutability": "view",
      "type": "function"
    },
    {
      "inputs": [],
      "name": "VERSION",
      "outputs": [
        {
          "internalType": "string",
          "name": "",
          "type": "string"
        }
      ],
      "stateMutability": "view",
      "type": "function"
    },
    {
      "inputs": [
        {
          "internalType": "address",
          "name": "_inspector",
          "type": "address"
        },
        {
          "internalType": "string",
          "name": "_name",
          "type": "string"
        },
        {
          "internalType": "uint256",
          "name": "_age",
          "type": "uint256"
        },
        {
          "internalType": "string",
          "name": "_designation",
          "type": "string"
        }
      ],
      "name": "addInspector",
      "outputs": [],
      "stateMutability": "nonpayable",
      "type": "function"
    },
    {
      "inputs": [
        {
          "internalType": "address",
          "name": "user",
          "type": "address"
        },
        {
          "internalType": "bytes32",
          "name": "role",
          "type": "bytes32"
        }
      ],
      "name": "assignRole",
      "outputs": [],
      "stateMutability": "nonpayable",
      "type": "function"
    },
    {
      "inputs": [
        {
          "internalType": "uint256[]",
          "name": "requestIds",
          "type": "uint256[]"
        },
        {
          "internalType": "bool[]",
          "name": "decisions",
          "type": "bool[]"
        }
      ],
      "name": "batchProcessRequests",
      "outputs": [],
      "stateMutability": "nonpayable",
      "type": "function"
    },
    {
      "inputs": [],
      "name": "calculateAveragePrice",
      "outputs": [
        {
          "internalType": "uint256",
          "name": "",
          "type": "uint256"
        }
      ],
      "stateMutability": "view",
      "type": "function"
    },
    {
      "inputs": [
        {
          "internalType": "uint256",
          "name": "_requestId",
          "type": "uint256"
        }
      ],
      "name": "cancelPurchaseRequest",
      "outputs": [],
      "stateMutability": "nonpayable",
      "type": "function"
    },
    {
      "inputs": [
        {
          "internalType": "bytes32",
          "name": "role",
          "type": "bytes32"
        },
        {
          "internalType": "address",
          "name": "user",
          "type": "address"
        }
      ],
      "name": "checkRole",
      "outputs": [
        {
          "internalType": "bool",
          "name": "",
          "type": "bool"
        }
      ],
      "stateMutability": "view",
      "type": "function"
    },
    {
      "inputs": [
        {
          "internalType": "uint256",
          "name": "_landId",
          "type": "uint256"
        }
      ],
      "name": "createPurchaseRequest",
      "outputs": [],
      "stateMutability": "nonpayable",
      "type": "function"
    },
    {
      "inputs": [
        {
          "internalType": "address",
          "name": "_user",
          "type": "address"
        }
      ],
      "name": "debugUserStats",
      "outputs": [],
      "stateMutability": "nonpayable",
      "type": "function"
    },
    {
      "inputs": [],
      "name": "emergencyWithdraw",
      "outputs": [],
      "stateMutability": "nonpayable",
      "type": "function"
    },
    {
      "inputs": [],
      "name": "getCurrentYearVolume",
      "outputs": [
        {
          "internalType": "uint256",
          "name": "",
          "type": "uint256"
        }
      ],
      "stateMutability": "view",
      "type": "function"
    },
    {
      "inputs": [
        {
          "internalType": "address",
          "name": "_inspector",
          "type": "address"
        }
      ],
      "name": "getInspector",
      "outputs": [
        {
          "components": [
            {
              "internalType": "uint256",
              "name": "id",
              "type": "uint256"
            },
            {
              "internalType": "string",
              "name": "name",
              "type": "string"
            },
            {
              "internalType": "uint256",
              "name": "age",
              "type": "uint256"
            },
            {
              "internalType": "string",
              "name": "designation",
              "type": "string"
            }
          ],
          "internalType": "struct BaseRegistry.LandInspector",
          "name": "",
          "type": "tuple"
        }
      ],
      "stateMutability": "view",
      "type": "function"
    },
    {
      "inputs": [
        {
          "internalType": "uint256",
          "name": "_landId",
          "type": "uint256"
        },
        {
          "internalType": "enum TransactionRegistry.RequestStatus",
          "name": "_status",
          "type": "uint8"
        }
      ],
      "name": "getLandRequests",
      "outputs": [
        {
          "components": [
            {
              "internalType": "uint256",
              "name": "requestId",
              "type": "uint256"
            },
            {
              "internalType": "address payable",
              "name": "seller",
              "type": "address"
            },
            {
              "internalType": "address payable",
              "name": "buyer",
              "type": "address"
            },
            {
              "internalType": "uint256",
              "name": "landId",
              "type": "uint256"
            },
            {
              "internalType": "enum TransactionRegistry.RequestStatus",
              "name": "status",
              "type": "uint8"
            },
            {
              "internalType": "bool",
              "name": "isPaymentDone",
              "type": "bool"
            }
          ],
          "internalType": "struct TransactionRegistry.PurchaseRequest[]",
          "name": "",
          "type": "tuple[]"
        }
      ],
      "stateMutability": "view",
      "type": "function"
    },
    {
      "inputs": [
        {
          "internalType": "uint256",
          "name": "_requestId",
          "type": "uint256"
        }
      ],
      "name": "getPurchaseRequest",
      "outputs": [
        {
          "components": [
            {
              "internalType": "uint256",
              "name": "requestId",
              "type": "uint256"
            },
            {
              "internalType": "address payable",
              "name": "seller",
              "type": "address"
            },
            {
              "internalType": "address payable",
              "name": "buyer",
              "type": "address"
            },
            {
              "internalType": "uint256",
              "name": "landId",
              "type": "uint256"
            },
            {
              "internalType": "enum TransactionRegistry.RequestStatus",
              "name": "status",
              "type": "uint8"
            },
            {
              "internalType": "bool",
              "name": "isPaymentDone",
              "type": "bool"
            }
          ],
          "internalType": "struct TransactionRegistry.PurchaseRequest",
          "name": "",
          "type": "tuple"
        }
      ],
      "stateMutability": "view",
      "type": "function"
    },
    {
      "inputs": [
        {
          "internalType": "uint256",
          "name": "year",
          "type": "uint256"
        }
      ],
      "name": "getTotalVolume",
      "outputs": [
        {
          "internalType": "uint256",
          "name": "",
          "type": "uint256"
        }
      ],
      "stateMutability": "view",
      "type": "function"
    },
    {
      "inputs": [],
      "name": "getTransactionCount",
      "outputs": [
        {
          "internalType": "uint256",
          "name": "",
          "type": "uint256"
        }
      ],
      "stateMutability": "view",
      "type": "function"
    },
    {
      "inputs": [
        {
          "internalType": "address",
          "name": "user",
          "type": "address"
        }
      ],
      "name": "getUserPurchaseRequests",
      "outputs": [
        {
          "components": [
            {
              "internalType": "uint256",
              "name": "requestId",
              "type": "uint256"
            },
            {
              "internalType": "address payable",
              "name": "seller",
              "type": "address"
            },
            {
              "internalType": "address payable",
              "name": "buyer",
              "type": "address"
            },
            {
              "internalType": "uint256",
              "name": "landId",
              "type": "uint256"
            },
            {
              "internalType": "enum TransactionRegistry.RequestStatus",
              "name": "status",
              "type": "uint8"
            },
            {
              "internalType": "bool",
              "name": "isPaymentDone",
              "type": "bool"
            }
          ],
          "internalType": "struct TransactionRegistry.PurchaseRequest[]",
          "name": "",
          "type": "tuple[]"
        }
      ],
      "stateMutability": "view",
      "type": "function"
    },
    {
      "inputs": [
        {
          "internalType": "address",
          "name": "_user",
          "type": "address"
        },
        {
          "internalType": "uint256",
          "name": "page",
          "type": "uint256"
        },
        {
          "internalType": "uint256",
          "name": "pageSize",
          "type": "uint256"
        }
      ],
      "name": "getUserTransactionHistoryPage",
      "outputs": [
        {
          "components": [
            {
              "components": [
                {
                  "internalType": "uint256",
                  "name": "id",
                  "type": "uint256"
                },
                {
                  "internalType": "uint256",
                  "name": "landId",
                  "type": "uint256"
                },
                {
                  "internalType": "address",
                  "name": "from",
                  "type": "address"
                },
                {
                  "internalType": "address",
                  "name": "to",
                  "type": "address"
                },
                {
                  "internalType": "uint256",
                  "name": "amount",
                  "type": "uint256"
                },
                {
                  "internalType": "uint256",
                  "name": "timestamp",
                  "type": "uint256"
                },
                {
                  "internalType": "enum TransactionRegistry.TransactionType",
                  "name": "transactionType",
                  "type": "uint8"
                },
                {
                  "components": [
                    {
                      "internalType": "uint256",
                      "name": "id",
                      "type": "uint256"
                    },
                    {
                      "internalType": "uint256",
                      "name": "area",
                      "type": "uint256"
                    },
                    {
                      "internalType": "string",
                      "name": "location",
                      "type": "string"
                    },
                    {
                      "internalType": "uint256",
                      "name": "price",
                      "type": "uint256"
                    },
                    {
                      "internalType": "string",
                      "name": "coordinates",
                      "type": "string"
                    },
                    {
                      "internalType": "uint256",
                      "name": "propertyPID",
                      "type": "uint256"
                    },
                    {
                      "internalType": "string",
                      "name": "surveyNumber",
                      "type": "string"
                    },
                    {
                      "internalType": "bytes32",
                      "name": "documentHash",
                      "type": "bytes32"
                    },
                    {
                      "internalType": "bool",
                      "name": "isForSale",
                      "type": "bool"
                    },
                    {
                      "internalType": "address payable",
                      "name": "owner",
                      "type": "address"
                    },
                    {
                      "internalType": "bool",
                      "name": "isVerified",
                      "type": "bool"
                    },
                    {
                      "internalType": "string",
                      "name": "verificationRemark",
                      "type": "string"
                    }
                  ],
                  "internalType": "struct LandRegistry.Land",
                  "name": "land",
                  "type": "tuple"
                }
              ],
              "internalType": "struct TransactionRegistry.Transaction[]",
              "name": "transactions",
              "type": "tuple[]"
            },
            {
              "internalType": "uint256",
              "name": "totalPages",
              "type": "uint256"
            },
            {
              "internalType": "uint256",
              "name": "totalItems",
              "type": "uint256"
            }
          ],
          "internalType": "struct TransactionRegistry.TransactionPageResult",
          "name": "",
          "type": "tuple"
        }
      ],
      "stateMutability": "view",
      "type": "function"
    },
    {
      "inputs": [
        {
          "internalType": "address",
          "name": "_user",
          "type": "address"
        }
      ],
      "name": "getUserTransactionSummary",
      "outputs": [
        {
          "internalType": "uint256",
          "name": "total",
          "type": "uint256"
        },
        {
          "internalType": "uint256",
          "name": "pending",
          "type": "uint256"
        },
        {
          "internalType": "uint256",
          "name": "incoming",
          "type": "uint256"
        },
        {
          "internalType": "uint256",
          "name": "outgoing",
          "type": "uint256"
        }
      ],
      "stateMutability": "view",
      "type": "function"
    },
    {
      "inputs": [
        {
          "internalType": "address",
          "name": "",
          "type": "address"
        }
      ],
      "name": "inspectors",
      "outputs": [
        {
          "internalType": "uint256",
          "name": "id",
          "type": "uint256"
        },
        {
          "internalType": "string",
          "name": "name",
          "type": "string"
        },
        {
          "internalType": "uint256",
          "name": "age",
          "type": "uint256"
        },
        {
          "internalType": "string",
          "name": "designation",
          "type": "string"
        }
      ],
      "stateMutability": "view",
      "type": "function"
    },
    {
      "inputs": [
        {
          "internalType": "uint256",
          "name": "_requestId",
          "type": "uint256"
        }
      ],
      "name": "isRequestValid",
      "outputs": [
        {
          "internalType": "bool",
          "name": "",
          "type": "bool"
        }
      ],
      "stateMutability": "view",
      "type": "function"
    },
    {
      "inputs": [],
      "name": "landRegistry",
      "outputs": [
        {
          "internalType": "contract LandRegistry",
          "name": "",
          "type": "address"
        }
      ],
      "stateMutability": "view",
      "type": "function"
    },
    {
      "inputs": [
        {
          "internalType": "uint256",
          "name": "_requestId",
          "type": "uint256"
        }
      ],
      "name": "makePayment",
      "outputs": [],
      "stateMutability": "payable",
      "type": "function"
    },
    {
      "inputs": [],
      "name": "owner",
      "outputs": [
        {
          "internalType": "address",
          "name": "",
          "type": "address"
        }
      ],
      "stateMutability": "view",
      "type": "function"
    },
    {
      "inputs": [],
      "name": "pause",
      "outputs": [],
      "stateMutability": "nonpayable",
      "type": "function"
    },
    {
      "inputs": [],
      "name": "paused",
      "outputs": [
        {
          "internalType": "bool",
          "name": "",
          "type": "bool"
        }
      ],
      "stateMutability": "view",
      "type": "function"
    },
    {
      "inputs": [
        {
          "internalType": "address",
          "name": "",
          "type": "address"
        }
      ],
      "name": "pendingWithdrawals",
      "outputs": [
        {
          "internalType": "uint256",
          "name": "",
          "type": "uint256"
        }
      ],
      "stateMutability": "view",
      "type": "function"
    },
    {
      "inputs": [
        {
          "internalType": "uint256",
          "name": "_requestId",
          "type": "uint256"
        },
        {
          "internalType": "bool",
          "name": "_accept",
          "type": "bool"
        }
      ],
      "name": "processPurchaseRequest",
      "outputs": [],
      "stateMutability": "nonpayable",
      "type": "function"
    },
    {
      "inputs": [
        {
          "internalType": "uint256",
          "name": "",
          "type": "uint256"
        }
      ],
      "name": "purchaseRequests",
      "outputs": [
        {
          "internalType": "uint256",
          "name": "requestId",
          "type": "uint256"
        },
        {
          "internalType": "address payable",
          "name": "seller",
          "type": "address"
        },
        {
          "internalType": "address payable",
          "name": "buyer",
          "type": "address"
        },
        {
          "internalType": "uint256",
          "name": "landId",
          "type": "uint256"
        },
        {
          "internalType": "enum TransactionRegistry.RequestStatus",
          "name": "status",
          "type": "uint8"
        },
        {
          "internalType": "bool",
          "name": "isPaymentDone",
          "type": "bool"
        }
      ],
      "stateMutability": "view",
      "type": "function"
    },
    {
      "inputs": [
        {
          "internalType": "address",
          "name": "_inspector",
          "type": "address"
        }
      ],
      "name": "removeInspector",
      "outputs": [],
      "stateMutability": "nonpayable",
      "type": "function"
    },
    {
      "inputs": [
        {
          "internalType": "address",
          "name": "user",
          "type": "address"
        },
        {
          "internalType": "bytes32",
          "name": "role",
          "type": "bytes32"
        }
      ],
      "name": "revokeRole",
      "outputs": [],
      "stateMutability": "nonpayable",
      "type": "function"
    },
    {
      "inputs": [
        {
          "internalType": "address",
          "name": "newOwner",
          "type": "address"
        }
      ],
      "name": "transferOwnership",
      "outputs": [],
      "stateMutability": "nonpayable",
      "type": "function"
    },
    {
      "inputs": [],
      "name": "unpause",
      "outputs": [],
      "stateMutability": "nonpayable",
      "type": "function"
    },
    {
      "inputs": [],
      "name": "userRegistry",
      "outputs": [
        {
          "internalType": "contract UserRegistry",
          "name": "",
          "type": "address"
        }
      ],
      "stateMutability": "view",
      "type": "function"
    },
    {
      "inputs": [],
      "name": "withdraw",
      "outputs": [],
      "stateMutability": "nonpayable",
      "type": "function"
    }
  ],
  "bytecode": "0x60806040523480156200001157600080fd5b5060405162004f3f38038062004f3f8339810160408190526200003491620001ca565b600080546001600160a01b0319163390811782558082527f50efbde2d46c37e9785f1791697f77e94bb7b701e19f1930a668820722d376946020526040808320805460ff191660011790555190917fa49807205ce4d355092ef5a8a18f56e8913cf4a201fbe287825b095693c21775917f8122312829fb608b8d31c14e44cba6826748abddc350818605bfc69eb7ff38479190a36001600160a01b038116620001235760405162461bcd60e51b815260206004820152601c60248201527f496e76616c6964204c616e645265676973747279206164647265737300000000604482015260640160405180910390fd5b600b80546001600160a01b0319166001600160a01b03831690811790915560408051632e3a306b60e11b81529051635c7460d6916004808201926020929091908290030181865afa1580156200017d573d6000803e3d6000fd5b505050506040513d601f19601f82011682018060405250810190620001a39190620001ca565b600c80546001600160a01b0319166001600160a01b039290921691909117905550620001fc565b600060208284031215620001dd57600080fd5b81516001600160a01b0381168114620001f557600080fd5b9392505050565b614d33806200020c6000396000f3fe6080604052600436106102305760003560e01c80637c70e7911161012e578063c660b92c116100ab578063e8f7dfcf1161006f578063e8f7dfcf14610736578063ea9ba5d114610763578063f2fde38b14610778578063f3f4370314610798578063ffa1ad74146107c557600080fd5b8063c660b92c1461068f578063d366f18e146106af578063d5dd1657146106cf578063db2e21bc146106ff578063e3a3c5221461071457600080fd5b80638da5cb5b116100f25780638da5cb5b146105ed5780638e859d481461060d578063a8ec9d8d1461063a578063b865caae1461065a578063bd4dc0241461066f57600080fd5b80637c70e7911461050457806381ea8ba8146105245780638456cb5914610544578063887e7401146105595780638903effe146105cd57600080fd5b80633ccfd60b116101bc5780635c975abb116101805780635c975abb146104345780636512f1111461045557806372e43e031461047557806375b238fc146104a25780637745e32c146104c457600080fd5b80633ccfd60b1461039f5780633f4ba83a146103b45780635114cb52146103c9578063589112a4146103dc5780635c7460d6146103fc57600080fd5b80631d9486de116102035780631d9486de146102fb578063208dd1ff1461031d57806326ee3e841461033d5780632e7700f01461035d5780633198897d1461037257600080fd5b806312d9a6ad14610235578063131191611461026a5780631893eae8146102ac57806319cd5653146102ce575b600080fd5b34801561024157600080fd5b50610255610250366004613ffc565b610803565b60405190151581526020015b60405180910390f35b34801561027657600080fd5b5061029e7f14823911f2da1b49f045a0929a60b8c1f2a7fc8c06c7284ca3e8ab4e193a08c881565b604051908152602001610261565b3480156102b857600080fd5b5061029e600080516020614c7e83398151915281565b3480156102da57600080fd5b5061029e6102e936600461402c565b60009081526009602052604090205490565b34801561030757600080fd5b5061031b610316366004614045565b610830565b005b34801561032957600080fd5b5061031b610338366004614045565b6108ba565b34801561034957600080fd5b5061031b6103583660046140bd565b61099c565b34801561036957600080fd5b5060045461029e565b34801561037e57600080fd5b5061039261038d366004614129565b610aa7565b60405161026191906141c0565b3480156103ab57600080fd5b5061031b610cdb565b3480156103c057600080fd5b5061031b610e34565b61031b6103d736600461402c565b610f16565b3480156103e857600080fd5b5061031b6103f736600461402c565b6112fb565b34801561040857600080fd5b50600c5461041c906001600160a01b031681565b6040516001600160a01b039091168152602001610261565b34801561044057600080fd5b5060005461025590600160a01b900460ff1681565b34801561046157600080fd5b5061025561047036600461402c565b611935565b34801561048157600080fd5b5061049561049036600461402c565b61197e565b604051610261919061420e565b3480156104ae57600080fd5b5061029e600080516020614cde83398151915281565b3480156104d057600080fd5b506104e46104df366004614129565b611a27565b604080519485526020850193909352918301526060820152608001610261565b34801561051057600080fd5b5061031b61051f366004614129565b611c01565b34801561053057600080fd5b5061031b61053f36600461422a565b611dc7565b34801561055057600080fd5b5061031b611fc3565b34801561056557600080fd5b506105bb61057436600461402c565b6005602052600090815260409020805460018201546002830154600384015460049094015492936001600160a01b0392831693929091169160ff8082169161010090041686565b6040516102619695949392919061424f565b3480156105d957600080fd5b5061031b6105e8366004614383565b6120ac565b3480156105f957600080fd5b5060005461041c906001600160a01b031681565b34801561061957600080fd5b5061062d610628366004614403565b6123aa565b6040516102619190614570565b34801561064657600080fd5b5061031b61065536600461402c565b6129a8565b34801561066657600080fd5b5061029e612a9e565b34801561067b57600080fd5b50600b5461041c906001600160a01b031681565b34801561069b57600080fd5b506103926106aa36600461465b565b612ac4565b3480156106bb57600080fd5b5061031b6106ca366004614129565b612cf6565b3480156106db57600080fd5b506106ef6106ea366004614129565b612dcb565b6040516102619493929190614684565b34801561070b57600080fd5b5061031b612f04565b34801561072057600080fd5b5061029e600080516020614c5e83398151915281565b34801561074257600080fd5b50610756610751366004614129565b613006565b60405161026191906146c0565b34801561076f57600080fd5b5061029e6131f5565b34801561078457600080fd5b5061031b610793366004614129565b6133a5565b3480156107a457600080fd5b5061029e6107b3366004614129565b60086020526000908152604090205481565b3480156107d157600080fd5b506107f6604051806040016040528060058152602001640312e302e360dc1b81525081565b6040516102619190614716565b60008281526001602090815260408083206001600160a01b038516845290915290205460ff165b92915050565b336000908152600080516020614c9e8339815191526020526040902054600080516020614cde8339815191529060ff166108855760405162461bcd60e51b815260040161087c90614729565b60405180910390fd5b6001600160a01b0383166108ab5760405162461bcd60e51b815260040161087c9061476b565b6108b58284613450565b505050565b336000908152600080516020614c9e8339815191526020526040902054600080516020614cde8339815191529060ff166109065760405162461bcd60e51b815260040161087c90614729565b6001600160a01b03831661092c5760405162461bcd60e51b815260040161087c9061476b565b60008281526001602090815260408083206001600160a01b038716845290915290205460ff166109925760405162461bcd60e51b8152602060048201526011602482015270149bdb19481b9bdd08185cdcda59db9959607a1b604482015260640161087c565b6108b58284613566565b3360009081527f17ca9966e5fe2f32b4260d643d15b6dcb16466af05df3b2344aa97008e201a3c6020526040902054600080516020614c7e8339815191529060ff166109fa5760405162461bcd60e51b815260040161087c90614729565b83828114610a435760405162461bcd60e51b8152602060048201526016602482015275082e4e4c2f240d8cadccee8d0e640dad2e6dac2e8c6d60531b604482015260640161087c565b60005b81811015610a9e57610a96878783818110610a6357610a63614794565b90506020020135868684818110610a7c57610a7c614794565b9050602002016020810190610a9191906147aa565b6135fd565b600101610a46565b50505050505050565b60606001600160a01b038216610acf5760405162461bcd60e51b815260040161087c9061476b565b6001600160a01b038216600090815260066020908152604080832080548251818502810185019093528083529192909190830182828015610b2f57602002820191906000526020600020905b815481526020019060010190808311610b1b575b505050505090506000815167ffffffffffffffff811115610b5257610b52614294565b604051908082528060200260200182016040528015610b8b57816020015b610b78613e82565b815260200190600190039081610b705790505b5090506000805b8351811015610cd157600060056000868481518110610bb357610bb3614794565b6020908102919091018101518252818101929092526040908101600020815160c0810183528154815260018201546001600160a01b039081169482019490945260028201549093169183019190915260038101546060830152600480820154608084019160ff90911690811115610c2c57610c2c614146565b6004811115610c3d57610c3d614146565b815260049190910154610100900460ff16151560209091015260408101519091506001600160a01b0388811691161480610c8c5750866001600160a01b031681602001516001600160a01b0316145b15610cbe5780848481518110610ca457610ca4614794565b60200260200101819052508280610cba906147dd565b9350505b5080610cc9816147dd565b915050610b92565b5081529392505050565b600054600160a81b900460ff1615610d265760405162461bcd60e51b815260206004820152600e60248201526d1499595b9d1c985b9d0818d85b1b60921b604482015260640161087c565b6000805460ff60a81b1916600160a81b1781553381526008602052604090205480610d8a5760405162461bcd60e51b81526020600482015260146024820152734e6f2066756e647320746f20776974686472617760601b604482015260640161087c565b336000818152600860205260408082208290555190919083908381818185875af1925050503d8060008114610ddb576040519150601f19603f3d011682016040523d82523d6000602084013e610de0565b606091505b5050905080610e235760405162461bcd60e51b815260206004820152600f60248201526e151c985b9cd9995c8819985a5b1959608a1b604482015260640161087c565b50506000805460ff60a81b19169055565b336000908152600080516020614c9e8339815191526020526040902054600080516020614cde8339815191529060ff16610e805760405162461bcd60e51b815260040161087c90614729565b600054600160a01b900460ff16610ed25760405162461bcd60e51b815260206004820152601660248201527510dbdb9d1c9858dd081a5cc81b9bdd081c185d5cd95960521b604482015260640161087c565b6000805460ff60a01b191690556040513381527f5db9ee0a495bf2e6ff9c91a7834c1ba4fdd244a5e8aa4e537bd38aeae4b073aa906020015b60405180910390a150565b600054600160a81b900460ff1615610f615760405162461bcd60e51b815260206004820152600e60248201526d1499595b9d1c985b9d0818d85b1b60921b604482015260640161087c565b6000805460ff60a81b1916600160a81b17815581815260056020526040902060028101546001600160a01b03163314610fcc5760405162461bcd60e51b815260206004820152600d60248201526c2737ba103a343290313abcb2b960991b604482015260640161087c565b600160048083015460ff1690811115610fe757610fe7614146565b1461102b5760405162461bcd60e51b815260206004820152601460248201527314995c5d595cdd081b9bdd081858d8d95c1d195960621b604482015260640161087c565b6004810154610100900460ff16156110745760405162461bcd60e51b815260206004820152600c60248201526b105b1c9958591e481c185a5960a21b604482015260640161087c565b600b5460038201546040516397e8e80760e01b815260048101919091526000916001600160a01b0316906397e8e80790602401602060405180830381865afa1580156110c4573d6000803e3d6000fd5b505050506040513d601f19601f820116820180604052508101906110e891906147f6565b90508034146111395760405162461bcd60e51b815260206004820152601860248201527f496e636f7272656374207061796d656e7420616d6f756e740000000000000000604482015260640161087c565b60048201805461ffff191661010417905560018201546001600160a01b03166000908152600860205260408120805434929061117690849061480f565b909155506111869050833461368b565b600b5460038301546002840154604051633f832df760e21b8152600481018390526001600160a01b03938416936345fb122593921690849063fe0cb7dc90602401600060405180830381865afa1580156111e4573d6000803e3d6000fd5b505050506040513d6000823e601f3d908101601f1916820160405261120c919081019061488a565b60e001516040518463ffffffff1660e01b8152600401611248939291909283526001600160a01b03919091166020830152604082015260600190565b600060405180830381600087803b15801561126257600080fd5b505af1158015611276573d6000803e3d6000fd5b5050505082600080516020614cbe833981519152600460405161129991906149d0565b60405180910390a26002820154600183015460038401546040516001600160a01b0393841693909216917fa3b0b9020f88aba79dc7d52f5e1da8502bcea42c242b02d2144b71b2de7f049590600090a450506000805460ff60a81b1916905550565b336113415760405162461bcd60e51b8152602060048201526016602482015275496e76616c69642073656e646572206164647265737360501b604482015260640161087c565b600c54604051630b1fba9160e11b81523360048201526001600160a01b039091169063163f752290602401602060405180830381865afa158015611389573d6000803e3d6000fd5b505050506040513d601f19601f820116820180604052508101906113ad91906149de565b80156114905750600c54604080516303127d5d60e31b815290516001600160a01b03909216916391d14854918391631893eae8916004808201926020929091908290030181865afa158015611406573d6000803e3d6000fd5b505050506040513d601f19601f8201168201806040525081019061142a91906147f6565b6040516001600160e01b031960e084901b1681526004810191909152336024820152604401602060405180830381865afa15801561146c573d6000803e3d6000fd5b505050506040513d601f19601f8201168201806040525081019061149091906149de565b6114d05760405162461bcd60e51b8152602060048201526011602482015270155cd95c881b9bdd081d995c9a599a5959607a1b604482015260640161087c565b600b54604051630d97ed9f60e31b8152600481018390526001600160a01b0390911690636cbf6cf890602401602060405180830381865afa158015611519573d6000803e3d6000fd5b505050506040513d601f19601f8201168201806040525081019061153d91906149de565b61157d5760405162461bcd60e51b815260206004820152601160248201527013185b99081b9bdd081d995c9a599a5959607a1b604482015260640161087c565b600b5460405163c7751bab60e01b8152600481018390526001600160a01b039091169063c7751bab90602401602060405180830381865afa1580156115c6573d6000803e3d6000fd5b505050506040513d601f19601f820116820180604052508101906115ea91906149de565b61162a5760405162461bcd60e51b81526020600482015260116024820152704c616e64206e6f7420666f722073616c6560781b604482015260640161087c565b600b54604051631869a38b60e01b8152600481018390526000916001600160a01b031690631869a38b90602401602060405180830381865afa158015611674573d6000803e3d6000fd5b505050506040513d601f19601f8201168201806040525081019061169891906149fb565b9050336001600160a01b038216036116e85760405162461bcd60e51b815260206004820152601360248201527210d85b9b9bdd08189d5e481bdddb881b185b99606a1b604482015260640161087c565b6001600160a01b0381166117335760405162461bcd60e51b815260206004820152601260248201527124b73b30b634b2103630b7321037bbb732b960711b604482015260640161087c565b60048054906000611743836147dd565b919050555060006040518060c001604052806004548152602001836001600160a01b03168152602001336001600160a01b031681526020018481526020016000600481111561179457611794614146565b815260006020918201819052600480548252600583526040918290208451815592840151600184810180546001600160a01b039384166001600160a01b03199182161790915593860151600286018054919093169416939093179055606084015160038401556080840151838201805495965086959193909260ff1990921691849081111561182557611825614146565b021790555060a09190910151600491820180549115156101000261ff0019909216919091179055336000818152600660209081526040808320855481546001818101845592865284862001556001600160a01b038816845290832094548554918201865594835290822001929092556118a19184908690613719565b6004546040518481527f0f5b4a801cb6910b7e323999cd519782f111a156af8311f1966d56cd49e15a769060200160405180910390a2600454604051339185917f5bde53e03336db020651806eb0142b599cd5d4e0158ecbe88d22c7774a63a39290600090a4600454600080516020614cbe833981519152600060405161192891906149d0565b60405180910390a2505050565b600081815260056020526040812080548314801561195f575060028101546001600160a01b031615155b8015611977575060018101546001600160a01b031615155b9392505050565b611986613e82565b600082815260056020908152604091829020825160c0810184528154815260018201546001600160a01b039081169382019390935260028201549092169282019290925260038201546060820152600480830154919291608084019160ff909116908111156119f7576119f7614146565b6004811115611a0857611a08614146565b815260049190910154610100900460ff16151560209091015292915050565b600080600080600060066000876001600160a01b03166001600160a01b03168152602001908152602001600020805480602002602001604051908101604052809291908181526020018280548015611a9e57602002820191906000526020600020905b815481526020019060010190808311611a8a575b5050505050905060005b8151811015611bf857600060056000848481518110611ac957611ac9614794565b602002602001015181526020019081526020016000209050600480811115611af357611af3614146565b60048083015460ff1690811115611b0c57611b0c614146565b14611be55760018101546001600160a01b03808a16911603611b6457600060048083015460ff1690811115611b4357611b43614146565b03611b565784611b52816147dd565b9550505b86611b60816147dd565b9750505b60028101546001600160a01b03808a16911603611bb757600060048083015460ff1690811115611b9657611b96614146565b03611ba95783611ba5816147dd565b9450505b86611bb3816147dd565b9750505b600060048083015460ff1690811115611bd257611bd2614146565b03611be55785611be1816147dd565b9650505b5080611bf0816147dd565b915050611aa8565b50509193509193565b6000546001600160a01b03163314611c2b5760405162461bcd60e51b815260040161087c90614a18565b6001600160a01b038116611c7d5760405162461bcd60e51b8152602060048201526019602482015278496e76616c696420696e73706563746f72206164647265737360381b604482015260640161087c565b6001600160a01b0381166000908152600260205260408120549003611cdf5760405162461bcd60e51b8152602060048201526018602482015277125b9cdc1958dd1bdc88191bd95cc81b9bdd08195e1a5cdd60421b604482015260640161087c565b6001600160a01b0381166000908152600260205260408120805482825591611d0a6001830182613eb8565b6002820160009055600382016000611d229190613eb8565b5050611d3c600080516020614c5e83398151915283613566565b816001600160a01b03167ff4d26249e2d6402f768ccb0c52cb35f2df31dae16a7ba6518812c1f8db9c034e82604051611d7791815260200190565b60405180910390a26040516001600160a01b03831690600080516020614c5e833981519152907f155aaafb6329a2098580462df33ec4b7441b19729b9601c5fc17ae1cf99a8a5290600090a35050565b336001600160a01b0316827fa639b1f8842e1fc239cf2e3a4bf33eafae30240e7027c25fcc6473944a671dba6000604051611e029190614a3f565b60405180910390a360008281526005602052604081209060048083015460ff1690811115611e3257611e32614146565b14611e755760405162461bcd60e51b815260206004820152601360248201527252657175657374206e6f742070656e64696e6760681b604482015260640161087c565b60018101546001600160a01b03163314611ec25760405162461bcd60e51b815260206004820152600e60248201526d139bdd08185d5d1a1bdc9a5e995960921b604482015260640161087c565b600082611ed0576002611ed3565b60015b9050808260040160006101000a81548160ff02191690836004811115611efb57611efb614146565b021790555033847fa639b1f8842e1fc239cf2e3a4bf33eafae30240e7027c25fcc6473944a671dba85611f56576040518060400160405280601081526020016f1c995c5d595cdd17dc995a9958dd195960821b815250611f80565b6040518060400160405280601081526020016f1c995c5d595cdd17d858d8d95c1d195960821b8152505b84604051611f8f929190614a71565b60405180910390a383600080516020614cbe83398151915282604051611fb591906149d0565b60405180910390a250505050565b336000908152600080516020614c9e8339815191526020526040902054600080516020614cde8339815191529060ff1661200f5760405162461bcd60e51b815260040161087c90614729565b600054600160a01b900460ff16156120695760405162461bcd60e51b815260206004820152601a60248201527f436f6e747261637420697320616c726561647920706175736564000000000000604482015260640161087c565b6000805460ff60a01b1916600160a01b1790556040513381527f62e78cea01bee320cd4e420270b5ea74000d11b0c9f74754ebdbfc544b05a25890602001610f0b565b6000546001600160a01b031633146120d65760405162461bcd60e51b815260040161087c90614a18565b6001600160a01b0384166121285760405162461bcd60e51b8152602060048201526019602482015278496e76616c696420696e73706563746f72206164647265737360381b604482015260640161087c565b60128210156121795760405162461bcd60e51b815260206004820152601a60248201527f496e73706563746f72206d75737420626520616e206164756c74000000000000604482015260640161087c565b60008351116121c15760405162461bcd60e51b81526020600482015260146024820152734e616d652063616e6e6f7420626520656d70747960601b604482015260640161087c565b60008151116122125760405162461bcd60e51b815260206004820152601b60248201527f44657369676e6174696f6e2063616e6e6f7420626520656d7074790000000000604482015260640161087c565b6001600160a01b038416600090815260026020526040902054156122785760405162461bcd60e51b815260206004820152601860248201527f496e73706563746f7220616c7265616479206578697374730000000000000000604482015260640161087c565b60038054906000612288836147dd565b90915550506040805160808101825260035481526020808201868152828401869052606083018590526001600160a01b0388166000908152600290925292902081518155915190919060018201906122e09082614b1b565b5060408201516002820155606082015160038201906122ff9082614b1b565b5090505061231b600080516020614c5e83398151915285613450565b836001600160a01b03167f99ec83913a9d9b79baf37f57157bc50784ba372a64a793df8c821767a2e1bb6b60035460405161235891815260200190565b60405180910390a26040516001600160a01b03851690600080516020614c5e833981519152907f8122312829fb608b8d31c14e44cba6826748abddc350818605bfc69eb7ff384790600090a350505050565b6123ce60405180606001604052806060815260200160008152602001600081525090565b6124048460405180604001604052806014815260200173496e76616c69642075736572206164647265737360601b815250613bce565b6001600160a01b03841660009081526007602052604081208054909181900361247a5760408051600060608201818152608083019093529091829161245f565b61244c613ef5565b8152602001906001900390816124445790505b50815260200160008152602001600081525092505050611977565b600080612488878785613bf6565b9092509050600086600161249c828761480f565b6124a69190614bdb565b6124b09190614bee565b905060008267ffffffffffffffff8111156124cd576124cd614294565b60405190808252806020026020018201604052801561250657816020015b6124f3613ef5565b8152602001906001900390816124eb5790505b50905060005b8381101561297d578661251f828761480f565b8154811061252f5761252f614794565b6000918252602091829020604080516101008101825260119093029091018054835260018101549383019390935260028301546001600160a01b0390811691830191909152600380840154909116606083015260048301546080830152600583015460a0830152600683015491929160c084019160ff909116908111156125b8576125b8614146565b60038111156125c9576125c9614146565b81526020016007820160405180610180016040529081600082015481526020016001820154815260200160028201805461260290614a93565b80601f016020809104026020016040519081016040528092919081815260200182805461262e90614a93565b801561267b5780601f106126505761010080835404028352916020019161267b565b820191906000526020600020905b81548152906001019060200180831161265e57829003601f168201915b505050505081526020016003820154815260200160048201805461269e90614a93565b80601f01602080910402602001604051908101604052809291908181526020018280546126ca90614a93565b80156127175780601f106126ec57610100808354040283529160200191612717565b820191906000526020600020905b8154815290600101906020018083116126fa57829003601f168201915b505050505081526020016005820154815260200160068201805461273a90614a93565b80601f016020809104026020016040519081016040528092919081815260200182805461276690614a93565b80156127b35780601f10612788576101008083540402835291602001916127b3565b820191906000526020600020905b81548152906001019060200180831161279657829003601f168201915b505050918352505060078201546020820152600882015460ff808216151560408401526001600160a01b036101008304166060840152600160a81b909104161515608082015260098201805460a09092019161280e90614a93565b80601f016020809104026020016040519081016040528092919081815260200182805461283a90614a93565b80156128875780601f1061285c57610100808354040283529160200191612887565b820191906000526020600020905b81548152906001019060200180831161286a57829003601f168201915b505050505081525050815250508282815181106128a6576128a6614794565b6020908102919091010152600b5482516001600160a01b039091169063fe0cb7dc908490849081106128da576128da614794565b6020026020010151602001516040518263ffffffff1660e01b815260040161290491815260200190565b600060405180830381865afa158015612921573d6000803e3d6000fd5b505050506040513d6000823e601f3d908101601f19168201604052612949919081019061488a565b82828151811061295b5761295b614794565b602002602001015160e001819052508080612975906147dd565b91505061250c565b5060405180606001604052808281526020018381526020018681525096505050505050509392505050565b600081815260056020526040902060028101546001600160a01b03163314612a025760405162461bcd60e51b815260206004820152600d60248201526c2737ba103a343290313abcb2b960991b604482015260640161087c565b600060048083015460ff1690811115612a1d57612a1d614146565b14612a605760405162461bcd60e51b815260206004820152601360248201527252657175657374206e6f742070656e64696e6760681b604482015260640161087c565b60048101805460ff1916600217905560405182907fbac553b274d773b8809774cce8796d4094b850a45f14052502c22ab98610af6e90600090a25050565b600080612aaf6301e1338042614bee565b60009081526009602052604090205492915050565b6060600060015b6004548111612b4f5760008181526005602052604090206003015485148015612b2a5750836004811115612b0157612b01614146565b600082815260056020526040902060049081015460ff1690811115612b2857612b28614146565b145b15612b3d5781612b39816147dd565b9250505b80612b47816147dd565b915050612acb565b5060008167ffffffffffffffff811115612b6b57612b6b614294565b604051908082528060200260200182016040528015612ba457816020015b612b91613e82565b815260200190600190039081612b895790505b509050600060015b6004548111612ceb5760008181526005602052604090206003015487148015612c0b5750856004811115612be257612be2614146565b600082815260056020526040902060049081015460ff1690811115612c0957612c09614146565b145b15612cd957600081815260056020908152604091829020825160c0810184528154815260018201546001600160a01b039081169382019390935260028201549092169282019290925260038201546060820152600480830154919291608084019160ff90911690811115612c8157612c81614146565b6004811115612c9257612c92614146565b815260049190910154610100900460ff1615156020909101528351849084908110612cbf57612cbf614794565b60200260200101819052508180612cd5906147dd565b9250505b80612ce3816147dd565b915050612bac565b509095945050505050565b604051631dd178cb60e21b81526001600160a01b03821660048201526000908190819081903090637745e32c90602401608060405180830381865afa158015612d43573d6000803e3d6000fd5b505050506040513d601f19601f82011682018060405250810190612d679190614c10565b604080518581526020810185905290810183905260608101829052939750919550935091506001600160a01b038616907f90f7588ec65c7f86e339455a59758430e2e9badc1dbd87edc7aaf0d76a708f9b9060800160405180910390a25050505050565b60026020526000908152604090208054600182018054919291612ded90614a93565b80601f0160208091040260200160405190810160405280929190818152602001828054612e1990614a93565b8015612e665780601f10612e3b57610100808354040283529160200191612e66565b820191906000526020600020905b815481529060010190602001808311612e4957829003601f168201915b505050505090806002015490806003018054612e8190614a93565b80601f0160208091040260200160405190810160405280929190818152602001828054612ead90614a93565b8015612efa5780601f10612ecf57610100808354040283529160200191612efa565b820191906000526020600020905b815481529060010190602001808311612edd57829003601f168201915b5050505050905084565b6000546001600160a01b03163314612f2e5760405162461bcd60e51b815260040161087c90614a18565b600054600160a01b900460ff16612f875760405162461bcd60e51b815260206004820152601760248201527f436f6e7472616374206d75737420626520706175736564000000000000000000604482015260640161087c565b6000805460405147926001600160a01b039092169183156108fc02918491818181858888f19350505050158015612fc2573d6000803e3d6000fd5b50600054604080516001600160a01b039092168252602082018390527f23d6711a1d031134a36921253c75aa59e967d38e369ac625992824315e204f209101610f0b565b6130316040518060800160405280600081526020016060815260200160008152602001606081525090565b6001600160a01b03821660009081526002602052604081205490036130935760405162461bcd60e51b8152602060048201526018602482015277125b9cdc1958dd1bdc88191bd95cc81b9bdd08195e1a5cdd60421b604482015260640161087c565b6001600160a01b0382166000908152600260209081526040918290208251608081019093528054835260018101805491928401916130d090614a93565b80601f01602080910402602001604051908101604052809291908181526020018280546130fc90614a93565b80156131495780601f1061311e57610100808354040283529160200191613149565b820191906000526020600020905b81548152906001019060200180831161312c57829003601f168201915b505050505081526020016002820154815260200160038201805461316c90614a93565b80601f016020809104026020016040519081016040528092919081815260200182805461319890614a93565b80156131e55780601f106131ba576101008083540402835291602001916131e5565b820191906000526020600020905b8154815290600101906020018083116131c857829003601f168201915b5050505050815250509050919050565b6000808060015b600b60009054906101000a90046001600160a01b03166001600160a01b0316635ceaa7696040518163ffffffff1660e01b8152600401602060405180830381865afa15801561324f573d6000803e3d6000fd5b505050506040513d601f19601f8201168201806040525081019061327391906147f6565b811161338457600b54604051630d97ed9f60e31b8152600481018390526001600160a01b0390911690636cbf6cf890602401602060405180830381865afa1580156132c2573d6000803e3d6000fd5b505050506040513d601f19601f820116820180604052508101906132e691906149de565b1561337257600b546040516397e8e80760e01b8152600481018390526001600160a01b03909116906397e8e80790602401602060405180830381865afa158015613334573d6000803e3d6000fd5b505050506040513d601f19601f8201168201806040525081019061335891906147f6565b613362908461480f565b92508161336e816147dd565b9250505b8061337c816147dd565b9150506131fc565b506000811161339457600061339e565b61339e8183614bee565b9250505090565b6000546001600160a01b031633146133cf5760405162461bcd60e51b815260040161087c90614a18565b6001600160a01b0381166133f55760405162461bcd60e51b815260040161087c9061476b565b600080546040516001600160a01b03808516939216917f8be0079c531659141344cd1fd0a4f28419497f9722a3daafe3b4186f6b6457e091a3600080546001600160a01b0319166001600160a01b0392909216919091179055565b6001600160a01b0381166134765760405162461bcd60e51b815260040161087c9061476b565b600080516020614c7e8339815191528203613509576001600160a01b03811660009081527f42e0c820bcf782f2ae6b6ee3a83da7173685bb3cc1699ae87c54d87ed5da0f52602052604090205460ff166135095760405162461bcd60e51b81526020600482015260146024820152734d757374206861766520626173696320726f6c6560601b604482015260640161087c565b60008281526001602081815260408084206001600160a01b0386168086529252808420805460ff19169093179092559051909184917f8122312829fb608b8d31c14e44cba6826748abddc350818605bfc69eb7ff38479190a35050565b7f14823911f2da1b49f045a0929a60b8c1f2a7fc8c06c7284ca3e8ab4e193a08c882036135a5576135a5600080516020614c7e83398151915282613566565b60008281526001602090815260408083206001600160a01b0385168085529252808320805460ff1916905551909184917f155aaafb6329a2098580462df33ec4b7441b19729b9601c5fc17ae1cf99a8a529190a35050565b60008281526005602052604081209060048083015460ff169081111561362557613625614146565b1461362f57505050565b60008261363d576002613640565b60015b9050808260040160006101000a81548160ff0219169083600481111561366857613668614146565b021790555083600080516020614cbe83398151915282604051611fb591906149d0565b600061369b6301e1338042614bee565b9050816009600083815260200190815260200160002060008282546136c0919061480f565b909155507f49e590a505848215e21045e52f0a6ea4c21e69617292ed439a54ac15e1af18b390506136ef613cf3565b600083815260096020908152604091829020548251938452908301520160405180910390a1505050565b600b54604051633f832df760e21b8152600481018490526000916001600160a01b03169063fe0cb7dc90602401600060405180830381865afa158015613763573d6000803e3d6000fd5b505050506040513d6000823e601f3d908101601f1916820160405261378b919081019061488a565b6001600160a01b038616600090815260076020526040908190208151610100810190925280549293509181906137c290600161480f565b8152602001858152602001876001600160a01b03168152602001866001600160a01b031681526020016000815260200142815260200184600381111561380a5761380a614146565b815260209081018490528254600180820185556000948552938290208351601190920201908155908201518184015560408201516002820180546001600160a01b03199081166001600160a01b0393841617909155606084015160038085018054909316919093161790556080830151600483015560a0830151600583015560c0830151600683018054949593949193909260ff199092169184908111156138b4576138b4614146565b021790555060e082015180516007830190815560208201516008840155604082015160098401906138e59082614b1b565b5060608201516003820155608082015160048201906139049082614b1b565b5060a0820151600582015560c082015160068201906139239082614b1b565b5060e08201516007820155610100808301516008830180546101208601516101408701516001600160a81b0319909216931515610100600160a81b031916939093176001600160a01b039093169093029190911760ff60a81b1916600160a81b9215159290920291909117905561016082015160098201906139a59082614b1b565b505050506001600160a01b0385166000908152600760205260409081902081516101008101909252805490925081906139df90600161480f565b8152602001858152602001876001600160a01b03168152602001866001600160a01b0316815260200160008152602001428152602001846003811115613a2757613a27614146565b815260209081018490528254600180820185556000948552938290208351601190920201908155908201518184015560408201516002820180546001600160a01b03199081166001600160a01b0393841617909155606084015160038085018054909316919093161790556080830151600483015560a0830151600583015560c0830151600683018054949593949193909260ff19909216918490811115613ad157613ad1614146565b021790555060e08201518051600783019081556020820151600884015560408201516009840190613b029082614b1b565b506060820151600382015560808201516004820190613b219082614b1b565b5060a0820151600582015560c08201516006820190613b409082614b1b565b5060e08201516007820155610100808301516008830180546101208601516101408701516001600160a81b0319909216931515610100600160a81b031916939093176001600160a01b039093169093029190911760ff60a81b1916600160a81b921515929092029190911790556101608201516009820190613bc29082614b1b565b50505050505050505050565b806001600160a01b0383166108b55760405162461bcd60e51b815260040161087c9190614716565b60008083600003613c3e576040516304e0bc2760e11b8152602060048201526011602482015270496e76616c696420706167652073697a6560781b604482015260640161087c565b82600003613c5157506000905080613ceb565b6000846001613c60828761480f565b613c6a9190614bdb565b613c749190614bee565b9050808610613cbb576040516304e0bc2760e11b815260206004820152601260248201527150616765206f7574206f6620626f756e647360701b604482015260640161087c565b613cc58587614c46565b925083613cd2868561480f565b11613cdd5784613ce7565b613ce78385614bdb565b9150505b935093915050565b6000808060015b600b60009054906101000a90046001600160a01b03166001600160a01b0316635ceaa7696040518163ffffffff1660e01b8152600401602060405180830381865afa158015613d4d573d6000803e3d6000fd5b505050506040513d601f19601f82011682018060405250810190613d7191906147f6565b811161338457600b54604051630d97ed9f60e31b8152600481018390526001600160a01b0390911690636cbf6cf890602401602060405180830381865afa158015613dc0573d6000803e3d6000fd5b505050506040513d601f19601f82011682018060405250810190613de491906149de565b15613e7057600b546040516397e8e80760e01b8152600481018390526001600160a01b03909116906397e8e80790602401602060405180830381865afa158015613e32573d6000803e3d6000fd5b505050506040513d601f19601f82011682018060405250810190613e5691906147f6565b613e60908461480f565b925081613e6c816147dd565b9250505b80613e7a816147dd565b915050613cfa565b6040805160c081018252600080825260208201819052918101829052606081018290529060808201908152600060209091015290565b508054613ec490614a93565b6000825580601f10613ed4575050565b601f016020900490600052602060002090810190613ef29190613fce565b50565b604051806101000160405280600081526020016000815260200160006001600160a01b0316815260200160006001600160a01b03168152602001600081526020016000815260200160006003811115613f5057613f50614146565b8152602001613fc9604051806101800160405280600081526020016000815260200160608152602001600081526020016060815260200160008152602001606081526020016000801916815260200160001515815260200160006001600160a01b03168152602001600015158152602001606081525090565b905290565b5b80821115613fe35760008155600101613fcf565b5090565b6001600160a01b0381168114613ef257600080fd5b6000806040838503121561400f57600080fd5b82359150602083013561402181613fe7565b809150509250929050565b60006020828403121561403e57600080fd5b5035919050565b6000806040838503121561405857600080fd5b823561406381613fe7565b946020939093013593505050565b60008083601f84011261408357600080fd5b50813567ffffffffffffffff81111561409b57600080fd5b6020830191508360208260051b85010111156140b657600080fd5b9250929050565b600080600080604085870312156140d357600080fd5b843567ffffffffffffffff808211156140eb57600080fd5b6140f788838901614071565b9096509450602087013591508082111561411057600080fd5b5061411d87828801614071565b95989497509550505050565b60006020828403121561413b57600080fd5b813561197781613fe7565b634e487b7160e01b600052602160045260246000fd5b6005811061416c5761416c614146565b9052565b80518252602081015160018060a01b03808216602085015280604084015116604085015250506060810151606083015260808101516141b2608084018261415c565b5060a0908101511515910152565b6020808252825182820181905260009190848201906040850190845b81811015614202576141ef838551614170565b9284019260c092909201916001016141dc565b50909695505050505050565b60c0810161082a8284614170565b8015158114613ef257600080fd5b6000806040838503121561423d57600080fd5b8235915060208301356140218161421c565b8681526001600160a01b038681166020830152851660408201526060810184905260c08101614281608083018561415c565b82151560a0830152979650505050505050565b634e487b7160e01b600052604160045260246000fd5b604051610180810167ffffffffffffffff811182821017156142ce576142ce614294565b60405290565b604051601f8201601f1916810167ffffffffffffffff811182821017156142fd576142fd614294565b604052919050565b600067ffffffffffffffff82111561431f5761431f614294565b50601f01601f191660200190565b600082601f83011261433e57600080fd5b813561435161434c82614305565b6142d4565b81815284602083860101111561436657600080fd5b816020850160208301376000918101602001919091529392505050565b6000806000806080858703121561439957600080fd5b84356143a481613fe7565b9350602085013567ffffffffffffffff808211156143c157600080fd5b6143cd8883890161432d565b94506040870135935060608701359150808211156143ea57600080fd5b506143f78782880161432d565b91505092959194509250565b60008060006060848603121561441857600080fd5b833561442381613fe7565b95602085013595506040909401359392505050565b6004811061416c5761416c614146565b60005b8381101561446357818101518382015260200161444b565b50506000910152565b60008151808452614484816020860160208601614448565b601f01601f19169290920160200192915050565b6000610180825184526020830151602085015260408301518160408601526144c28286018261446c565b91505060608301516060850152608083015184820360808601526144e6828261446c565b91505060a083015160a085015260c083015184820360c086015261450a828261446c565b91505060e083015160e08501526101008084015161452b8287018215159052565b5050610120838101516001600160a01b031690850152610140808401511515908501526101608084015185830382870152614566838261446c565b9695505050505050565b60006020808352608080840185516060808588015282825180855260a094508489019150848160051b8a0101878501945060005b82811015614639578a8203609f19018452855180518352898101518a8401526040808201516001600160a01b03908116918501919091528682015116868401528881015189840152878101518884015260c080820151610100919061460b82870182614438565b505060e09182015191840181905261462584820183614498565b978b0197958b0195935050506001016145a4565b50968a015160408a810191909152909901519190970152509195945050505050565b6000806040838503121561466e57600080fd5b8235915060208301356005811061402157600080fd5b84815260806020820152600061469d608083018661446c565b84604084015282810360608401526146b5818561446c565b979650505050505050565b602081528151602082015260006020830151608060408401526146e660a084018261446c565b9050604084015160608401526060840151601f1984830301608085015261470d828261446c565b95945050505050565b602081526000611977602083018461446c565b60208082526022908201527f43616c6c657220646f6573206e6f74206861766520726571756972656420726f6040820152616c6560f01b606082015260800190565b6020808252600f908201526e496e76616c6964206164647265737360881b604082015260600190565b634e487b7160e01b600052603260045260246000fd5b6000602082840312156147bc57600080fd5b81356119778161421c565b634e487b7160e01b600052601160045260246000fd5b6000600182016147ef576147ef6147c7565b5060010190565b60006020828403121561480857600080fd5b5051919050565b8082018082111561082a5761082a6147c7565b600082601f83011261483357600080fd5b815161484161434c82614305565b81815284602083860101111561485657600080fd5b614867826020830160208701614448565b949350505050565b805161487a8161421c565b919050565b805161487a81613fe7565b60006020828403121561489c57600080fd5b815167ffffffffffffffff808211156148b457600080fd5b9083019061018082860312156148c957600080fd5b6148d16142aa565b82518152602083015160208201526040830151828111156148f157600080fd5b6148fd87828601614822565b6040830152506060830151606082015260808301518281111561491f57600080fd5b61492b87828601614822565b60808301525060a083015160a082015260c08301518281111561494d57600080fd5b61495987828601614822565b60c08301525060e083015160e082015261010061497781850161486f565b9082015261012061498984820161487f565b9082015261014061499b84820161486f565b9082015261016083810151838111156149b357600080fd5b6149bf88828701614822565b918301919091525095945050505050565b6020810161082a828461415c565b6000602082840312156149f057600080fd5b81516119778161421c565b600060208284031215614a0d57600080fd5b815161197781613fe7565b6020808252600d908201526c2737ba103a34329037bbb732b960991b604082015260600190565b6040808252600d908201526c1c1c9bd8d95cdcd7dcdd185c9d609a1b60608201526080810161082a602083018461415c565b604081526000614a84604083018561446c565b9050611977602083018461415c565b600181811c90821680614aa757607f821691505b602082108103614ac757634e487b7160e01b600052602260045260246000fd5b50919050565b601f8211156108b557600081815260208120601f850160051c81016020861015614af45750805b601f850160051c820191505b81811015614b1357828155600101614b00565b505050505050565b815167ffffffffffffffff811115614b3557614b35614294565b614b4981614b438454614a93565b84614acd565b602080601f831160018114614b7e5760008415614b665750858301515b600019600386901b1c1916600185901b178555614b13565b600085815260208120601f198616915b82811015614bad57888601518255948401946001909101908401614b8e565b5085821015614bcb5787850151600019600388901b60f8161c191681555b5050505050600190811b01905550565b8181038181111561082a5761082a6147c7565b600082614c0b57634e487b7160e01b600052601260045260246000fd5b500490565b60008060008060808587031215614c2657600080fd5b505082516020840151604085015160609095015191969095509092509050565b808202811582820484141761082a5761082a6147c756fe273dcf2136c7d8ef632bb8ef13dbca69a8f36fa620c7468671b3153d46a211c02ea52e8a0f8c1b6d1df1c2d3360b2e65af84e6442f1590d354ba73e1efac67c150efbde2d46c37e9785f1791697f77e94bb7b701e19f1930a668820722d376944174dda4135fb1df4e46301b4c0ca8b925e1cbe7839b10aac771f93d9fefa6f6a49807205ce4d355092ef5a8a18f56e8913cf4a201fbe287825b095693c21775a26469706673582212205c06e65d8abbc251afe4c3ea51c9abd5dc2ff48e6c747bb02d4406b19391c04f64736f6c63430008130033",
  "linkReferences": {},
  "deployedLinkReferences": {}
}