{
  "_format": "hh-sol-artifact-1",
  "contractName": "LandRegistry",
  "sourceName": "contracts/LandRegistry.sol",
  "abi": [
    {
      "inputs": [
        {
          "internalType": "address",
          "name": "_userRegistry",
          "type": "address"
        }
      ],
      "stateMutability": "nonpayable",
      "type": "constructor"
    },
    {
      "inputs": [
        {
          "internalType": "string",
          "name": "surveyNumber",
          "type": "string"
        }
      ],
      "name": "DuplicateSurveyNumber",
      "type": "error"
    },
    {
      "inputs": [
        {
          "internalType": "uint256",
          "name": "landId",
          "type": "uint256"
        }
      ],
      "name": "InvalidLand",
      "type": "error"
    },
    {
      "inputs": [
        {
          "internalType": "string",
          "name": "message",
          "type": "string"
        }
      ],
      "name": "InvalidPagination",
      "type": "error"
    },
    {
      "inputs": [
        {
          "internalType": "string",
          "name": "message",
          "type": "string"
        }
      ],
      "name": "UnauthorizedAccess",
      "type": "error"
    },
    {
      "inputs": [
        {
          "internalType": "address",
          "name": "caller",
          "type": "address"
        }
      ],
      "name": "UnauthorizedTransfer",
      "type": "error"
    },
    {
      "inputs": [
        {
          "internalType": "string",
          "name": "message",
          "type": "string"
        }
      ],
      "name": "ValidationError",
      "type": "error"
    },
    {
      "inputs": [
        {
          "internalType": "string",
          "name": "reason",
          "type": "string"
        }
      ],
      "name": "VerificationFailed",
      "type": "error"
    },
    {
      "anonymous": false,
      "inputs": [
        {
          "indexed": true,
          "internalType": "address",
          "name": "contractAddress",
          "type": "address"
        }
      ],
      "name": "ContractAuthorized",
      "type": "event"
    },
    {
      "anonymous": false,
      "inputs": [
        {
          "indexed": true,
          "internalType": "address",
          "name": "contractAddress",
          "type": "address"
        }
      ],
      "name": "ContractDeauthorized",
      "type": "event"
    },
    {
      "anonymous": false,
      "inputs": [
        {
          "indexed": true,
          "internalType": "uint256",
          "name": "landId",
          "type": "uint256"
        },
        {
          "indexed": false,
          "internalType": "bytes32",
          "name": "documentHash",
          "type": "bytes32"
        }
      ],
      "name": "DocumentAdded",
      "type": "event"
    },
    {
      "anonymous": false,
      "inputs": [
        {
          "indexed": false,
          "internalType": "address",
          "name": "owner",
          "type": "address"
        },
        {
          "indexed": false,
          "internalType": "uint256",
          "name": "amount",
          "type": "uint256"
        }
      ],
      "name": "EmergencyWithdrawal",
      "type": "event"
    },
    {
      "anonymous": false,
      "inputs": [
        {
          "indexed": true,
          "internalType": "address",
          "name": "inspector",
          "type": "address"
        },
        {
          "indexed": false,
          "internalType": "uint256",
          "name": "id",
          "type": "uint256"
        }
      ],
      "name": "InspectorAdded",
      "type": "event"
    },
    {
      "anonymous": false,
      "inputs": [
        {
          "indexed": true,
          "internalType": "address",
          "name": "inspector",
          "type": "address"
        },
        {
          "indexed": false,
          "internalType": "uint256",
          "name": "id",
          "type": "uint256"
        }
      ],
      "name": "InspectorRemoved",
      "type": "event"
    },
    {
      "anonymous": false,
      "inputs": [
        {
          "indexed": true,
          "internalType": "uint256",
          "name": "landId",
          "type": "uint256"
        },
        {
          "indexed": true,
          "internalType": "address",
          "name": "owner",
          "type": "address"
        }
      ],
      "name": "LandAdded",
      "type": "event"
    },
    {
      "anonymous": false,
      "inputs": [
        {
          "indexed": true,
          "internalType": "uint256",
          "name": "landId",
          "type": "uint256"
        },
        {
          "indexed": false,
          "internalType": "string",
          "name": "reason",
          "type": "string"
        }
      ],
      "name": "LandRejected",
      "type": "event"
    },
    {
      "anonymous": false,
      "inputs": [
        {
          "indexed": true,
          "internalType": "uint256",
          "name": "landId",
          "type": "uint256"
        }
      ],
      "name": "LandRemoved",
      "type": "event"
    },
    {
      "anonymous": false,
      "inputs": [
        {
          "indexed": true,
          "internalType": "uint256",
          "name": "landId",
          "type": "uint256"
        },
        {
          "indexed": false,
          "internalType": "string",
          "name": "reason",
          "type": "string"
        }
      ],
      "name": "LandTransferFailed",
      "type": "event"
    },
    {
      "anonymous": false,
      "inputs": [
        {
          "indexed": true,
          "internalType": "uint256",
          "name": "landId",
          "type": "uint256"
        },
        {
          "indexed": false,
          "internalType": "enum LandRegistry.LandUpdateType",
          "name": "updateType",
          "type": "uint8"
        },
        {
          "indexed": false,
          "internalType": "string",
          "name": "details",
          "type": "string"
        },
        {
          "indexed": false,
          "internalType": "uint256",
          "name": "newValue",
          "type": "uint256"
        }
      ],
      "name": "LandUpdated",
      "type": "event"
    },
    {
      "anonymous": false,
      "inputs": [
        {
          "indexed": true,
          "internalType": "uint256",
          "name": "landId",
          "type": "uint256"
        },
        {
          "indexed": false,
          "internalType": "string",
          "name": "reason",
          "type": "string"
        }
      ],
      "name": "LandVerificationFailed",
      "type": "event"
    },
    {
      "anonymous": false,
      "inputs": [
        {
          "indexed": true,
          "internalType": "uint256",
          "name": "landId",
          "type": "uint256"
        }
      ],
      "name": "LandVerified",
      "type": "event"
    },
    {
      "anonymous": false,
      "inputs": [
        {
          "indexed": true,
          "internalType": "address",
          "name": "previousOwner",
          "type": "address"
        },
        {
          "indexed": true,
          "internalType": "address",
          "name": "newOwner",
          "type": "address"
        }
      ],
      "name": "OwnershipTransferred",
      "type": "event"
    },
    {
      "anonymous": false,
      "inputs": [
        {
          "indexed": false,
          "internalType": "address",
          "name": "account",
          "type": "address"
        }
      ],
      "name": "Paused",
      "type": "event"
    },
    {
      "anonymous": false,
      "inputs": [
        {
          "indexed": true,
          "internalType": "bytes32",
          "name": "role",
          "type": "bytes32"
        },
        {
          "indexed": true,
          "internalType": "address",
          "name": "account",
          "type": "address"
        }
      ],
      "name": "RoleAssigned",
      "type": "event"
    },
    {
      "anonymous": false,
      "inputs": [
        {
          "indexed": true,
          "internalType": "bytes32",
          "name": "role",
          "type": "bytes32"
        },
        {
          "indexed": true,
          "internalType": "address",
          "name": "account",
          "type": "address"
        }
      ],
      "name": "RoleRevoked",
      "type": "event"
    },
    {
      "anonymous": false,
      "inputs": [
        {
          "indexed": false,
          "internalType": "address",
          "name": "account",
          "type": "address"
        }
      ],
      "name": "Unpaused",
      "type": "event"
    },
    {
      "inputs": [],
      "name": "ADMIN_ROLE",
      "outputs": [
        {
          "internalType": "bytes32",
          "name": "",
          "type": "bytes32"
        }
      ],
      "stateMutability": "view",
      "type": "function"
    },
    {
      "inputs": [],
      "name": "INSPECTOR_ROLE",
      "outputs": [
        {
          "internalType": "bytes32",
          "name": "",
          "type": "bytes32"
        }
      ],
      "stateMutability": "view",
      "type": "function"
    },
    {
      "inputs": [],
      "name": "MAX_DOCUMENTS_PER_LAND",
      "outputs": [
        {
          "internalType": "uint256",
          "name": "",
          "type": "uint256"
        }
      ],
      "stateMutability": "view",
      "type": "function"
    },
    {
      "inputs": [],
      "name": "MAX_HISTORY_PER_LAND",
      "outputs": [
        {
          "internalType": "uint256",
          "name": "",
          "type": "uint256"
        }
      ],
      "stateMutability": "view",
      "type": "function"
    },
    {
      "inputs": [],
      "name": "USER_ROLE",
      "outputs": [
        {
          "internalType": "bytes32",
          "name": "",
          "type": "bytes32"
        }
      ],
      "stateMutability": "view",
      "type": "function"
    },
    {
      "inputs": [],
      "name": "VERIFIED_USER_ROLE",
      "outputs": [
        {
          "internalType": "bytes32",
          "name": "",
          "type": "bytes32"
        }
      ],
      "stateMutability": "view",
      "type": "function"
    },
    {
      "inputs": [],
      "name": "VERSION",
      "outputs": [
        {
          "internalType": "string",
          "name": "",
          "type": "string"
        }
      ],
      "stateMutability": "view",
      "type": "function"
    },
    {
      "inputs": [
        {
          "internalType": "address",
          "name": "_inspector",
          "type": "address"
        },
        {
          "internalType": "string",
          "name": "_name",
          "type": "string"
        },
        {
          "internalType": "uint256",
          "name": "_age",
          "type": "uint256"
        },
        {
          "internalType": "string",
          "name": "_designation",
          "type": "string"
        }
      ],
      "name": "addInspector",
      "outputs": [],
      "stateMutability": "nonpayable",
      "type": "function"
    },
    {
      "inputs": [
        {
          "internalType": "uint256",
          "name": "_area",
          "type": "uint256"
        },
        {
          "internalType": "string",
          "name": "_location",
          "type": "string"
        },
        {
          "internalType": "uint256",
          "name": "_price",
          "type": "uint256"
        },
        {
          "internalType": "string",
          "name": "_coordinates",
          "type": "string"
        },
        {
          "internalType": "uint256",
          "name": "_propertyPID",
          "type": "uint256"
        },
        {
          "internalType": "string",
          "name": "_surveyNumber",
          "type": "string"
        },
        {
          "internalType": "bytes32",
          "name": "_documentHash",
          "type": "bytes32"
        }
      ],
      "name": "addLand",
      "outputs": [],
      "stateMutability": "nonpayable",
      "type": "function"
    },
    {
      "inputs": [
        {
          "internalType": "uint256",
          "name": "_landId",
          "type": "uint256"
        },
        {
          "internalType": "bytes32",
          "name": "_documentHash",
          "type": "bytes32"
        },
        {
          "internalType": "string",
          "name": "_description",
          "type": "string"
        }
      ],
      "name": "addLandDocument",
      "outputs": [],
      "stateMutability": "nonpayable",
      "type": "function"
    },
    {
      "inputs": [
        {
          "internalType": "address",
          "name": "user",
          "type": "address"
        },
        {
          "internalType": "bytes32",
          "name": "role",
          "type": "bytes32"
        }
      ],
      "name": "assignRole",
      "outputs": [],
      "stateMutability": "nonpayable",
      "type": "function"
    },
    {
      "inputs": [
        {
          "internalType": "address",
          "name": "_transactionRegistry",
          "type": "address"
        }
      ],
      "name": "authorizeTransactionRegistry",
      "outputs": [],
      "stateMutability": "nonpayable",
      "type": "function"
    },
    {
      "inputs": [
        {
          "internalType": "address",
          "name": "",
          "type": "address"
        }
      ],
      "name": "authorizedContracts",
      "outputs": [
        {
          "internalType": "bool",
          "name": "",
          "type": "bool"
        }
      ],
      "stateMutability": "view",
      "type": "function"
    },
    {
      "inputs": [
        {
          "internalType": "uint256[]",
          "name": "landIds",
          "type": "uint256[]"
        }
      ],
      "name": "batchVerifyLands",
      "outputs": [],
      "stateMutability": "nonpayable",
      "type": "function"
    },
    {
      "inputs": [
        {
          "internalType": "bytes32",
          "name": "role",
          "type": "bytes32"
        },
        {
          "internalType": "address",
          "name": "user",
          "type": "address"
        }
      ],
      "name": "checkRole",
      "outputs": [
        {
          "internalType": "bool",
          "name": "",
          "type": "bool"
        }
      ],
      "stateMutability": "view",
      "type": "function"
    },
    {
      "inputs": [],
      "name": "emergencyWithdraw",
      "outputs": [],
      "stateMutability": "nonpayable",
      "type": "function"
    },
    {
      "inputs": [
        {
          "internalType": "address",
          "name": "_inspector",
          "type": "address"
        }
      ],
      "name": "getInspector",
      "outputs": [
        {
          "components": [
            {
              "internalType": "uint256",
              "name": "id",
              "type": "uint256"
            },
            {
              "internalType": "string",
              "name": "name",
              "type": "string"
            },
            {
              "internalType": "uint256",
              "name": "age",
              "type": "uint256"
            },
            {
              "internalType": "string",
              "name": "designation",
              "type": "string"
            }
          ],
          "internalType": "struct BaseRegistry.LandInspector",
          "name": "",
          "type": "tuple"
        }
      ],
      "stateMutability": "view",
      "type": "function"
    },
    {
      "inputs": [],
      "name": "getLandCount",
      "outputs": [
        {
          "internalType": "uint256",
          "name": "",
          "type": "uint256"
        }
      ],
      "stateMutability": "view",
      "type": "function"
    },
    {
      "inputs": [
        {
          "internalType": "uint256",
          "name": "_landId",
          "type": "uint256"
        }
      ],
      "name": "getLandDetails",
      "outputs": [
        {
          "components": [
            {
              "internalType": "uint256",
              "name": "id",
              "type": "uint256"
            },
            {
              "internalType": "uint256",
              "name": "area",
              "type": "uint256"
            },
            {
              "internalType": "string",
              "name": "location",
              "type": "string"
            },
            {
              "internalType": "uint256",
              "name": "price",
              "type": "uint256"
            },
            {
              "internalType": "string",
              "name": "coordinates",
              "type": "string"
            },
            {
              "internalType": "uint256",
              "name": "propertyPID",
              "type": "uint256"
            },
            {
              "internalType": "string",
              "name": "surveyNumber",
              "type": "string"
            },
            {
              "internalType": "bytes32",
              "name": "documentHash",
              "type": "bytes32"
            },
            {
              "internalType": "bool",
              "name": "isForSale",
              "type": "bool"
            },
            {
              "internalType": "address payable",
              "name": "owner",
              "type": "address"
            },
            {
              "internalType": "bool",
              "name": "isVerified",
              "type": "bool"
            },
            {
              "internalType": "string",
              "name": "verificationRemark",
              "type": "string"
            }
          ],
          "internalType": "struct LandRegistry.Land",
          "name": "",
          "type": "tuple"
        }
      ],
      "stateMutability": "view",
      "type": "function"
    },
    {
      "inputs": [
        {
          "internalType": "uint256",
          "name": "_landId",
          "type": "uint256"
        },
        {
          "internalType": "uint256",
          "name": "offset",
          "type": "uint256"
        },
        {
          "internalType": "uint256",
          "name": "limit",
          "type": "uint256"
        }
      ],
      "name": "getLandHistory",
      "outputs": [
        {
          "components": [
            {
              "internalType": "address",
              "name": "previousOwner",
              "type": "address"
            },
            {
              "internalType": "address",
              "name": "newOwner",
              "type": "address"
            },
            {
              "internalType": "uint256",
              "name": "price",
              "type": "uint256"
            },
            {
              "internalType": "uint256",
              "name": "timestamp",
              "type": "uint256"
            },
            {
              "internalType": "bytes32",
              "name": "documentHash",
              "type": "bytes32"
            },
            {
              "internalType": "string",
              "name": "description",
              "type": "string"
            }
          ],
          "internalType": "struct LandRegistry.LandHistory[]",
          "name": "",
          "type": "tuple[]"
        }
      ],
      "stateMutability": "view",
      "type": "function"
    },
    {
      "inputs": [
        {
          "internalType": "uint256",
          "name": "_landId",
          "type": "uint256"
        }
      ],
      "name": "getLandMetadata",
      "outputs": [
        {
          "internalType": "bytes32[]",
          "name": "documents",
          "type": "bytes32[]"
        },
        {
          "internalType": "string[]",
          "name": "descriptions",
          "type": "string[]"
        },
        {
          "internalType": "uint256",
          "name": "lastUpdated",
          "type": "uint256"
        }
      ],
      "stateMutability": "view",
      "type": "function"
    },
    {
      "inputs": [
        {
          "internalType": "uint256",
          "name": "landId",
          "type": "uint256"
        }
      ],
      "name": "getLandOwner",
      "outputs": [
        {
          "internalType": "address payable",
          "name": "",
          "type": "address"
        }
      ],
      "stateMutability": "view",
      "type": "function"
    },
    {
      "inputs": [
        {
          "internalType": "uint256",
          "name": "landId",
          "type": "uint256"
        }
      ],
      "name": "getLandPrice",
      "outputs": [
        {
          "internalType": "uint256",
          "name": "",
          "type": "uint256"
        }
      ],
      "stateMutability": "view",
      "type": "function"
    },
    {
      "inputs": [
        {
          "internalType": "uint256",
          "name": "_landId",
          "type": "uint256"
        }
      ],
      "name": "getLandVerificationRemark",
      "outputs": [
        {
          "internalType": "string",
          "name": "",
          "type": "string"
        }
      ],
      "stateMutability": "view",
      "type": "function"
    },
    {
      "inputs": [
        {
          "internalType": "uint256",
          "name": "page",
          "type": "uint256"
        },
        {
          "internalType": "uint256",
          "name": "pageSize",
          "type": "uint256"
        }
      ],
      "name": "getLandsByPage",
      "outputs": [
        {
          "components": [
            {
              "internalType": "uint256",
              "name": "id",
              "type": "uint256"
            },
            {
              "internalType": "uint256",
              "name": "area",
              "type": "uint256"
            },
            {
              "internalType": "string",
              "name": "location",
              "type": "string"
            },
            {
              "internalType": "uint256",
              "name": "price",
              "type": "uint256"
            },
            {
              "internalType": "string",
              "name": "coordinates",
              "type": "string"
            },
            {
              "internalType": "uint256",
              "name": "propertyPID",
              "type": "uint256"
            },
            {
              "internalType": "string",
              "name": "surveyNumber",
              "type": "string"
            },
            {
              "internalType": "bytes32",
              "name": "documentHash",
              "type": "bytes32"
            },
            {
              "internalType": "bool",
              "name": "isForSale",
              "type": "bool"
            },
            {
              "internalType": "address payable",
              "name": "owner",
              "type": "address"
            },
            {
              "internalType": "bool",
              "name": "isVerified",
              "type": "bool"
            },
            {
              "internalType": "string",
              "name": "verificationRemark",
              "type": "string"
            }
          ],
          "internalType": "struct LandRegistry.Land[]",
          "name": "result",
          "type": "tuple[]"
        },
        {
          "internalType": "uint256",
          "name": "totalPages",
          "type": "uint256"
        },
        {
          "internalType": "uint256",
          "name": "totalItems",
          "type": "uint256"
        }
      ],
      "stateMutability": "view",
      "type": "function"
    },
    {
      "inputs": [
        {
          "internalType": "uint256",
          "name": "minPrice",
          "type": "uint256"
        },
        {
          "internalType": "uint256",
          "name": "maxPrice",
          "type": "uint256"
        },
        {
          "internalType": "string",
          "name": "location",
          "type": "string"
        }
      ],
      "name": "getLandsForSale",
      "outputs": [
        {
          "components": [
            {
              "internalType": "uint256",
              "name": "id",
              "type": "uint256"
            },
            {
              "internalType": "uint256",
              "name": "area",
              "type": "uint256"
            },
            {
              "internalType": "string",
              "name": "location",
              "type": "string"
            },
            {
              "internalType": "uint256",
              "name": "price",
              "type": "uint256"
            },
            {
              "internalType": "string",
              "name": "coordinates",
              "type": "string"
            },
            {
              "internalType": "uint256",
              "name": "propertyPID",
              "type": "uint256"
            },
            {
              "internalType": "string",
              "name": "surveyNumber",
              "type": "string"
            },
            {
              "internalType": "bytes32",
              "name": "documentHash",
              "type": "bytes32"
            },
            {
              "internalType": "bool",
              "name": "isForSale",
              "type": "bool"
            },
            {
              "internalType": "address payable",
              "name": "owner",
              "type": "address"
            },
            {
              "internalType": "bool",
              "name": "isVerified",
              "type": "bool"
            },
            {
              "internalType": "string",
              "name": "verificationRemark",
              "type": "string"
            }
          ],
          "internalType": "struct LandRegistry.Land[]",
          "name": "",
          "type": "tuple[]"
        }
      ],
      "stateMutability": "view",
      "type": "function"
    },
    {
      "inputs": [],
      "name": "getPendingVerifications",
      "outputs": [
        {
          "internalType": "uint256[]",
          "name": "",
          "type": "uint256[]"
        }
      ],
      "stateMutability": "view",
      "type": "function"
    },
    {
      "inputs": [],
      "name": "getTotalLands",
      "outputs": [
        {
          "internalType": "uint256",
          "name": "",
          "type": "uint256"
        }
      ],
      "stateMutability": "view",
      "type": "function"
    },
    {
      "inputs": [
        {
          "internalType": "address",
          "name": "_user",
          "type": "address"
        }
      ],
      "name": "getUserLands",
      "outputs": [
        {
          "internalType": "uint256[]",
          "name": "",
          "type": "uint256[]"
        }
      ],
      "stateMutability": "view",
      "type": "function"
    },
    {
      "inputs": [
        {
          "internalType": "address",
          "name": "",
          "type": "address"
        }
      ],
      "name": "inspectors",
      "outputs": [
        {
          "internalType": "uint256",
          "name": "id",
          "type": "uint256"
        },
        {
          "internalType": "string",
          "name": "name",
          "type": "string"
        },
        {
          "internalType": "uint256",
          "name": "age",
          "type": "uint256"
        },
        {
          "internalType": "string",
          "name": "designation",
          "type": "string"
        }
      ],
      "stateMutability": "view",
      "type": "function"
    },
    {
      "inputs": [
        {
          "internalType": "address",
          "name": "_contract",
          "type": "address"
        }
      ],
      "name": "isContractAuthorized",
      "outputs": [
        {
          "internalType": "bool",
          "name": "",
          "type": "bool"
        }
      ],
      "stateMutability": "view",
      "type": "function"
    },
    {
      "inputs": [
        {
          "internalType": "uint256",
          "name": "landId",
          "type": "uint256"
        }
      ],
      "name": "isLandForSale",
      "outputs": [
        {
          "internalType": "bool",
          "name": "",
          "type": "bool"
        }
      ],
      "stateMutability": "view",
      "type": "function"
    },
    {
      "inputs": [
        {
          "internalType": "uint256",
          "name": "propertyPID",
          "type": "uint256"
        },
        {
          "internalType": "string",
          "name": "surveyNumber",
          "type": "string"
        }
      ],
      "name": "isLandIdentifierAvailable",
      "outputs": [
        {
          "internalType": "bool",
          "name": "pidAvailable",
          "type": "bool"
        },
        {
          "internalType": "bool",
          "name": "surveyAvailable",
          "type": "bool"
        }
      ],
      "stateMutability": "view",
      "type": "function"
    },
    {
      "inputs": [
        {
          "internalType": "uint256",
          "name": "landId",
          "type": "uint256"
        }
      ],
      "name": "isLandVerified",
      "outputs": [
        {
          "internalType": "bool",
          "name": "",
          "type": "bool"
        }
      ],
      "stateMutability": "view",
      "type": "function"
    },
    {
      "inputs": [
        {
          "internalType": "uint256",
          "name": "",
          "type": "uint256"
        },
        {
          "internalType": "uint256",
          "name": "",
          "type": "uint256"
        }
      ],
      "name": "landHistories",
      "outputs": [
        {
          "internalType": "address",
          "name": "previousOwner",
          "type": "address"
        },
        {
          "internalType": "address",
          "name": "newOwner",
          "type": "address"
        },
        {
          "internalType": "uint256",
          "name": "price",
          "type": "uint256"
        },
        {
          "internalType": "uint256",
          "name": "timestamp",
          "type": "uint256"
        },
        {
          "internalType": "bytes32",
          "name": "documentHash",
          "type": "bytes32"
        },
        {
          "internalType": "string",
          "name": "description",
          "type": "string"
        }
      ],
      "stateMutability": "view",
      "type": "function"
    },
    {
      "inputs": [
        {
          "internalType": "uint256",
          "name": "",
          "type": "uint256"
        }
      ],
      "name": "landMetadata",
      "outputs": [
        {
          "internalType": "uint256",
          "name": "lastUpdated",
          "type": "uint256"
        }
      ],
      "stateMutability": "view",
      "type": "function"
    },
    {
      "inputs": [
        {
          "internalType": "uint256",
          "name": "",
          "type": "uint256"
        }
      ],
      "name": "lands",
      "outputs": [
        {
          "internalType": "uint256",
          "name": "id",
          "type": "uint256"
        },
        {
          "internalType": "uint256",
          "name": "area",
          "type": "uint256"
        },
        {
          "internalType": "string",
          "name": "location",
          "type": "string"
        },
        {
          "internalType": "uint256",
          "name": "price",
          "type": "uint256"
        },
        {
          "internalType": "string",
          "name": "coordinates",
          "type": "string"
        },
        {
          "internalType": "uint256",
          "name": "propertyPID",
          "type": "uint256"
        },
        {
          "internalType": "string",
          "name": "surveyNumber",
          "type": "string"
        },
        {
          "internalType": "bytes32",
          "name": "documentHash",
          "type": "bytes32"
        },
        {
          "internalType": "bool",
          "name": "isForSale",
          "type": "bool"
        },
        {
          "internalType": "address payable",
          "name": "owner",
          "type": "address"
        },
        {
          "internalType": "bool",
          "name": "isVerified",
          "type": "bool"
        },
        {
          "internalType": "string",
          "name": "verificationRemark",
          "type": "string"
        }
      ],
      "stateMutability": "view",
      "type": "function"
    },
    {
      "inputs": [],
      "name": "owner",
      "outputs": [
        {
          "internalType": "address",
          "name": "",
          "type": "address"
        }
      ],
      "stateMutability": "view",
      "type": "function"
    },
    {
      "inputs": [],
      "name": "pause",
      "outputs": [],
      "stateMutability": "nonpayable",
      "type": "function"
    },
    {
      "inputs": [],
      "name": "paused",
      "outputs": [
        {
          "internalType": "bool",
          "name": "",
          "type": "bool"
        }
      ],
      "stateMutability": "view",
      "type": "function"
    },
    {
      "inputs": [
        {
          "internalType": "uint256",
          "name": "_landId",
          "type": "uint256"
        }
      ],
      "name": "putLandForSale",
      "outputs": [],
      "stateMutability": "nonpayable",
      "type": "function"
    },
    {
      "inputs": [
        {
          "internalType": "address",
          "name": "_inspector",
          "type": "address"
        }
      ],
      "name": "removeInspector",
      "outputs": [],
      "stateMutability": "nonpayable",
      "type": "function"
    },
    {
      "inputs": [
        {
          "internalType": "uint256",
          "name": "_landId",
          "type": "uint256"
        }
      ],
      "name": "removeLand",
      "outputs": [],
      "stateMutability": "nonpayable",
      "type": "function"
    },
    {
      "inputs": [
        {
          "internalType": "address",
          "name": "user",
          "type": "address"
        },
        {
          "internalType": "bytes32",
          "name": "role",
          "type": "bytes32"
        }
      ],
      "name": "revokeRole",
      "outputs": [],
      "stateMutability": "nonpayable",
      "type": "function"
    },
    {
      "inputs": [
        {
          "internalType": "uint256",
          "name": "_landId",
          "type": "uint256"
        }
      ],
      "name": "takeLandOffSale",
      "outputs": [],
      "stateMutability": "nonpayable",
      "type": "function"
    },
    {
      "inputs": [
        {
          "internalType": "uint256",
          "name": "_landId",
          "type": "uint256"
        },
        {
          "internalType": "address",
          "name": "_newOwner",
          "type": "address"
        },
        {
          "internalType": "bytes32",
          "name": "_newDocumentHash",
          "type": "bytes32"
        }
      ],
      "name": "transferLandOwnership",
      "outputs": [],
      "stateMutability": "nonpayable",
      "type": "function"
    },
    {
      "inputs": [
        {
          "internalType": "address",
          "name": "newOwner",
          "type": "address"
        }
      ],
      "name": "transferOwnership",
      "outputs": [],
      "stateMutability": "nonpayable",
      "type": "function"
    },
    {
      "inputs": [],
      "name": "unpause",
      "outputs": [],
      "stateMutability": "nonpayable",
      "type": "function"
    },
    {
      "inputs": [
        {
          "internalType": "uint256",
          "name": "_landId",
          "type": "uint256"
        },
        {
          "internalType": "uint256",
          "name": "_newPrice",
          "type": "uint256"
        }
      ],
      "name": "updateLandPrice",
      "outputs": [],
      "stateMutability": "nonpayable",
      "type": "function"
    },
    {
      "inputs": [
        {
          "internalType": "address",
          "name": "",
          "type": "address"
        },
        {
          "internalType": "uint256",
          "name": "",
          "type": "uint256"
        }
      ],
      "name": "userLands",
      "outputs": [
        {
          "internalType": "uint256",
          "name": "",
          "type": "uint256"
        }
      ],
      "stateMutability": "view",
      "type": "function"
    },
    {
      "inputs": [],
      "name": "userRegistry",
      "outputs": [
        {
          "internalType": "address",
          "name": "",
          "type": "address"
        }
      ],
      "stateMutability": "view",
      "type": "function"
    },
    {
      "inputs": [
        {
          "internalType": "uint256",
          "name": "_landId",
          "type": "uint256"
        },
        {
          "internalType": "bool",
          "name": "isApproved",
          "type": "bool"
        },
        {
          "internalType": "string",
          "name": "_reason",
          "type": "string"
        }
      ],
      "name": "verifyLand",
      "outputs": [],
      "stateMutability": "nonpayable",
      "type": "function"
    }
  ],
  "bytecode": "0x60806040523480156200001157600080fd5b5060405162005b5938038062005b598339810160408190526200003491620000ee565b600080546001600160a01b0319163390811782558082527f50efbde2d46c37e9785f1791697f77e94bb7b701e19f1930a668820722d376946020526040808320805460ff191660011790555190917fa49807205ce4d355092ef5a8a18f56e8913cf4a201fbe287825b095693c21775917f8122312829fb608b8d31c14e44cba6826748abddc350818605bfc69eb7ff38479190a3600480546001600160a01b0319166001600160a01b039290921691909117905562000120565b6000602082840312156200010157600080fd5b81516001600160a01b03811681146200011957600080fd5b9392505050565b615a2980620001306000396000f3fe608060405234801561001057600080fd5b506004361061030c5760003560e01c806377d90c661161019d578063d5dd1657116100e9578063e3b4aa58116100a2578063f88bd0bf1161007c578063f88bd0bf146107d0578063f8aa26ee146107f0578063fe0cb7dc14610813578063ffa1ad741461083357600080fd5b8063e3b4aa5814610773578063e8f7dfcf1461079d578063f2fde38b146107bd57600080fd5b8063d5dd1657146106ed578063db2e21bc14610710578063dc219adc14610718578063dc2f3ab11461072b578063e261f1e514610733578063e3a3c5221461075e57600080fd5b80638903effe116101565780639ca5caf6116101305780639ca5caf614610671578063b7a299fb14610691578063c7751bab146106a4578063d5b9221b146106ca57600080fd5b80638903effe146106285780638da5cb5b1461063b57806397e8e8071461064e57600080fd5b806377d90c66146105df5780637ad7289c146105f25780637c70e791146105fa5780637f092fa91461060d578063842e7dba1461054d5780638456cb591461062057600080fd5b8063406555cf1161025c5780635c975abb116102155780635f06e635116101ef5780635f06e635146105685780636c2a4ed21461057b5780636cbf6cf81461059d57806375b238fc146105ca57600080fd5b80635c975abb146105395780635ceaa7691461054d5780635cf23e0f1461055557600080fd5b8063406555cf146104a857806345147bc2146104cd57806345fb1225146104e05780634c33fbb7146104f357806350c6af15146105065780635c7460d61461052857600080fd5b80631d9486de116102c957806337d4099a116102a357806337d4099a14610465578063388b4ffd146104855780633e64f39b146104985780633f4ba83a146104a057600080fd5b80631d9486de1461041f578063208dd1ff1461043257806328bf5ef51461044557600080fd5b80630f5bbd9714610311578063103aeda71461032657806312d9a6ad14610367578063131191611461037a5780631869a38b146103af5780631893eae8146103f8575b600080fd5b61032461031f366004614bc8565b610857565b005b610352610334366004614bfd565b6001600160a01b03166000908152600d602052604090205460ff1690565b60405190151581526020015b60405180910390f35b610352610375366004614c1f565b610972565b6103a17f14823911f2da1b49f045a0929a60b8c1f2a7fc8c06c7284ca3e8ab4e193a08c881565b60405190815260200161035e565b6103e06103bd366004614bc8565b60009081526006602052604090206008015461010090046001600160a01b031690565b6040516001600160a01b03909116815260200161035e565b6103a17f2ea52e8a0f8c1b6d1df1c2d3360b2e65af84e6442f1590d354ba73e1efac67c181565b61032461042d366004614c4b565b61099f565b610324610440366004614c4b565b610a20565b610458610453366004614bfd565b610b02565b60405161035e9190614c75565b610478610473366004614cad565b610b6e565b60405161035e9190614d29565b610324610493366004614dd4565b610ddf565b610458610f23565b610324611108565b6104bb6104b6366004614e49565b6111ea565b60405161035e96959493929190614e6b565b6103246104db366004614f57565b6112d9565b6103246104ee366004615006565b611616565b610324610501366004614e49565b6117cb565b610519610514366004614e49565b61197a565b60405161035e93929190615168565b6004546001600160a01b03166103e0565b60005461035290600160a01b900460ff1681565b6005546103a1565b61032461056336600461519b565b611da3565b610324610576366004614bfd565b612158565b61058e610589366004614bc8565b6121f4565b60405161035e939291906151f4565b6103526105ab366004614bc8565b600090815260066020526040902060080154600160a81b900460ff1690565b6103a16000805160206159d483398151915281565b6103246105ed366004614bc8565b612345565b6103a1603281565b610324610608366004614bfd565b61249f565b61032461061b366004614bc8565b612665565b610324612778565b610324610636366004615295565b612861565b6000546103e0906001600160a01b031681565b6103a161065c366004614bc8565b60009081526006602052604090206003015490565b61068461067f366004614bc8565b612b5f565b60405161035e9190615313565b61032461069f366004615326565b612bfa565b6103526106b2366004614bc8565b60009081526006602052604090206008015460ff1690565b6103526106d8366004614bfd565b600d6020526000908152604090205460ff1681565b6107006106fb366004614bfd565b612f17565b60405161035e9493929190615360565b610324613050565b6103a1610726366004614c4b565b613152565b6103a1606481565b610746610741366004614bc8565b613183565b60405161035e9c9b9a9998979695949392919061539c565b6103a160008051602061597483398151915281565b610786610781366004615441565b613412565b60408051921515835290151560208301520161035e565b6107b06107ab366004614bfd565b613459565b60405161035e9190615488565b6103246107cb366004614bfd565b613648565b6107e36107de366004615326565b6136f3565b60405161035e91906154de565b6103a16107fe366004614bc8565b60086020526000908152604090206002015481565b610826610821366004614bc8565b613bd6565b60405161035e91906154f1565b610684604051806040016040528060058152602001640312e302e360dc1b81525081565b600081815260066020526040902060080154819061010090046001600160a01b031633146108a05760405162461bcd60e51b815260040161089790615504565b60405180910390fd5b600081815260066020526040902060080154600160a81b900460ff166108d85760405162461bcd60e51b815260040161089790615530565b60008281526006602052604090206008015460ff1661092d5760405162461bcd60e51b81526020600482015260116024820152704c616e64206e6f7420666f722073616c6560781b6044820152606401610897565b600082815260066020526040808220600801805460ff19169055518391600080516020615994833981519152916109669190819061557d565b60405180910390a25050565b60008281526001602090815260408083206001600160a01b038516845290915290205460ff165b92915050565b3360009081526000805160206159b483398151915260205260409020546000805160206159d48339815191529060ff166109eb5760405162461bcd60e51b8152600401610897906155a6565b6001600160a01b038316610a115760405162461bcd60e51b8152600401610897906155e8565b610a1b8284613e4f565b505050565b3360009081526000805160206159b483398151915260205260409020546000805160206159d48339815191529060ff16610a6c5760405162461bcd60e51b8152600401610897906155a6565b6001600160a01b038316610a925760405162461bcd60e51b8152600401610897906155e8565b60008281526001602090815260408083206001600160a01b038716845290915290205460ff16610af85760405162461bcd60e51b8152602060048201526011602482015270149bdb19481b9bdd08185cdcda59db9959607a1b6044820152606401610897565b610a1b8284613f77565b6001600160a01b038116600090815260076020908152604091829020805483518184028101840190945280845260609392830182828015610b6257602002820191906000526020600020905b815481526020019060010190808311610b4e575b50505050509050919050565b600083815260096020526040902054606090808410610bc05760405162461bcd60e51b815260206004820152600e60248201526d125b9d985b1a59081bd9999cd95d60921b6044820152606401610897565b600081610bcd8587615627565b11610bd85783610be2565b610be2858361563a565b905060008167ffffffffffffffff811115610bff57610bff614eb4565b604051908082528060200260200182016040528015610c7e57816020015b610c6b6040518060c0016040528060006001600160a01b0316815260200160006001600160a01b03168152602001600081526020016000815260200160008019168152602001606081525090565b815260200190600190039081610c1d5790505b50905060005b82811015610dd4576000888152600960205260409020610ca48289615627565b81548110610cb457610cb461564d565b60009182526020918290206040805160c081018252600690930290910180546001600160a01b03908116845260018201541693830193909352600283015490820152600382015460608201526004820154608082015260058201805491929160a084019190610d2290615663565b80601f0160208091040260200160405190810160405280929190818152602001828054610d4e90615663565b8015610d9b5780601f10610d7057610100808354040283529160200191610d9b565b820191906000526020600020905b815481529060010190602001808311610d7e57829003601f168201915b505050505081525050828281518110610db657610db661564d565b60200260200101819052508080610dcc9061569d565b915050610c84565b509695505050505050565b3360009081527f220968fa85a917b1a73975ccfbd49c38a3bb4b1456624ba17c38c7fc697ab44660205260409020546000805160206159748339815191529060ff16610e3d5760405162461bcd60e51b8152600401610897906155a6565b60005b82811015610f1d5760066000858584818110610e5e57610e5e61564d565b90506020020135815260200190815260200160002060080160159054906101000a900460ff16610f1557600160066000868685818110610ea057610ea061564d565b90506020020135815260200190815260200160002060080160156101000a81548160ff021916908315150217905550838382818110610ee157610ee161564d565b905060200201357f339a5d26292b459dbd1a911e53069f56bd3610e5ca60a312043fc90189c388bf60405160405180910390a25b600101610e40565b50505050565b6060600060015b6005548111610fdf5760008181526006602052604090205415801590610f695750600081815260066020526040902060080154600160a81b900460ff16155b8015610f93575060008181526006602052604090206008015461010090046001600160a01b031615155b8015610fba575060008181526006602052604090206009018054610fb690615663565b1590505b15610fcd5781610fc98161569d565b9250505b80610fd78161569d565b915050610f2a565b5060008167ffffffffffffffff811115610ffb57610ffb614eb4565b604051908082528060200260200182016040528015611024578160200160208202803683370190505b509050600060015b60055481116110ff576000818152600660205260409020541580159061106b5750600081815260066020526040902060080154600160a81b900460ff16155b8015611095575060008181526006602052604090206008015461010090046001600160a01b031615155b80156110bc5750600081815260066020526040902060090180546110b890615663565b1590505b156110ed57808383815181106110d4576110d461564d565b6020908102919091010152816110e98161569d565b9250505b806110f78161569d565b91505061102c565b50909392505050565b3360009081526000805160206159b483398151915260205260409020546000805160206159d48339815191529060ff166111545760405162461bcd60e51b8152600401610897906155a6565b600054600160a01b900460ff166111a65760405162461bcd60e51b815260206004820152601660248201527510dbdb9d1c9858dd081a5cc81b9bdd081c185d5cd95960521b6044820152606401610897565b6000805460ff60a01b191690556040513381527f5db9ee0a495bf2e6ff9c91a7834c1ba4fdd244a5e8aa4e537bd38aeae4b073aa906020015b60405180910390a150565b6009602052816000526040600020818154811061120657600080fd5b60009182526020909120600690910201805460018201546002830154600384015460048501546005860180546001600160a01b039687169950959094169650919490939192909161125690615663565b80601f016020809104026020016040519081016040528092919081815260200182805461128290615663565b80156112cf5780601f106112a4576101008083540402835291602001916112cf565b820191906000526020600020905b8154815290600101906020018083116112b257829003601f168201915b5050505050905086565b60048054604080516303127d5d60e31b815290516001600160a01b03909216926312d9a6ad928492631893eae892818101926020929091908290030181865afa15801561132a573d6000803e3d6000fd5b505050506040513d601f19601f8201168201806040525081019061134e91906156b6565b6040516001600160e01b031960e084901b1681526004810191909152336024820152604401602060405180830381865afa158015611390573d6000803e3d6000fd5b505050506040513d601f19601f820116820180604052508101906113b491906156cf565b6113f65760405162461bcd60e51b81526020600482015260136024820152722737ba1030903b32b934b334b2b2103ab9b2b960691b6044820152606401610897565b611404878786858588614020565b6001600c8360405161141691906156ec565b908152604051908190036020019020805491151560ff19909216919091179055600580549060006114468361569d565b9091555050604080516101808101825260055480825260208083018b81528385018b8152606085018b9052608085018a905260a0850189905260c0850188905260e0850187905260006101008601819052336101208701526101408601819052865180850188528181526101608701529384526006909252939091208251815592516001840155519091829160028201906114e1908261574e565b506060820151600382015560808201516004820190611500908261574e565b5060a0820151600582015560c0820151600682019061151f908261574e565b5060e08201516007820155610100808301516008830180546101208601516101408701516001600160a81b0319909216931515610100600160a81b031916939093176001600160a01b039093169093029190911760ff60a81b1916600160a81b9215159290920291909117905561016082015160098201906115a1908261574e565b50503360008181526007602090815260408083206005805482546001818101855593875285872001558a8552600b909352818420805460ff1916909117905590549051929350917fe659cd97cac952bd95422fe03dc78e1dfa0a1734b6bed8350eff0c58364d76759190a35050505050505050565b333014806116335750336000908152600d602052604090205460ff165b6116775760405162461bcd60e51b815260206004820152601560248201527410d85b1b195c881b9bdd08185d5d1a1bdc9a5e9959605a1b6044820152606401610897565b6001600160a01b0382166116c15760405162461bcd60e51b815260206004820152601160248201527024b73b30b634b2103732bb9037bbb732b960791b6044820152606401610897565b600083815260066020526040902060088101546001600160a01b03610100909104811690841681036117225760405162461bcd60e51b815260206004820152600a60248201526929b0b6b29037bbb732b960b11b6044820152606401610897565b61172d858286614297565b600882018054600784018590556001600160a81b0319166101006001600160a01b0387160260ff1916179055600382015460408051808201909152601581527413dddb995c9cda1a5c081d1c985b9cd9995c9c9959605a1b602082015261179b918791849188918890614453565b846000805160206159948339815191526000806040516117bc92919061580e565b60405180910390a25050505050565b81600081116117ec5760405162461bcd60e51b815260040161089790615855565b600083815260066020526040902060080154839061010090046001600160a01b0316331461182c5760405162461bcd60e51b815260040161089790615504565b600081815260066020526040902060080154600160a81b900460ff166118645760405162461bcd60e51b815260040161089790615530565b82600081116118b55760405162461bcd60e51b815260206004820152601c60248201527f5072696365206d7573742062652067726561746572207468616e2030000000006044820152606401610897565b6118c2600260001961587e565b8111156119025760405162461bcd60e51b815260206004820152600e60248201526d0a0e4d2c6ca40e8dede40d0d2ced60931b6044820152606401610897565b60008581526006602090815260409182902060038101879055600701548251808401909352601283527113185b99081c1c9a58d9481d5c19185d195960721b91830191909152611959918791339182918991614453565b846000805160206159948339815191526003866040516117bc92919061557d565b6005546060906000908082036119ca5760408051600080825260208201909252906119bb565b6119a861499e565b8152602001906001900390816119a05790505b50600080925092509250611d9c565b6000806119d8878785614569565b90925090508560016119ea8286615627565b6119f4919061563a565b6119fe919061587e565b93508067ffffffffffffffff811115611a1957611a19614eb4565b604051908082528060200260200182016040528015611a5257816020015b611a3f61499e565b815260200190600190039081611a375790505b509450600080611a63846001615627565b90505b611a708385615627565b8111611d975760008181526006602052604090205415611d855760066000828152602001908152602001600020604051806101800160405290816000820154815260200160018201548152602001600282018054611acd90615663565b80601f0160208091040260200160405190810160405280929190818152602001828054611af990615663565b8015611b465780601f10611b1b57610100808354040283529160200191611b46565b820191906000526020600020905b815481529060010190602001808311611b2957829003601f168201915b5050505050815260200160038201548152602001600482018054611b6990615663565b80601f0160208091040260200160405190810160405280929190818152602001828054611b9590615663565b8015611be25780601f10611bb757610100808354040283529160200191611be2565b820191906000526020600020905b815481529060010190602001808311611bc557829003601f168201915b5050505050815260200160058201548152602001600682018054611c0590615663565b80601f0160208091040260200160405190810160405280929190818152602001828054611c3190615663565b8015611c7e5780601f10611c5357610100808354040283529160200191611c7e565b820191906000526020600020905b815481529060010190602001808311611c6157829003601f168201915b505050918352505060078201546020820152600882015460ff808216151560408401526001600160a01b036101008304166060840152600160a81b909104161515608082015260098201805460a090920191611cd990615663565b80601f0160208091040260200160405190810160405280929190818152602001828054611d0590615663565b8015611d525780601f10611d2757610100808354040283529160200191611d52565b820191906000526020600020905b815481529060010190602001808311611d3557829003601f168201915b505050505081525050878380611d679061569d565b945081518110611d7957611d7961564d565b60200260200101819052505b80611d8f8161569d565b915050611a66565b505050505b9250925092565b3360009081527f220968fa85a917b1a73975ccfbd49c38a3bb4b1456624ba17c38c7fc697ab44660205260409020546000805160206159748339815191529060ff16611e015760405162461bcd60e51b8152600401610897906155a6565b600084118015611e1357506005548411155b611e2f5760405162461bcd60e51b815260040161089790615855565b82611eca576000825111611e855760405162461bcd60e51b815260206004820152601960248201527f52656a656374696f6e20726561736f6e207265717569726564000000000000006044820152606401610897565b6103e882511115611eca5760405162461bcd60e51b815260206004820152600f60248201526e526561736f6e20746f6f206c6f6e6760881b6044820152606401610897565b60008481526006602052604081208054909103611f1f5760405162461bcd60e51b815260206004820152601360248201527213185b9908191bd95cc81b9bdd08195e1a5cdd606a1b6044820152606401610897565b6008810154600160a81b900460ff1615611f735760405162461bcd60e51b815260206004820152601560248201527413185b9908185b1c9958591e481d995c9a599a5959605a1b6044820152606401610897565b8315611ff057600781015415801590611f8f5750600581015415155b8015611fab57506000816006018054611fa790615663565b9050115b611ff05760405162461bcd60e51b8152602060048201526016602482015275496e76616c6964206c616e6420646f63756d656e747360501b6044820152606401610897565b8361205757611ffe85614666565b6009810161200c848261574e565b5060088101805460ff60a81b1916905560405185907f827d200c869663fd6fb1073b17bf971ecf1cd8d4aafd70d1ecfc2305846a57479061204e908690615313565b60405180910390a25b83156120a25760088101805460ff60a81b1916600160a81b17905560405185907f339a5d26292b459dbd1a911e53069f56bd3610e5ca60a312043fc90189c388bf90600090a26120f3565b60088101805460ff60a81b191690556120ba85614666565b847f827d200c869663fd6fb1073b17bf971ecf1cd8d4aafd70d1ecfc2305846a5747846040516120ea9190615313565b60405180910390a25b6008810154600382015460078301546121519288926101009091046001600160a01b031691829190896121265788614453565b6040518060400160405280600d81526020016c13185b99081d995c9a599a5959609a1b815250614453565b5050505050565b6000546001600160a01b031633146121825760405162461bcd60e51b8152600401610897906158a0565b6001600160a01b0381166121a85760405162461bcd60e51b8152600401610897906155e8565b6001600160a01b0381166000818152600d6020526040808220805460ff19166001179055517f8983a1f3c3cb45c24c8226b5b805e3b6eb49686530b808534b2a920129eff6519190a250565b6000818152600860209081526040808320600281015481548351818602810186019094528084526060958695909484936001850193909285919083018282801561225d57602002820191906000526020600020905b815481526020019060010190808311612249575b5050505050925081805480602002602001604051908101604052809291908181526020016000905b828210156123315783829060005260206000200180546122a490615663565b80601f01602080910402602001604051908101604052809291908181526020018280546122d090615663565b801561231d5780601f106122f25761010080835404028352916020019161231d565b820191906000526020600020905b81548152906001019060200180831161230057829003601f168201915b505050505081526020019060010190612285565b505050509150935093509350509193909250565b80600081116123665760405162461bcd60e51b815260040161089790615855565b60008281526006602052604090206008015461010090046001600160a01b031633146123a45760405162461bcd60e51b815260040161089790615504565b60008281526006602052604090206008015460ff16156124065760405162461bcd60e51b815260206004820152601a60248201527f4c616e642069732063757272656e746c7920666f722073616c650000000000006044820152606401610897565b336000908152600760209081526040808320858452600a90925290912054815481106124655760405162461bcd60e51b815260206004820152600e60248201526d13185b99081b9bdd08199bdd5b9960921b6044820152606401610897565b61246e84614782565b60405184907f14140c09ea585bcc961d25dd1c77cdc93370b6554cbae930ca87c61f25a95ac190600090a250505050565b6000546001600160a01b031633146124c95760405162461bcd60e51b8152600401610897906158a0565b6001600160a01b03811661251b5760405162461bcd60e51b8152602060048201526019602482015278496e76616c696420696e73706563746f72206164647265737360381b6044820152606401610897565b6001600160a01b038116600090815260026020526040812054900361257d5760405162461bcd60e51b8152602060048201526018602482015277125b9cdc1958dd1bdc88191bd95cc81b9bdd08195e1a5cdd60421b6044820152606401610897565b6001600160a01b03811660009081526002602052604081208054828255916125a86001830182614a0f565b60028201600090556003820160006125c09190614a0f565b50506125da60008051602061597483398151915283613f77565b816001600160a01b03167ff4d26249e2d6402f768ccb0c52cb35f2df31dae16a7ba6518812c1f8db9c034e8260405161261591815260200190565b60405180910390a26040516001600160a01b03831690600080516020615974833981519152907f155aaafb6329a2098580462df33ec4b7441b19729b9601c5fc17ae1cf99a8a5290600090a35050565b600081815260066020526040902060080154819061010090046001600160a01b031633146126a55760405162461bcd60e51b815260040161089790615504565b600081815260066020526040902060080154600160a81b900460ff166126dd5760405162461bcd60e51b815260040161089790615530565b60008281526006602052604090206008015460ff16156127375760405162461bcd60e51b81526020600482015260156024820152744c616e6420616c726561647920666f722073616c6560581b6044820152606401610897565b60008281526006602052604090819020600801805460ff1916600190811790915590518391600080516020615994833981519152916109669190819061557d565b3360009081526000805160206159b483398151915260205260409020546000805160206159d48339815191529060ff166127c45760405162461bcd60e51b8152600401610897906155a6565b600054600160a01b900460ff161561281e5760405162461bcd60e51b815260206004820152601a60248201527f436f6e747261637420697320616c7265616479207061757365640000000000006044820152606401610897565b6000805460ff60a01b1916600160a01b1790556040513381527f62e78cea01bee320cd4e420270b5ea74000d11b0c9f74754ebdbfc544b05a258906020016111df565b6000546001600160a01b0316331461288b5760405162461bcd60e51b8152600401610897906158a0565b6001600160a01b0384166128dd5760405162461bcd60e51b8152602060048201526019602482015278496e76616c696420696e73706563746f72206164647265737360381b6044820152606401610897565b601282101561292e5760405162461bcd60e51b815260206004820152601a60248201527f496e73706563746f72206d75737420626520616e206164756c740000000000006044820152606401610897565b60008351116129765760405162461bcd60e51b81526020600482015260146024820152734e616d652063616e6e6f7420626520656d70747960601b6044820152606401610897565b60008151116129c75760405162461bcd60e51b815260206004820152601b60248201527f44657369676e6174696f6e2063616e6e6f7420626520656d70747900000000006044820152606401610897565b6001600160a01b03841660009081526002602052604090205415612a2d5760405162461bcd60e51b815260206004820152601860248201527f496e73706563746f7220616c72656164792065786973747300000000000000006044820152606401610897565b60038054906000612a3d8361569d565b90915550506040805160808101825260035481526020808201868152828401869052606083018590526001600160a01b038816600090815260029092529290208151815591519091906001820190612a95908261574e565b506040820151600282015560608201516003820190612ab4908261574e565b50905050612ad060008051602061597483398151915285613e4f565b836001600160a01b03167f99ec83913a9d9b79baf37f57157bc50784ba372a64a793df8c821767a2e1bb6b600354604051612b0d91815260200190565b60405180910390a26040516001600160a01b03851690600080516020615974833981519152907f8122312829fb608b8d31c14e44cba6826748abddc350818605bfc69eb7ff384790600090a350505050565b6000818152600660205260409020600901805460609190612b7f90615663565b80601f0160208091040260200160405190810160405280929190818152602001828054612bab90615663565b8015610b625780601f10612bcd57610100808354040283529160200191610b62565b820191906000526020600020905b815481529060010190602001808311612bdb5750939695505050505050565b8260008111612c1b5760405162461bcd60e51b815260040161089790615855565b600084815260066020526040902060080154849061010090046001600160a01b03163314612c5b5760405162461bcd60e51b815260040161089790615504565b600081815260066020526040902060080154600160a81b900460ff16612c935760405162461bcd60e51b815260040161089790615530565b83612cd95760405162461bcd60e51b8152602060048201526016602482015275111bd8dd5b595b9d081a185cda081c995c5d5a5c995960521b6044820152606401610897565b6000835111612d215760405162461bcd60e51b815260206004820152601460248201527311195cd8dc9a5c1d1a5bdb881c995c5d5a5c995960621b6044820152606401610897565b6000858152600860205260408120549003612e32576040805160018082528183019092526000916020808301908036833750506040805160018082528183019092529293506000929150602082015b6060815260200190600190039081612d705790505090508582600081518110612d9b57612d9b61564d565b6020026020010181815250508481600081518110612dbb57612dbb61564d565b60209081029190910181019190915260408051606081018252848152808301849052428183015260008a815260088452919091208151805192939192612e049284920190614a4c565b506020828101518051612e1d9260018501920190614a97565b50604082015181600201559050505050612ee5565b600085815260086020526040902054603211612e905760405162461bcd60e51b815260206004820152601960248201527f4d6178696d756d20646f63756d656e74732072656163686564000000000000006044820152606401610897565b60008581526008602090815260408220805460018181018355828552838520909101889055908101805491820181558352912001612ece848261574e565b506000858152600860205260409020426002909101555b847f67f7dd6bc0fdb45214ba743fb1ee72780d369d4670337a360cfd22abcfd9a714856040516117bc91815260200190565b60026020526000908152604090208054600182018054919291612f3990615663565b80601f0160208091040260200160405190810160405280929190818152602001828054612f6590615663565b8015612fb25780601f10612f8757610100808354040283529160200191612fb2565b820191906000526020600020905b815481529060010190602001808311612f9557829003601f168201915b505050505090806002015490806003018054612fcd90615663565b80601f0160208091040260200160405190810160405280929190818152602001828054612ff990615663565b80156130465780601f1061301b57610100808354040283529160200191613046565b820191906000526020600020905b81548152906001019060200180831161302957829003601f168201915b5050505050905084565b6000546001600160a01b0316331461307a5760405162461bcd60e51b8152600401610897906158a0565b600054600160a01b900460ff166130d35760405162461bcd60e51b815260206004820152601760248201527f436f6e7472616374206d757374206265207061757365640000000000000000006044820152606401610897565b6000805460405147926001600160a01b039092169183156108fc02918491818181858888f1935050505015801561310e573d6000803e3d6000fd5b50600054604080516001600160a01b039092168252602082018390527f23d6711a1d031134a36921253c75aa59e967d38e369ac625992824315e204f2091016111df565b6007602052816000526040600020818154811061316e57600080fd5b90600052602060002001600091509150505481565b600660205260009081526040902080546001820154600283018054929391926131ab90615663565b80601f01602080910402602001604051908101604052809291908181526020018280546131d790615663565b80156132245780601f106131f957610100808354040283529160200191613224565b820191906000526020600020905b81548152906001019060200180831161320757829003601f168201915b50505050509080600301549080600401805461323f90615663565b80601f016020809104026020016040519081016040528092919081815260200182805461326b90615663565b80156132b85780601f1061328d576101008083540402835291602001916132b8565b820191906000526020600020905b81548152906001019060200180831161329b57829003601f168201915b5050505050908060050154908060060180546132d390615663565b80601f01602080910402602001604051908101604052809291908181526020018280546132ff90615663565b801561334c5780601f106133215761010080835404028352916020019161334c565b820191906000526020600020905b81548152906001019060200180831161332f57829003601f168201915b50505050600783015460088401546009850180549495929460ff808416955061010084046001600160a01b031694600160a81b9094041692919061338f90615663565b80601f01602080910402602001604051908101604052809291908181526020018280546133bb90615663565b80156134085780601f106133dd57610100808354040283529160200191613408565b820191906000526020600020905b8154815290600101906020018083116133eb57829003601f168201915b505050505090508c565b6000828152600b6020526040808220549051829160ff161590600c906134399086906156ec565b9081526040519081900360200190205490925060ff161590509250929050565b6134846040518060800160405280600081526020016060815260200160008152602001606081525090565b6001600160a01b03821660009081526002602052604081205490036134e65760405162461bcd60e51b8152602060048201526018602482015277125b9cdc1958dd1bdc88191bd95cc81b9bdd08195e1a5cdd60421b6044820152606401610897565b6001600160a01b03821660009081526002602090815260409182902082516080810190935280548352600181018054919284019161352390615663565b80601f016020809104026020016040519081016040528092919081815260200182805461354f90615663565b801561359c5780601f106135715761010080835404028352916020019161359c565b820191906000526020600020905b81548152906001019060200180831161357f57829003601f168201915b50505050508152602001600282015481526020016003820180546135bf90615663565b80601f01602080910402602001604051908101604052809291908181526020018280546135eb90615663565b80156136385780601f1061360d57610100808354040283529160200191613638565b820191906000526020600020905b81548152906001019060200180831161361b57829003601f168201915b5050505050815250509050919050565b6000546001600160a01b031633146136725760405162461bcd60e51b8152600401610897906158a0565b6001600160a01b0381166136985760405162461bcd60e51b8152600401610897906155e8565b600080546040516001600160a01b03808516939216917f8be0079c531659141344cd1fd0a4f28419497f9722a3daafe3b4186f6b6457e091a3600080546001600160a01b0319166001600160a01b0392909216919091179055565b6060600060015b60055481116137bc5760008181526006602052604090206008015460ff16801561373557506000818152600660205260409020600301548611155b801561375257506000818152600660205260409020600301548510155b8015613797575083511580613797575083805190602001206006600083815260200190815260200160002060020160405161378d919061593a565b6040518091039020145b156137aa57816137a68161569d565b9250505b806137b48161569d565b9150506136fa565b5060008167ffffffffffffffff8111156137d8576137d8614eb4565b60405190808252806020026020018201604052801561381157816020015b6137fe61499e565b8152602001906001900390816137f65790505b509050600060015b6005548111613bca5760008181526006602052604090206008015460ff16801561385457506000818152600660205260409020600301548811155b801561387157506000818152600660205260409020600301548710155b80156138b65750855115806138b657508580519060200120600660008381526020019081526020016000206002016040516138ac919061593a565b6040518091039020145b15613bb857600660008281526020019081526020016000206040518061018001604052908160008201548152602001600182015481526020016002820180546138fe90615663565b80601f016020809104026020016040519081016040528092919081815260200182805461392a90615663565b80156139775780601f1061394c57610100808354040283529160200191613977565b820191906000526020600020905b81548152906001019060200180831161395a57829003601f168201915b505050505081526020016003820154815260200160048201805461399a90615663565b80601f01602080910402602001604051908101604052809291908181526020018280546139c690615663565b8015613a135780601f106139e857610100808354040283529160200191613a13565b820191906000526020600020905b8154815290600101906020018083116139f657829003601f168201915b5050505050815260200160058201548152602001600682018054613a3690615663565b80601f0160208091040260200160405190810160405280929190818152602001828054613a6290615663565b8015613aaf5780601f10613a8457610100808354040283529160200191613aaf565b820191906000526020600020905b815481529060010190602001808311613a9257829003601f168201915b505050918352505060078201546020820152600882015460ff808216151560408401526001600160a01b036101008304166060840152600160a81b909104161515608082015260098201805460a090920191613b0a90615663565b80601f0160208091040260200160405190810160405280929190818152602001828054613b3690615663565b8015613b835780601f10613b5857610100808354040283529160200191613b83565b820191906000526020600020905b815481529060010190602001808311613b6657829003601f168201915b505050505081525050838381518110613b9e57613b9e61564d565b60200260200101819052508180613bb49061569d565b9250505b80613bc28161569d565b915050613819565b50909695505050505050565b613bde61499e565b600554821115613c005760405162461bcd60e51b815260040161089790615855565b60066000838152602001908152602001600020604051806101800160405290816000820154815260200160018201548152602001600282018054613c4390615663565b80601f0160208091040260200160405190810160405280929190818152602001828054613c6f90615663565b8015613cbc5780601f10613c9157610100808354040283529160200191613cbc565b820191906000526020600020905b815481529060010190602001808311613c9f57829003601f168201915b5050505050815260200160038201548152602001600482018054613cdf90615663565b80601f0160208091040260200160405190810160405280929190818152602001828054613d0b90615663565b8015613d585780601f10613d2d57610100808354040283529160200191613d58565b820191906000526020600020905b815481529060010190602001808311613d3b57829003601f168201915b5050505050815260200160058201548152602001600682018054613d7b90615663565b80601f0160208091040260200160405190810160405280929190818152602001828054613da790615663565b8015613df45780601f10613dc957610100808354040283529160200191613df4565b820191906000526020600020905b815481529060010190602001808311613dd757829003601f168201915b505050918352505060078201546020820152600882015460ff808216151560408401526001600160a01b036101008304166060840152600160a81b909104161515608082015260098201805460a0909201916135bf90615663565b6001600160a01b038116613e755760405162461bcd60e51b8152600401610897906155e8565b7f2ea52e8a0f8c1b6d1df1c2d3360b2e65af84e6442f1590d354ba73e1efac67c18203613f1a576001600160a01b03811660009081527f42e0c820bcf782f2ae6b6ee3a83da7173685bb3cc1699ae87c54d87ed5da0f52602052604090205460ff16613f1a5760405162461bcd60e51b81526020600482015260146024820152734d757374206861766520626173696320726f6c6560601b6044820152606401610897565b60008281526001602081815260408084206001600160a01b0386168086529252808420805460ff19169093179092559051909184917f8122312829fb608b8d31c14e44cba6826748abddc350818605bfc69eb7ff38479190a35050565b7f14823911f2da1b49f045a0929a60b8c1f2a7fc8c06c7284ca3e8ab4e193a08c88203613fc857613fc87f2ea52e8a0f8c1b6d1df1c2d3360b2e65af84e6442f1590d354ba73e1efac67c182613f77565b60008281526001602090815260408083206001600160a01b0385168085529252808320805460ff1916905551909184917f155aaafb6329a2098580462df33ec4b7441b19729b9601c5fc17ae1cf99a8a529190a35050565b600086116140705760405162461bcd60e51b815260206004820152601b60248201527f41726561206d7573742062652067726561746572207468616e203000000000006044820152606401610897565b60008551116140b55760405162461bcd60e51b8152602060048201526011602482015270131bd8d85d1a5bdb881c995c5d5a5c9959607a1b6044820152606401610897565b60008451116140fd5760405162461bcd60e51b815260206004820152601460248201527310dbdbdc991a5b985d195cc81c995c5d5a5c995960621b6044820152606401610897565b60008351116141475760405162461bcd60e51b815260206004820152601660248201527514dd5c9d995e481b9d5b58995c881c995c5d5a5c995960521b6044820152606401610897565b8161418d5760405162461bcd60e51b8152602060048201526016602482015275111bd8dd5b595b9d081a185cda081c995c5d5a5c995960521b6044820152606401610897565b600081116141cb5760405162461bcd60e51b815260206004820152600b60248201526a125b9d985b1a590814125160aa1b6044820152606401610897565b6000818152600b602052604090205460ff161561421f5760405162461bcd60e51b815260206004820152601260248201527150494420616c72656164792065786973747360701b6044820152606401610897565b600c8360405161422f91906156ec565b9081526040519081900360200190205460ff161561428f5760405162461bcd60e51b815260206004820152601c60248201527f537572766579206e756d62657220616c726561647920657869737473000000006044820152606401610897565b505050505050565b6001600160a01b0381166142e15760405162461bcd60e51b815260206004820152601160248201527024b73b30b634b2103732bb9037bbb732b960791b6044820152606401610897565b806001600160a01b0316826001600160a01b03160361432f5760405162461bcd60e51b815260206004820152600a60248201526929b0b6b29037bbb732b960b11b6044820152606401610897565b6001600160a01b0382166000908152600760209081526040808320868452600a9092529091205481548110156143fd57815461436d9060019061563a565b81146143d657815460009083906143869060019061563a565b815481106143965761439661564d565b90600052602060002001549050808383815481106143b6576143b661564d565b6000918252602080832090910192909255918252600a9052604090208190555b818054806143e6576143e6615946565b600190038181906000526020600020016000905590555b6001600160a01b038316600081815260076020908152604082208054600181810183558285529284200189905592909152905461443a919061563a565b6000958652600a60205260409095209490945550505050565b6000868152600960205260409020546064116144a95760405162461bcd60e51b8152602060048201526015602482015274121a5cdd1bdc9e481b1a5b5a5d081c995858da1959605a1b6044820152606401610897565b6000868152600960209081526040808320815160c0810183526001600160a01b03808b1682528981168286019081529382018981524260608401908152608084018a815260a085018a8152865460018181018955978b5298909920855160069099020180549885166001600160a01b0319998a161781559651958701805496909416959097169490941790915551600284015590516003830155915160048201559151909190600582019061455e908261574e565b505050505050505050565b600080836000036145b1576040516304e0bc2760e11b8152602060048201526011602482015270496e76616c696420706167652073697a6560781b6044820152606401610897565b826000036145c45750600090508061465e565b60008460016145d38287615627565b6145dd919061563a565b6145e7919061587e565b905080861061462e576040516304e0bc2760e11b815260206004820152601260248201527150616765206f7574206f6620626f756e647360701b6044820152606401610897565b614638858761595c565b9250836146458685615627565b11614650578461465a565b61465a838561563a565b9150505b935093915050565b600081815260066020819052604082206005810154918101805491939161468c90615663565b80601f01602080910402602001604051908101604052809291908181526020018280546146b890615663565b80156147055780601f106146da57610100808354040283529160200191614705565b820191906000526020600020905b8154815290600101906020018083116146e857829003601f168201915b5050506000858152600b602052604090819020805460ff1916905551929350600c9261473492508491506156ec565b908152604080519182900360209081018320805460ff191690556000600587018190559083019091528152600684019061476e908261574e565b505050600801805460ff60a81b1916905550565b6000818152600660209081526040808320600881015461010090046001600160a01b0316808552600790935292206147bc90600a856148e6565b600083815260066020526040812081815560018101829055906147e26002830182614a0f565b60038201600090556004820160006147fa9190614a0f565b60058201600090556006820160006148129190614a0f565b6000600783018190556008830180546001600160b01b031916905561483b906009840190614a0f565b50506000838152600860205260408120906148568282614ae9565b614864600183016000614b07565b50600060029190910181905583815260096020526040812061488591614b25565b60058201546000908152600b60205260408120805460ff191690556006830180546148af90615663565b90501115610a1b57600c826006016040516148ca919061593a565b908152604051908190036020019020805460ff19169055505050565b60008181526020839052604081205484549091906149069060019061563a565b90508082146149625760008582815481106149235761492361564d565b90600052602060002001549050808684815481106149435761494361564d565b6000918252602080832090910192909255918252859052604090208290555b8480548061497257614972615946565b600082815260208082208301600019908101839055909201909255938152939092525050604081205550565b604051806101800160405280600081526020016000815260200160608152602001600081526020016060815260200160008152602001606081526020016000801916815260200160001515815260200160006001600160a01b03168152602001600015158152602001606081525090565b508054614a1b90615663565b6000825580601f10614a2b575050565b601f016020900490600052602060002090810190614a499190614b46565b50565b828054828255906000526020600020908101928215614a87579160200282015b82811115614a87578251825591602001919060010190614a6c565b50614a93929150614b46565b5090565b828054828255906000526020600020908101928215614add579160200282015b82811115614add5782518290614acd908261574e565b5091602001919060010190614ab7565b50614a93929150614b5b565b5080546000825590600052602060002090810190614a499190614b46565b5080546000825590600052602060002090810190614a499190614b5b565b5080546000825560060290600052602060002090810190614a499190614b78565b5b80821115614a935760008155600101614b47565b80821115614a93576000614b6f8282614a0f565b50600101614b5b565b80821115614a935780546001600160a01b0319908116825560018201805490911690556000600282018190556003820181905560048201819055614bbf6005830182614a0f565b50600601614b78565b600060208284031215614bda57600080fd5b5035919050565b80356001600160a01b0381168114614bf857600080fd5b919050565b600060208284031215614c0f57600080fd5b614c1882614be1565b9392505050565b60008060408385031215614c3257600080fd5b82359150614c4260208401614be1565b90509250929050565b60008060408385031215614c5e57600080fd5b614c6783614be1565b946020939093013593505050565b6020808252825182820181905260009190848201906040850190845b81811015613bca57835183529284019291840191600101614c91565b600080600060608486031215614cc257600080fd5b505081359360208301359350604090920135919050565b60005b83811015614cf4578181015183820152602001614cdc565b50506000910152565b60008151808452614d15816020860160208601614cd9565b601f01601f19169290920160200192915050565b60006020808301818452808551808352604092508286019150828160051b87010184880160005b83811015614dc657888303603f19018552815180516001600160a01b0390811685528882015116888501528681015187850152606080820151908501526080808201519085015260a09081015160c091850182905290614db281860183614cfd565b968901969450505090860190600101614d50565b509098975050505050505050565b60008060208385031215614de757600080fd5b823567ffffffffffffffff80821115614dff57600080fd5b818501915085601f830112614e1357600080fd5b813581811115614e2257600080fd5b8660208260051b8501011115614e3757600080fd5b60209290920196919550909350505050565b60008060408385031215614e5c57600080fd5b50508035926020909101359150565b600060018060a01b03808916835280881660208401525085604083015284606083015283608083015260c060a0830152614ea860c0830184614cfd565b98975050505050505050565b634e487b7160e01b600052604160045260246000fd5b600082601f830112614edb57600080fd5b813567ffffffffffffffff80821115614ef657614ef6614eb4565b604051601f8301601f19908116603f01168101908282118183101715614f1e57614f1e614eb4565b81604052838152866020858801011115614f3757600080fd5b836020870160208301376000602085830101528094505050505092915050565b600080600080600080600060e0888a031215614f7257600080fd5b87359650602088013567ffffffffffffffff80821115614f9157600080fd5b614f9d8b838c01614eca565b975060408a0135965060608a0135915080821115614fba57600080fd5b614fc68b838c01614eca565b955060808a0135945060a08a0135915080821115614fe357600080fd5b50614ff08a828b01614eca565b92505060c0880135905092959891949750929550565b60008060006060848603121561501b57600080fd5b8335925061502b60208501614be1565b9150604084013590509250925092565b60006101808251845260208301516020850152604083015181604086015261506582860182614cfd565b91505060608301516060850152608083015184820360808601526150898282614cfd565b91505060a083015160a085015260c083015184820360c08601526150ad8282614cfd565b91505060e083015160e0850152610100808401516150ce8287018215159052565b5050610120838101516001600160a01b0316908501526101408084015115159085015261016080840151858303828701526151098382614cfd565b9695505050505050565b600081518084526020808501808196508360051b8101915082860160005b8581101561515b57828403895261514984835161503b565b98850198935090840190600101615131565b5091979650505050505050565b60608152600061517b6060830186615113565b60208301949094525060400152919050565b8015158114614a4957600080fd5b6000806000606084860312156151b057600080fd5b8335925060208401356151c28161518d565b9150604084013567ffffffffffffffff8111156151de57600080fd5b6151ea86828701614eca565b9150509250925092565b606080825284519082018190526000906020906080840190828801845b8281101561522d57815184529284019290840190600101615211565b50505083810382850152855180825282820190600581901b8301840188850160005b8381101561527d57601f1986840301855261526b838351614cfd565b9487019492509086019060010161524f565b50508095505050505050826040830152949350505050565b600080600080608085870312156152ab57600080fd5b6152b485614be1565b9350602085013567ffffffffffffffff808211156152d157600080fd5b6152dd88838901614eca565b94506040870135935060608701359150808211156152fa57600080fd5b5061530787828801614eca565b91505092959194509250565b602081526000614c186020830184614cfd565b60008060006060848603121561533b57600080fd5b8335925060208401359150604084013567ffffffffffffffff8111156151de57600080fd5b8481526080602082015260006153796080830186614cfd565b84604084015282810360608401526153918185614cfd565b979650505050505050565b60006101808e83528d60208401528060408401526153bc8184018e614cfd565b90508b606084015282810360808401526153d6818c614cfd565b90508960a084015282810360c08401526153f0818a614cfd565b60e084018990528715156101008501526001600160a01b038716610120850152851515610140850152905082810361016084015261542e8185614cfd565b9f9e505050505050505050505050505050565b6000806040838503121561545457600080fd5b82359150602083013567ffffffffffffffff81111561547257600080fd5b61547e85828601614eca565b9150509250929050565b602081528151602082015260006020830151608060408401526154ae60a0840182614cfd565b9050604084015160608401526060840151601f198483030160808501526154d58282614cfd565b95945050505050565b602081526000614c186020830184615113565b602081526000614c18602083018461503b565b6020808252601290820152712737ba103a3432903630b7321037bbb732b960711b604082015260600190565b60208082526011908201527013185b99081b9bdd081d995c9a599a5959607a1b604082015260600190565b6004811061557957634e487b7160e01b600052602160045260246000fd5b9052565b615587818461555b565b6060602082018190526000908201526040810191909152608001919050565b60208082526022908201527f43616c6c657220646f6573206e6f74206861766520726571756972656420726f6040820152616c6560f01b606082015260800190565b6020808252600f908201526e496e76616c6964206164647265737360881b604082015260600190565b634e487b7160e01b600052601160045260246000fd5b8082018082111561099957610999615611565b8181038181111561099957610999615611565b634e487b7160e01b600052603260045260246000fd5b600181811c9082168061567757607f821691505b60208210810361569757634e487b7160e01b600052602260045260246000fd5b50919050565b6000600182016156af576156af615611565b5060010190565b6000602082840312156156c857600080fd5b5051919050565b6000602082840312156156e157600080fd5b8151614c188161518d565b600082516156fe818460208701614cd9565b9190910192915050565b601f821115610a1b57600081815260208120601f850160051c8101602086101561572f5750805b601f850160051c820191505b8181101561428f5782815560010161573b565b815167ffffffffffffffff81111561576857615768614eb4565b61577c816157768454615663565b84615708565b602080601f8311600181146157b157600084156157995750858301515b600019600386901b1c1916600185901b17855561428f565b600085815260208120601f198616915b828110156157e0578886015182559484019460019091019084016157c1565b50858210156157fe5787850151600019600388901b60f8161c191681555b5050505050600190811b01905550565b615818818461555b565b6060602082018190526015908201527413dddb995c9cda1a5c081d1c985b9cd9995c9c9959605a1b6080820152604081019190915260a001919050565b6020808252600f908201526e125b9d985b1a59081b185b99081251608a1b604082015260600190565b60008261589b57634e487b7160e01b600052601260045260246000fd5b500490565b6020808252600d908201526c2737ba103a34329037bbb732b960991b604082015260600190565b600081546158d481615663565b600182811680156158ec576001811461590157615930565b60ff1984168752821515830287019450615930565b8560005260208060002060005b858110156159275781548a82015290840190820161590e565b50505082870194505b5050505092915050565b6000614c1882846158c7565b634e487b7160e01b600052603160045260246000fd5b80820281158282048414176109995761099961561156fe273dcf2136c7d8ef632bb8ef13dbca69a8f36fa620c7468671b3153d46a211c0b2b4a29255447006212fee2f8ffbdbaa531cd1bdde6bd5be7d0f4448cd161e1350efbde2d46c37e9785f1791697f77e94bb7b701e19f1930a668820722d37694a49807205ce4d355092ef5a8a18f56e8913cf4a201fbe287825b095693c21775a26469706673582212201104b8ac648f48d473653b90cdf585e5ab12c36e44a2b1cae2a64b72e941f0f664736f6c63430008130033",
  "linkReferences": {},
  "deployedLinkReferences": {}
}